{
  "contractName": "SimpleStorage",
  "abi": [
    {
      "constant": true,
      "inputs": [],
      "name": "j",
      "outputs": [
        {
          "name": "",
          "type": "address"
        }
      ],
      "payable": false,
      "stateMutability": "view",
      "type": "function",
      "signature": "0xb582ec5f"
    },
    {
      "inputs": [],
      "payable": false,
      "stateMutability": "nonpayable",
      "type": "constructor",
      "signature": "constructor"
    },
    {
      "constant": false,
      "inputs": [
        {
          "name": "a",
          "type": "address"
        }
      ],
      "name": "createNewMultiSigUser",
      "outputs": [],
      "payable": false,
      "stateMutability": "nonpayable",
      "type": "function",
      "signature": "0x67ddb864"
    },
    {
      "constant": false,
      "inputs": [
        {
          "name": "a",
          "type": "address"
        }
      ],
      "name": "createNewMultiSigInst",
      "outputs": [],
      "payable": false,
      "stateMutability": "nonpayable",
      "type": "function",
      "signature": "0x84320a3f"
    },
    {
      "constant": true,
      "inputs": [
        {
          "name": "a",
          "type": "address"
        }
      ],
      "name": "doesWalletExists",
      "outputs": [
        {
          "name": "",
          "type": "bool"
        }
      ],
      "payable": false,
      "stateMutability": "view",
      "type": "function",
      "signature": "0x33b62877"
    },
    {
      "constant": false,
      "inputs": [
        {
          "name": "ad",
          "type": "bool"
        },
        {
          "name": "hash",
          "type": "string"
        }
      ],
      "name": "createUploadRequestbyUser",
      "outputs": [],
      "payable": false,
      "stateMutability": "nonpayable",
      "type": "function",
      "signature": "0x20a38c5f"
    },
    {
      "constant": false,
      "inputs": [
        {
          "name": "a",
          "type": "address"
        },
        {
          "name": "ad",
          "type": "bool"
        },
        {
          "name": "hash",
          "type": "string"
        }
      ],
      "name": "createUploadRequestbyInstitute",
      "outputs": [],
      "payable": false,
      "stateMutability": "nonpayable",
      "type": "function",
      "signature": "0x2aebaf40"
    },
    {
      "constant": true,
      "inputs": [
        {
          "name": "ad",
          "type": "address"
        }
      ],
      "name": "getUploadReqList",
      "outputs": [
        {
          "name": "",
          "type": "address[]"
        }
      ],
      "payable": false,
      "stateMutability": "view",
      "type": "function",
      "signature": "0xd88997f7"
    },
    {
      "constant": false,
      "inputs": [
        {
          "name": "ad",
          "type": "address"
        }
      ],
      "name": "approveUploadbyUser",
      "outputs": [],
      "payable": false,
      "stateMutability": "nonpayable",
      "type": "function",
      "signature": "0x3b2b0d34"
    },
    {
      "constant": false,
      "inputs": [
        {
          "name": "ad",
          "type": "address"
        },
        {
          "name": "student",
          "type": "address"
        }
      ],
      "name": "approveUploadbyInstitute",
      "outputs": [],
      "payable": false,
      "stateMutability": "nonpayable",
      "type": "function",
      "signature": "0x6b061c24"
    },
    {
      "constant": true,
      "inputs": [],
      "name": "getAadhar",
      "outputs": [
        {
          "name": "",
          "type": "string"
        }
      ],
      "payable": false,
      "stateMutability": "view",
      "type": "function",
      "signature": "0x571479c1"
    },
    {
      "constant": true,
      "inputs": [
        {
          "name": "a",
          "type": "address"
        }
      ],
      "name": "getOwners",
      "outputs": [
        {
          "name": "",
          "type": "address"
        },
        {
          "name": "",
          "type": "address"
        }
      ],
      "payable": false,
      "stateMutability": "view",
      "type": "function",
      "signature": "0xfd8b84b1"
    },
    {
      "constant": true,
      "inputs": [
        {
          "name": "ad",
          "type": "address"
        }
      ],
      "name": "getInstitutesWallet",
      "outputs": [
        {
          "name": "",
          "type": "address[]"
        }
      ],
      "payable": false,
      "stateMutability": "view",
      "type": "function",
      "signature": "0xd5808aa0"
    },
    {
      "constant": true,
      "inputs": [
        {
          "name": "ad",
          "type": "address"
        }
      ],
      "name": "getInstitutesUploadList",
      "outputs": [
        {
          "name": "",
          "type": "address[]"
        }
      ],
      "payable": false,
      "stateMutability": "view",
      "type": "function",
      "signature": "0x65e69686"
    },
    {
      "constant": false,
      "inputs": [
        {
          "name": "stud",
          "type": "address"
        },
        {
          "name": "Inst",
          "type": "address"
        }
      ],
      "name": "changeOwnerInstfromInst",
      "outputs": [],
      "payable": false,
      "stateMutability": "nonpayable",
      "type": "function",
      "signature": "0x1dbcc031"
    },
    {
      "constant": false,
      "inputs": [
        {
          "name": "Inst",
          "type": "address"
        }
      ],
      "name": "changeOwnerInstfromStud",
      "outputs": [],
      "payable": false,
      "stateMutability": "nonpayable",
      "type": "function",
      "signature": "0x32584da9"
    },
    {
      "constant": false,
      "inputs": [
        {
          "name": "ad",
          "type": "address"
        }
      ],
      "name": "changeOwnerStudfromStud",
      "outputs": [],
      "payable": false,
      "stateMutability": "nonpayable",
      "type": "function",
      "signature": "0x946c6998"
    },
    {
      "constant": false,
      "inputs": [
        {
          "name": "ad",
          "type": "address"
        }
      ],
      "name": "changeOwnerStudfromInst",
      "outputs": [],
      "payable": false,
      "stateMutability": "nonpayable",
      "type": "function",
      "signature": "0xf9d6aede"
    },
    {
      "constant": true,
      "inputs": [
        {
          "name": "a",
          "type": "address"
        }
      ],
      "name": "getChangeOwnerList",
      "outputs": [
        {
          "name": "",
          "type": "address[]"
        }
      ],
      "payable": false,
      "stateMutability": "view",
      "type": "function",
      "signature": "0x7a17dab5"
    },
    {
      "constant": false,
      "inputs": [
        {
          "name": "name",
          "type": "string"
        },
        {
          "name": "pro",
          "type": "string"
        },
        {
          "name": "my",
          "type": "address"
        }
      ],
      "name": "updateProf",
      "outputs": [],
      "payable": false,
      "stateMutability": "nonpayable",
      "type": "function",
      "signature": "0x0d0201ea"
    },
    {
      "constant": true,
      "inputs": [
        {
          "name": "a",
          "type": "address"
        }
      ],
      "name": "getProfile",
      "outputs": [
        {
          "name": "",
          "type": "string"
        },
        {
          "name": "",
          "type": "string"
        }
      ],
      "payable": false,
      "stateMutability": "view",
      "type": "function",
      "signature": "0x0f53a470"
    },
    {
      "constant": false,
      "inputs": [
        {
          "name": "ad",
          "type": "address"
        }
      ],
      "name": "approveChangeOwnerINSTReqbyStud",
      "outputs": [],
      "payable": false,
      "stateMutability": "nonpayable",
      "type": "function",
      "signature": "0x0e8ab506"
    },
    {
      "constant": false,
      "inputs": [
        {
          "name": "ad",
          "type": "address"
        },
        {
          "name": "io",
          "type": "address"
        }
      ],
      "name": "approveChangeOwnerINSTReqbyInst",
      "outputs": [],
      "payable": false,
      "stateMutability": "nonpayable",
      "type": "function",
      "signature": "0xfb9e0ac9"
    },
    {
      "constant": false,
      "inputs": [
        {
          "name": "ad",
          "type": "address"
        },
        {
          "name": "io",
          "type": "address"
        }
      ],
      "name": "approveChangeOwnerSTUDReqbyInst",
      "outputs": [],
      "payable": false,
      "stateMutability": "nonpayable",
      "type": "function",
      "signature": "0x8fd6a914"
    },
    {
      "constant": false,
      "inputs": [
        {
          "name": "ad",
          "type": "address"
        },
        {
          "name": "io",
          "type": "address"
        }
      ],
      "name": "approveChangeOwnerSTUDReqbyStud",
      "outputs": [],
      "payable": false,
      "stateMutability": "nonpayable",
      "type": "function",
      "signature": "0x124edd24"
    },
    {
      "constant": false,
      "inputs": [
        {
          "name": "a",
          "type": "address"
        },
        {
          "name": "adhar",
          "type": "bool"
        },
        {
          "name": "d",
          "type": "uint8"
        }
      ],
      "name": "createNewPartialOwnerRequest",
      "outputs": [],
      "payable": false,
      "stateMutability": "nonpayable",
      "type": "function",
      "signature": "0xcdb2b1f1"
    },
    {
      "constant": true,
      "inputs": [
        {
          "name": "a",
          "type": "address"
        }
      ],
      "name": "getPartialOwnerShipList",
      "outputs": [
        {
          "name": "",
          "type": "address[]"
        }
      ],
      "payable": false,
      "stateMutability": "view",
      "type": "function",
      "signature": "0xf9cdf62b"
    },
    {
      "constant": false,
      "inputs": [
        {
          "name": "reqq",
          "type": "address"
        }
      ],
      "name": "approvePartialOwnerReqfromStudent",
      "outputs": [],
      "payable": false,
      "stateMutability": "nonpayable",
      "type": "function",
      "signature": "0x8a6d8bfb"
    },
    {
      "constant": false,
      "inputs": [
        {
          "name": "stud",
          "type": "address"
        },
        {
          "name": "reqq",
          "type": "address"
        }
      ],
      "name": "approvePartialOwnerReqfromInst",
      "outputs": [],
      "payable": false,
      "stateMutability": "nonpayable",
      "type": "function",
      "signature": "0x388aa39c"
    },
    {
      "constant": true,
      "inputs": [
        {
          "name": "a",
          "type": "address"
        }
      ],
      "name": "getAadharfromPartialOwner",
      "outputs": [
        {
          "name": "",
          "type": "string"
        }
      ],
      "payable": false,
      "stateMutability": "view",
      "type": "function",
      "signature": "0x45ae8f1f"
    },
    {
      "constant": true,
      "inputs": [
        {
          "name": "a",
          "type": "address"
        }
      ],
      "name": "isIamPartialOwner",
      "outputs": [
        {
          "name": "",
          "type": "bool"
        }
      ],
      "payable": false,
      "stateMutability": "view",
      "type": "function",
      "signature": "0xe5f91f71"
    },
    {
      "constant": true,
      "inputs": [
        {
          "name": "a",
          "type": "address"
        }
      ],
      "name": "getPartialOwnerSList",
      "outputs": [
        {
          "name": "",
          "type": "address[]"
        }
      ],
      "payable": false,
      "stateMutability": "view",
      "type": "function",
      "signature": "0x989bb9ff"
    },
    {
      "constant": false,
      "inputs": [],
      "name": "set",
      "outputs": [],
      "payable": false,
      "stateMutability": "nonpayable",
      "type": "function",
      "signature": "0xb8e010de"
    },
    {
      "constant": true,
      "inputs": [
        {
          "name": "stud",
          "type": "address"
        },
        {
          "name": "paro",
          "type": "address"
        }
      ],
      "name": "getPartialOwnerShipINFO",
      "outputs": [
        {
          "name": "",
          "type": "bool"
        },
        {
          "name": "",
          "type": "uint256"
        }
      ],
      "payable": false,
      "stateMutability": "view",
      "type": "function",
      "signature": "0x47e4ab25"
    },
    {
      "constant": true,
      "inputs": [
        {
          "name": "stud",
          "type": "address"
        },
        {
          "name": "reqq",
          "type": "address"
        }
      ],
      "name": "getUploadRequestTIMESTAMP",
      "outputs": [
        {
          "name": "",
          "type": "uint256"
        }
      ],
      "payable": false,
      "stateMutability": "view",
      "type": "function",
      "signature": "0x679a6f79"
    },
    {
      "constant": true,
      "inputs": [
        {
          "name": "stud",
          "type": "address"
        },
        {
          "name": "reqq",
          "type": "address"
        }
      ],
      "name": "getChangeOwnerRequestTIMESTAMP",
      "outputs": [
        {
          "name": "",
          "type": "uint256"
        }
      ],
      "payable": false,
      "stateMutability": "view",
      "type": "function",
      "signature": "0xfa271d80"
    },
    {
      "constant": false,
      "inputs": [
        {
          "name": "stud",
          "type": "address"
        },
        {
          "name": "reqq",
          "type": "address"
        }
      ],
      "name": "declineChangeOwnerRequest",
      "outputs": [],
      "payable": false,
      "stateMutability": "nonpayable",
      "type": "function",
      "signature": "0x6db682f7"
    },
    {
      "constant": false,
      "inputs": [
        {
          "name": "stud",
          "type": "address"
        },
        {
          "name": "reqq",
          "type": "address"
        }
      ],
      "name": "declineUploadRequest",
      "outputs": [],
      "payable": false,
      "stateMutability": "nonpayable",
      "type": "function",
      "signature": "0xa4983fde"
    }
  ],
  "bytecode": "0x608060405234801561001057600080fd5b50615f5180620000216000396000f3fe6080604052600436106101cd576000357c0100000000000000000000000000000000000000000000000000000000900463ffffffff1680630d0201ea146101d25780630e8ab506146103515780630f53a470146103a2578063124edd24146104d85780631dbcc0311461054957806320a38c5f146105ba5780632aebaf401461068e57806332584da91461078257806333b62877146107d3578063388aa39c1461083c5780633b2b0d34146108ad57806345ae8f1f146108fe57806347e4ab25146109c8578063571479c114610a5857806365e6968614610ae8578063679a6f7914610b8e57806367ddb86414610c135780636b061c2414610c645780636db682f714610cd55780637a17dab514610d4657806384320a3f14610dec5780638a6d8bfb14610e3d5780638fd6a91414610e8e578063946c699814610eff578063989bb9ff14610f50578063a4983fde14610ff6578063b582ec5f14611067578063b8e010de146110be578063cdb2b1f1146110d5578063d5808aa01461113f578063d88997f7146111e5578063e5f91f711461128b578063f9cdf62b146112f4578063f9d6aede1461139a578063fa271d80146113eb578063fb9e0ac914611470578063fd8b84b1146114e1575b600080fd5b3480156101de57600080fd5b5061034f600480360360608110156101f557600080fd5b810190808035906020019064010000000081111561021257600080fd5b82018360208201111561022457600080fd5b8035906020019184600183028401116401000000008311171561024657600080fd5b91908080601f016020809104026020016040519081016040528093929190818152602001838380828437600081840152601f19601f820116905080830192505050505050509192919290803590602001906401000000008111156102a957600080fd5b8201836020820111156102bb57600080fd5b803590602001918460018302840111640100000000831117156102dd57600080fd5b91908080601f016020809104026020016040519081016040528093929190818152602001838380828437600081840152601f19601f820116905080830192505050505050509192919290803573ffffffffffffffffffffffffffffffffffffffff1690602001909291905050506115a5565b005b34801561035d57600080fd5b506103a06004803603602081101561037457600080fd5b81019080803573ffffffffffffffffffffffffffffffffffffffff16906020019092919050505061165c565b005b3480156103ae57600080fd5b506103f1600480360360208110156103c557600080fd5b81019080803573ffffffffffffffffffffffffffffffffffffffff169060200190929190505050611949565b604051808060200180602001838103835285818151815260200191508051906020019080838360005b8381101561043557808201518184015260208101905061041a565b50505050905090810190601f1680156104625780820380516001836020036101000a031916815260200191505b50838103825284818151815260200191508051906020019080838360005b8381101561049b578082015181840152602081019050610480565b50505050905090810190601f1680156104c85780820380516001836020036101000a031916815260200191505b5094505050505060405180910390f35b3480156104e457600080fd5b50610547600480360360408110156104fb57600080fd5b81019080803573ffffffffffffffffffffffffffffffffffffffff169060200190929190803573ffffffffffffffffffffffffffffffffffffffff169060200190929190505050611b15565b005b34801561055557600080fd5b506105b86004803603604081101561056c57600080fd5b81019080803573ffffffffffffffffffffffffffffffffffffffff169060200190929190803573ffffffffffffffffffffffffffffffffffffffff169060200190929190505050611e03565b005b3480156105c657600080fd5b5061068c600480360360408110156105dd57600080fd5b810190808035151590602001909291908035906020019064010000000081111561060657600080fd5b82018360208201111561061857600080fd5b8035906020019184600183028401116401000000008311171561063a57600080fd5b91908080601f016020809104026020016040519081016040528093929190818152602001838380828437600081840152601f19601f82011690508083019250505050505050919291929050505061208c565b005b34801561069a57600080fd5b50610780600480360360608110156106b157600080fd5b81019080803573ffffffffffffffffffffffffffffffffffffffff169060200190929190803515159060200190929190803590602001906401000000008111156106fa57600080fd5b82018360208201111561070c57600080fd5b8035906020019184600183028401116401000000008311171561072e57600080fd5b91908080601f016020809104026020016040519081016040528093929190818152602001838380828437600081840152601f19601f820116905080830192505050505050509192919290505050612424565b005b34801561078e57600080fd5b506107d1600480360360208110156107a557600080fd5b81019080803573ffffffffffffffffffffffffffffffffffffffff1690602001909291905050506127bd565b005b3480156107df57600080fd5b50610822600480360360208110156107f657600080fd5b81019080803573ffffffffffffffffffffffffffffffffffffffff169060200190929190505050612a45565b604051808215151515815260200191505060405180910390f35b34801561084857600080fd5b506108ab6004803603604081101561085f57600080fd5b81019080803573ffffffffffffffffffffffffffffffffffffffff169060200190929190803573ffffffffffffffffffffffffffffffffffffffff169060200190929190505050612ab3565b005b3480156108b957600080fd5b506108fc600480360360208110156108d057600080fd5b81019080803573ffffffffffffffffffffffffffffffffffffffff169060200190929190505050612f7e565b005b34801561090a57600080fd5b5061094d6004803603602081101561092157600080fd5b81019080803573ffffffffffffffffffffffffffffffffffffffff1690602001909291905050506132f7565b6040518080602001828103825283818151815260200191508051906020019080838360005b8381101561098d578082015181840152602081019050610972565b50505050905090810190601f1680156109ba5780820380516001836020036101000a031916815260200191505b509250505060405180910390f35b3480156109d457600080fd5b50610a37600480360360408110156109eb57600080fd5b81019080803573ffffffffffffffffffffffffffffffffffffffff169060200190929190803573ffffffffffffffffffffffffffffffffffffffff169060200190929190505050613712565b60405180831515151581526020018281526020019250505060405180910390f35b348015610a6457600080fd5b50610a6d613837565b6040518080602001828103825283818151815260200191508051906020019080838360005b83811015610aad578082015181840152602081019050610a92565b50505050905090810190601f168015610ada5780820380516001836020036101000a031916815260200191505b509250505060405180910390f35b348015610af457600080fd5b50610b3760048036036020811015610b0b57600080fd5b81019080803573ffffffffffffffffffffffffffffffffffffffff16906020019092919050505061391b565b6040518080602001828103825283818151815260200191508051906020019060200280838360005b83811015610b7a578082015181840152602081019050610b5f565b505050509050019250505060405180910390f35b348015610b9a57600080fd5b50610bfd60048036036040811015610bb157600080fd5b81019080803573ffffffffffffffffffffffffffffffffffffffff169060200190929190803573ffffffffffffffffffffffffffffffffffffffff1690602001909291905050506139ea565b6040518082815260200191505060405180910390f35b348015610c1f57600080fd5b50610c6260048036036020811015610c3657600080fd5b81019080803573ffffffffffffffffffffffffffffffffffffffff169060200190929190505050613a76565b005b348015610c7057600080fd5b50610cd360048036036040811015610c8757600080fd5b81019080803573ffffffffffffffffffffffffffffffffffffffff169060200190929190803573ffffffffffffffffffffffffffffffffffffffff169060200190929190505050613c79565b005b348015610ce157600080fd5b50610d4460048036036040811015610cf857600080fd5b81019080803573ffffffffffffffffffffffffffffffffffffffff169060200190929190803573ffffffffffffffffffffffffffffffffffffffff169060200190929190505050613ff3565b005b348015610d5257600080fd5b50610d9560048036036020811015610d6957600080fd5b81019080803573ffffffffffffffffffffffffffffffffffffffff16906020019092919050505061417f565b6040518080602001828103825283818151815260200191508051906020019060200280838360005b83811015610dd8578082015181840152602081019050610dbd565b505050509050019250505060405180910390f35b348015610df857600080fd5b50610e3b60048036036020811015610e0f57600080fd5b81019080803573ffffffffffffffffffffffffffffffffffffffff16906020019092919050505061424e565b005b348015610e4957600080fd5b50610e8c60048036036020811015610e6057600080fd5b81019080803573ffffffffffffffffffffffffffffffffffffffff169060200190929190505050614451565b005b348015610e9a57600080fd5b50610efd60048036036040811015610eb157600080fd5b81019080803573ffffffffffffffffffffffffffffffffffffffff169060200190929190803573ffffffffffffffffffffffffffffffffffffffff169060200190929190505050614915565b005b348015610f0b57600080fd5b50610f4e60048036036020811015610f2257600080fd5b81019080803573ffffffffffffffffffffffffffffffffffffffff169060200190929190505050614c03565b005b348015610f5c57600080fd5b50610f9f60048036036020811015610f7357600080fd5b81019080803573ffffffffffffffffffffffffffffffffffffffff169060200190929190505050614e8b565b6040518080602001828103825283818151815260200191508051906020019060200280838360005b83811015610fe2578082015181840152602081019050610fc7565b505050509050019250505060405180910390f35b34801561100257600080fd5b506110656004803603604081101561101957600080fd5b81019080803573ffffffffffffffffffffffffffffffffffffffff169060200190929190803573ffffffffffffffffffffffffffffffffffffffff169060200190929190505050614f5d565b005b34801561107357600080fd5b5061107c6150e9565b604051808273ffffffffffffffffffffffffffffffffffffffff1673ffffffffffffffffffffffffffffffffffffffff16815260200191505060405180910390f35b3480156110ca57600080fd5b506110d361510f565b005b3480156110e157600080fd5b5061113d600480360360608110156110f857600080fd5b81019080803573ffffffffffffffffffffffffffffffffffffffff169060200190929190803515159060200190929190803560ff16906020019092919050505061519f565b005b34801561114b57600080fd5b5061118e6004803603602081101561116257600080fd5b81019080803573ffffffffffffffffffffffffffffffffffffffff16906020019092919050505061536b565b6040518080602001828103825283818151815260200191508051906020019060200280838360005b838110156111d15780820151818401526020810190506111b6565b505050509050019250505060405180910390f35b3480156111f157600080fd5b506112346004803603602081101561120857600080fd5b81019080803573ffffffffffffffffffffffffffffffffffffffff169060200190929190505050615438565b6040518080602001828103825283818151815260200191508051906020019060200280838360005b8381101561127757808201518184015260208101905061125c565b505050509050019250505060405180910390f35b34801561129757600080fd5b506112da600480360360208110156112ae57600080fd5b81019080803573ffffffffffffffffffffffffffffffffffffffff169060200190929190505050615507565b604051808215151515815260200191505060405180910390f35b34801561130057600080fd5b506113436004803603602081101561131757600080fd5b81019080803573ffffffffffffffffffffffffffffffffffffffff169060200190929190505050615652565b6040518080602001828103825283818151815260200191508051906020019060200280838360005b8381101561138657808201518184015260208101905061136b565b505050509050019250505060405180910390f35b3480156113a657600080fd5b506113e9600480360360208110156113bd57600080fd5b81019080803573ffffffffffffffffffffffffffffffffffffffff169060200190929190505050615721565b005b3480156113f757600080fd5b5061145a6004803603604081101561140e57600080fd5b81019080803573ffffffffffffffffffffffffffffffffffffffff169060200190929190803573ffffffffffffffffffffffffffffffffffffffff1690602001909291905050506159a9565b6040518082815260200191505060405180910390f35b34801561147c57600080fd5b506114df6004803603604081101561149357600080fd5b81019080803573ffffffffffffffffffffffffffffffffffffffff169060200190929190803573ffffffffffffffffffffffffffffffffffffffff169060200190929190505050615a35565b005b3480156114ed57600080fd5b506115306004803603602081101561150457600080fd5b81019080803573ffffffffffffffffffffffffffffffffffffffff169060200190929190505050615d23565b604051808373ffffffffffffffffffffffffffffffffffffffff1673ffffffffffffffffffffffffffffffffffffffff1681526020018273ffffffffffffffffffffffffffffffffffffffff1673ffffffffffffffffffffffffffffffffffffffff1681526020019250505060405180910390f35b826000808373ffffffffffffffffffffffffffffffffffffffff1673ffffffffffffffffffffffffffffffffffffffff16815260200190815260200160002060050160000190805190602001906115fd929190615df9565b50816000808373ffffffffffffffffffffffffffffffffffffffff1673ffffffffffffffffffffffffffffffffffffffff1681526020019081526020016000206005016001019080519060200190611656929190615df9565b50505050565b60016000803373ffffffffffffffffffffffffffffffffffffffff1673ffffffffffffffffffffffffffffffffffffffff168152602001908152602001600020600a0160008373ffffffffffffffffffffffffffffffffffffffff1673ffffffffffffffffffffffffffffffffffffffff16815260200190815260200160002060000160016101000a81548160ff0219169083151502179055506000803373ffffffffffffffffffffffffffffffffffffffff1673ffffffffffffffffffffffffffffffffffffffff168152602001908152602001600020600a0160008273ffffffffffffffffffffffffffffffffffffffff1673ffffffffffffffffffffffffffffffffffffffff16815260200190815260200160002060000160019054906101000a900460ff16801561181c57506000803373ffffffffffffffffffffffffffffffffffffffff1673ffffffffffffffffffffffffffffffffffffffff168152602001908152602001600020600a0160008273ffffffffffffffffffffffffffffffffffffffff1673ffffffffffffffffffffffffffffffffffffffff16815260200190815260200160002060000160009054906101000a900460ff165b15611946576000803373ffffffffffffffffffffffffffffffffffffffff1673ffffffffffffffffffffffffffffffffffffffff168152602001908152602001600020600a0160008273ffffffffffffffffffffffffffffffffffffffff1673ffffffffffffffffffffffffffffffffffffffff16815260200190815260200160002060000160029054906101000a900473ffffffffffffffffffffffffffffffffffffffff166000803373ffffffffffffffffffffffffffffffffffffffff1673ffffffffffffffffffffffffffffffffffffffff16815260200190815260200160002060000160010160006101000a81548173ffffffffffffffffffffffffffffffffffffffff021916908373ffffffffffffffffffffffffffffffffffffffff1602179055505b50565b6060806000808473ffffffffffffffffffffffffffffffffffffffff1673ffffffffffffffffffffffffffffffffffffffff1681526020019081526020016000206005016000016000808573ffffffffffffffffffffffffffffffffffffffff1673ffffffffffffffffffffffffffffffffffffffff168152602001908152602001600020600501600101818054600181600116156101000203166002900480601f016020809104026020016040519081016040528092919081815260200182805460018160011615610100020316600290048015611a695780601f10611a3e57610100808354040283529160200191611a69565b820191906000526020600020905b815481529060010190602001808311611a4c57829003601f168201915b50505050509150808054600181600116156101000203166002900480601f016020809104026020016040519081016040528092919081815260200182805460018160011615610100020316600290048015611b055780601f10611ada57610100808354040283529160200191611b05565b820191906000526020600020905b815481529060010190602001808311611ae857829003601f168201915b5050505050905091509150915091565b60016000808373ffffffffffffffffffffffffffffffffffffffff1673ffffffffffffffffffffffffffffffffffffffff168152602001908152602001600020600a0160008473ffffffffffffffffffffffffffffffffffffffff1673ffffffffffffffffffffffffffffffffffffffff16815260200190815260200160002060000160016101000a81548160ff0219169083151502179055506000808273ffffffffffffffffffffffffffffffffffffffff1673ffffffffffffffffffffffffffffffffffffffff168152602001908152602001600020600a0160008373ffffffffffffffffffffffffffffffffffffffff1673ffffffffffffffffffffffffffffffffffffffff16815260200190815260200160002060000160019054906101000a900460ff168015611cd557506000808273ffffffffffffffffffffffffffffffffffffffff1673ffffffffffffffffffffffffffffffffffffffff168152602001908152602001600020600a0160008373ffffffffffffffffffffffffffffffffffffffff1673ffffffffffffffffffffffffffffffffffffffff16815260200190815260200160002060000160009054906101000a900460ff165b15611dff576000808273ffffffffffffffffffffffffffffffffffffffff1673ffffffffffffffffffffffffffffffffffffffff168152602001908152602001600020600a0160008373ffffffffffffffffffffffffffffffffffffffff1673ffffffffffffffffffffffffffffffffffffffff16815260200190815260200160002060010160009054906101000a900473ffffffffffffffffffffffffffffffffffffffff166000808373ffffffffffffffffffffffffffffffffffffffff1673ffffffffffffffffffffffffffffffffffffffff16815260200190815260200160002060000160000160016101000a81548173ffffffffffffffffffffffffffffffffffffffff021916908373ffffffffffffffffffffffffffffffffffffffff1602179055505b5050565b60016000808473ffffffffffffffffffffffffffffffffffffffff1673ffffffffffffffffffffffffffffffffffffffff168152602001908152602001600020600a0160003373ffffffffffffffffffffffffffffffffffffffff1673ffffffffffffffffffffffffffffffffffffffff16815260200190815260200160002060000160006101000a81548160ff021916908315150217905550806000808473ffffffffffffffffffffffffffffffffffffffff1673ffffffffffffffffffffffffffffffffffffffff168152602001908152602001600020600a0160003373ffffffffffffffffffffffffffffffffffffffff1673ffffffffffffffffffffffffffffffffffffffff16815260200190815260200160002060000160026101000a81548173ffffffffffffffffffffffffffffffffffffffff021916908373ffffffffffffffffffffffffffffffffffffffff1602179055506000808373ffffffffffffffffffffffffffffffffffffffff1673ffffffffffffffffffffffffffffffffffffffff1681526020019081526020016000206009013390806001815401808255809150509060018203906000526020600020016000909192909190916101000a81548173ffffffffffffffffffffffffffffffffffffffff021916908373ffffffffffffffffffffffffffffffffffffffff16021790555050426000808473ffffffffffffffffffffffffffffffffffffffff1673ffffffffffffffffffffffffffffffffffffffff168152602001908152602001600020600a0160003373ffffffffffffffffffffffffffffffffffffffff1673ffffffffffffffffffffffffffffffffffffffff168152602001908152602001600020600201819055505050565b60016000803373ffffffffffffffffffffffffffffffffffffffff1673ffffffffffffffffffffffffffffffffffffffff16815260200190815260200160002060070160003373ffffffffffffffffffffffffffffffffffffffff1673ffffffffffffffffffffffffffffffffffffffff16815260200190815260200160002060000160000160006101000a81548160ff02191690831515021790555060008060003373ffffffffffffffffffffffffffffffffffffffff1673ffffffffffffffffffffffffffffffffffffffff16815260200190815260200160002060070160003373ffffffffffffffffffffffffffffffffffffffff1673ffffffffffffffffffffffffffffffffffffffff16815260200190815260200160002060000160000160016101000a81548160ff021916908315150217905550816000803373ffffffffffffffffffffffffffffffffffffffff1673ffffffffffffffffffffffffffffffffffffffff16815260200190815260200160002060070160003373ffffffffffffffffffffffffffffffffffffffff1673ffffffffffffffffffffffffffffffffffffffff16815260200190815260200160002060010160006101000a81548160ff021916908315150217905550806000803373ffffffffffffffffffffffffffffffffffffffff1673ffffffffffffffffffffffffffffffffffffffff16815260200190815260200160002060070160003373ffffffffffffffffffffffffffffffffffffffff1673ffffffffffffffffffffffffffffffffffffffff16815260200190815260200160002060020190805190602001906122f4929190615df9565b506000803373ffffffffffffffffffffffffffffffffffffffff1673ffffffffffffffffffffffffffffffffffffffff1681526020019081526020016000206008013390806001815401808255809150509060018203906000526020600020016000909192909190916101000a81548173ffffffffffffffffffffffffffffffffffffffff021916908373ffffffffffffffffffffffffffffffffffffffff16021790555050426000803373ffffffffffffffffffffffffffffffffffffffff1673ffffffffffffffffffffffffffffffffffffffff16815260200190815260200160002060070160003373ffffffffffffffffffffffffffffffffffffffff1673ffffffffffffffffffffffffffffffffffffffff168152602001908152602001600020600301819055505050565b60016000808573ffffffffffffffffffffffffffffffffffffffff1673ffffffffffffffffffffffffffffffffffffffff16815260200190815260200160002060070160008573ffffffffffffffffffffffffffffffffffffffff1673ffffffffffffffffffffffffffffffffffffffff16815260200190815260200160002060000160000160016101000a81548160ff02191690831515021790555060008060008573ffffffffffffffffffffffffffffffffffffffff1673ffffffffffffffffffffffffffffffffffffffff16815260200190815260200160002060070160008573ffffffffffffffffffffffffffffffffffffffff1673ffffffffffffffffffffffffffffffffffffffff16815260200190815260200160002060000160000160006101000a81548160ff021916908315150217905550816000808573ffffffffffffffffffffffffffffffffffffffff1673ffffffffffffffffffffffffffffffffffffffff16815260200190815260200160002060070160008573ffffffffffffffffffffffffffffffffffffffff1673ffffffffffffffffffffffffffffffffffffffff16815260200190815260200160002060010160006101000a81548160ff021916908315150217905550426000808573ffffffffffffffffffffffffffffffffffffffff1673ffffffffffffffffffffffffffffffffffffffff16815260200190815260200160002060070160008573ffffffffffffffffffffffffffffffffffffffff1673ffffffffffffffffffffffffffffffffffffffff16815260200190815260200160002060030181905550806000808573ffffffffffffffffffffffffffffffffffffffff1673ffffffffffffffffffffffffffffffffffffffff16815260200190815260200160002060070160008573ffffffffffffffffffffffffffffffffffffffff1673ffffffffffffffffffffffffffffffffffffffff1681526020019081526020016000206002019080519060200190612712929190615df9565b506000808473ffffffffffffffffffffffffffffffffffffffff1673ffffffffffffffffffffffffffffffffffffffff1681526020019081526020016000206008013390806001815401808255809150509060018203906000526020600020016000909192909190916101000a81548173ffffffffffffffffffffffffffffffffffffffff021916908373ffffffffffffffffffffffffffffffffffffffff16021790555050505050565b60016000803373ffffffffffffffffffffffffffffffffffffffff1673ffffffffffffffffffffffffffffffffffffffff168152602001908152602001600020600a0160003373ffffffffffffffffffffffffffffffffffffffff1673ffffffffffffffffffffffffffffffffffffffff16815260200190815260200160002060000160016101000a81548160ff021916908315150217905550806000803373ffffffffffffffffffffffffffffffffffffffff1673ffffffffffffffffffffffffffffffffffffffff168152602001908152602001600020600a0160003373ffffffffffffffffffffffffffffffffffffffff1673ffffffffffffffffffffffffffffffffffffffff16815260200190815260200160002060000160026101000a81548173ffffffffffffffffffffffffffffffffffffffff021916908373ffffffffffffffffffffffffffffffffffffffff1602179055506000803373ffffffffffffffffffffffffffffffffffffffff1673ffffffffffffffffffffffffffffffffffffffff1681526020019081526020016000206009013390806001815401808255809150509060018203906000526020600020016000909192909190916101000a81548173ffffffffffffffffffffffffffffffffffffffff021916908373ffffffffffffffffffffffffffffffffffffffff16021790555050426000803373ffffffffffffffffffffffffffffffffffffffff1673ffffffffffffffffffffffffffffffffffffffff168152602001908152602001600020600a0160003373ffffffffffffffffffffffffffffffffffffffff1673ffffffffffffffffffffffffffffffffffffffff1681526020019081526020016000206002018190555050565b600060011515600160008473ffffffffffffffffffffffffffffffffffffffff1673ffffffffffffffffffffffffffffffffffffffff16815260200190815260200160002060009054906101000a900460ff1615151415612aa95760019050612aae565b600090505b919050565b60016000808473ffffffffffffffffffffffffffffffffffffffff1673ffffffffffffffffffffffffffffffffffffffff168152602001908152602001600020600b0160008373ffffffffffffffffffffffffffffffffffffffff1673ffffffffffffffffffffffffffffffffffffffff16815260200190815260200160002060000160000160016101000a81548160ff021916908315150217905550600115156000808473ffffffffffffffffffffffffffffffffffffffff1673ffffffffffffffffffffffffffffffffffffffff168152602001908152602001600020600b0160008373ffffffffffffffffffffffffffffffffffffffff1673ffffffffffffffffffffffffffffffffffffffff16815260200190815260200160002060000160000160009054906101000a900460ff161515148015612c8a5750600115156000808473ffffffffffffffffffffffffffffffffffffffff1673ffffffffffffffffffffffffffffffffffffffff168152602001908152602001600020600b0160008373ffffffffffffffffffffffffffffffffffffffff1673ffffffffffffffffffffffffffffffffffffffff16815260200190815260200160002060000160000160019054906101000a900460ff161515145b15612f7a576000808373ffffffffffffffffffffffffffffffffffffffff1673ffffffffffffffffffffffffffffffffffffffff168152602001908152602001600020600b0160008273ffffffffffffffffffffffffffffffffffffffff1673ffffffffffffffffffffffffffffffffffffffff16815260200190815260200160002060020160009054906101000a900460ff166000808473ffffffffffffffffffffffffffffffffffffffff1673ffffffffffffffffffffffffffffffffffffffff16815260200190815260200160002060000160020160008373ffffffffffffffffffffffffffffffffffffffff1673ffffffffffffffffffffffffffffffffffffffff16815260200190815260200160002060000160006101000a81548160ff02191690831515021790555060008060008473ffffffffffffffffffffffffffffffffffffffff1673ffffffffffffffffffffffffffffffffffffffff16815260200190815260200160002060000160020160008373ffffffffffffffffffffffffffffffffffffffff1673ffffffffffffffffffffffffffffffffffffffff168152602001908152602001600020600101549050603c810242016000808573ffffffffffffffffffffffffffffffffffffffff1673ffffffffffffffffffffffffffffffffffffffff16815260200190815260200160002060000160020160008473ffffffffffffffffffffffffffffffffffffffff1673ffffffffffffffffffffffffffffffffffffffff168152602001908152602001600020600201819055506000808473ffffffffffffffffffffffffffffffffffffffff1673ffffffffffffffffffffffffffffffffffffffff1681526020019081526020016000206000016003018290806001815401808255809150509060018203906000526020600020016000909192909190916101000a81548173ffffffffffffffffffffffffffffffffffffffff021916908373ffffffffffffffffffffffffffffffffffffffff16021790555050505b5050565b60016000803373ffffffffffffffffffffffffffffffffffffffff1673ffffffffffffffffffffffffffffffffffffffff16815260200190815260200160002060070160008373ffffffffffffffffffffffffffffffffffffffff1673ffffffffffffffffffffffffffffffffffffffff16815260200190815260200160002060000160000160006101000a81548160ff0219169083151502179055506000803373ffffffffffffffffffffffffffffffffffffffff1673ffffffffffffffffffffffffffffffffffffffff16815260200190815260200160002060070160008273ffffffffffffffffffffffffffffffffffffffff1673ffffffffffffffffffffffffffffffffffffffff16815260200190815260200160002060000160000160009054906101000a900460ff16801561314757506000803373ffffffffffffffffffffffffffffffffffffffff1673ffffffffffffffffffffffffffffffffffffffff16815260200190815260200160002060070160008273ffffffffffffffffffffffffffffffffffffffff1673ffffffffffffffffffffffffffffffffffffffff16815260200190815260200160002060000160000160019054906101000a900460ff165b156132f4576000803373ffffffffffffffffffffffffffffffffffffffff1673ffffffffffffffffffffffffffffffffffffffff16815260200190815260200160002060070160008273ffffffffffffffffffffffffffffffffffffffff1673ffffffffffffffffffffffffffffffffffffffff1681526020019081526020016000206002016000803373ffffffffffffffffffffffffffffffffffffffff1673ffffffffffffffffffffffffffffffffffffffff1681526020019081526020016000206004016000019080546001816001161561010002031660029004613230929190615e79565b506000803373ffffffffffffffffffffffffffffffffffffffff1673ffffffffffffffffffffffffffffffffffffffff16815260200190815260200160002060080160016000803373ffffffffffffffffffffffffffffffffffffffff1673ffffffffffffffffffffffffffffffffffffffff16815260200190815260200160002060080180549050038154811015156132c657fe5b9060005260206000200160006101000a81549073ffffffffffffffffffffffffffffffffffffffff02191690555b50565b6060806000808473ffffffffffffffffffffffffffffffffffffffff1673ffffffffffffffffffffffffffffffffffffffff1681526020019081526020016000206000016003018054806020026020016040519081016040528092919081815260200182805480156133be57602002820191906000526020600020905b8160009054906101000a900473ffffffffffffffffffffffffffffffffffffffff1673ffffffffffffffffffffffffffffffffffffffff1681526020019060010190808311613374575b50505050509050600080905060008090505b82518110156134365782818151811015156133e757fe5b9060200190602002015173ffffffffffffffffffffffffffffffffffffffff163373ffffffffffffffffffffffffffffffffffffffff16141561342957600191505b80806001019150506133d0565b506001151581151514156136d257600115156000808673ffffffffffffffffffffffffffffffffffffffff1673ffffffffffffffffffffffffffffffffffffffff16815260200190815260200160002060000160020160003373ffffffffffffffffffffffffffffffffffffffff1673ffffffffffffffffffffffffffffffffffffffff16815260200190815260200160002060000160009054906101000a900460ff161515141561369357426000808673ffffffffffffffffffffffffffffffffffffffff1673ffffffffffffffffffffffffffffffffffffffff16815260200190815260200160002060000160020160003373ffffffffffffffffffffffffffffffffffffffff1673ffffffffffffffffffffffffffffffffffffffff168152602001908152602001600020600101541015613654576000808573ffffffffffffffffffffffffffffffffffffffff1673ffffffffffffffffffffffffffffffffffffffff1681526020019081526020016000206004016000018054600181600116156101000203166002900480601f0160208091040260200160405190810160405280929190818152602001828054600181600116156101000203166002900480156136465780601f1061361b57610100808354040283529160200191613646565b820191906000526020600020905b81548152906001019060200180831161362957829003601f168201915b50505050509250505061370d565b6040805190810160405280600c81526020017f44617465204578706972656400000000000000000000000000000000000000008152509250505061370d565b6040805190810160405280600581526020017f6572726f720000000000000000000000000000000000000000000000000000008152509250505061370d565b6040805190810160405280600181526020017f6100000000000000000000000000000000000000000000000000000000000000815250925050505b919050565b6000806000808573ffffffffffffffffffffffffffffffffffffffff1673ffffffffffffffffffffffffffffffffffffffff16815260200190815260200160002060000160020160008473ffffffffffffffffffffffffffffffffffffffff1673ffffffffffffffffffffffffffffffffffffffff16815260200190815260200160002060000160009054906101000a900460ff166000808673ffffffffffffffffffffffffffffffffffffffff1673ffffffffffffffffffffffffffffffffffffffff16815260200190815260200160002060000160020160008573ffffffffffffffffffffffffffffffffffffffff1673ffffffffffffffffffffffffffffffffffffffff16815260200190815260200160002060020154915091509250929050565b60606000803373ffffffffffffffffffffffffffffffffffffffff1673ffffffffffffffffffffffffffffffffffffffff1681526020019081526020016000206004016000018054600181600116156101000203166002900480601f0160208091040260200160405190810160405280929190818152602001828054600181600116156101000203166002900480156139115780601f106138e657610100808354040283529160200191613911565b820191906000526020600020905b8154815290600101906020018083116138f457829003601f168201915b5050505050905090565b60606000808373ffffffffffffffffffffffffffffffffffffffff1673ffffffffffffffffffffffffffffffffffffffff1681526020019081526020016000206008018054806020026020016040519081016040528092919081815260200182805480156139de57602002820191906000526020600020905b8160009054906101000a900473ffffffffffffffffffffffffffffffffffffffff1673ffffffffffffffffffffffffffffffffffffffff1681526020019060010190808311613994575b50505050509050919050565b60008060008473ffffffffffffffffffffffffffffffffffffffff1673ffffffffffffffffffffffffffffffffffffffff16815260200190815260200160002060070160008373ffffffffffffffffffffffffffffffffffffffff1673ffffffffffffffffffffffffffffffffffffffff16815260200190815260200160002060030154905092915050565b806000803373ffffffffffffffffffffffffffffffffffffffff1673ffffffffffffffffffffffffffffffffffffffff16815260200190815260200160002060000160010160006101000a81548173ffffffffffffffffffffffffffffffffffffffff021916908373ffffffffffffffffffffffffffffffffffffffff160217905550336000803373ffffffffffffffffffffffffffffffffffffffff1673ffffffffffffffffffffffffffffffffffffffff16815260200190815260200160002060000160000160016101000a81548173ffffffffffffffffffffffffffffffffffffffff021916908373ffffffffffffffffffffffffffffffffffffffff16021790555060018060003373ffffffffffffffffffffffffffffffffffffffff1673ffffffffffffffffffffffffffffffffffffffff16815260200190815260200160002060006101000a81548160ff021916908315150217905550600260008273ffffffffffffffffffffffffffffffffffffffff1673ffffffffffffffffffffffffffffffffffffffff1681526020019081526020016000203390806001815401808255809150509060018203906000526020600020016000909192909190916101000a81548173ffffffffffffffffffffffffffffffffffffffff021916908373ffffffffffffffffffffffffffffffffffffffff1602179055505050565b60016000808373ffffffffffffffffffffffffffffffffffffffff1673ffffffffffffffffffffffffffffffffffffffff16815260200190815260200160002060070160008473ffffffffffffffffffffffffffffffffffffffff1673ffffffffffffffffffffffffffffffffffffffff16815260200190815260200160002060000160000160016101000a81548160ff0219169083151502179055506000808273ffffffffffffffffffffffffffffffffffffffff1673ffffffffffffffffffffffffffffffffffffffff16815260200190815260200160002060070160008373ffffffffffffffffffffffffffffffffffffffff1673ffffffffffffffffffffffffffffffffffffffff16815260200190815260200160002060000160000160009054906101000a900460ff168015613e4257506000808273ffffffffffffffffffffffffffffffffffffffff1673ffffffffffffffffffffffffffffffffffffffff16815260200190815260200160002060070160008373ffffffffffffffffffffffffffffffffffffffff1673ffffffffffffffffffffffffffffffffffffffff16815260200190815260200160002060000160000160019054906101000a900460ff165b15613fef576000808273ffffffffffffffffffffffffffffffffffffffff1673ffffffffffffffffffffffffffffffffffffffff16815260200190815260200160002060070160008373ffffffffffffffffffffffffffffffffffffffff1673ffffffffffffffffffffffffffffffffffffffff1681526020019081526020016000206002016000808373ffffffffffffffffffffffffffffffffffffffff1673ffffffffffffffffffffffffffffffffffffffff1681526020019081526020016000206004016000019080546001816001161561010002031660029004613f2b929190615e79565b506000808373ffffffffffffffffffffffffffffffffffffffff1673ffffffffffffffffffffffffffffffffffffffff16815260200190815260200160002060080160016000808573ffffffffffffffffffffffffffffffffffffffff1673ffffffffffffffffffffffffffffffffffffffff1681526020019081526020016000206008018054905003815481101515613fc157fe5b9060005260206000200160006101000a81549073ffffffffffffffffffffffffffffffffffffffff02191690555b5050565b60008090505b6000808473ffffffffffffffffffffffffffffffffffffffff1673ffffffffffffffffffffffffffffffffffffffff1681526020019081526020016000206009018054905081101561417a576000808473ffffffffffffffffffffffffffffffffffffffff1673ffffffffffffffffffffffffffffffffffffffff1681526020019081526020016000206009018181548110151561409357fe5b9060005260206000200160009054906101000a900473ffffffffffffffffffffffffffffffffffffffff1673ffffffffffffffffffffffffffffffffffffffff168273ffffffffffffffffffffffffffffffffffffffff16141561416d576000808473ffffffffffffffffffffffffffffffffffffffff1673ffffffffffffffffffffffffffffffffffffffff1681526020019081526020016000206009018181548110151561413f57fe5b9060005260206000200160006101000a81549073ffffffffffffffffffffffffffffffffffffffff02191690555b8080600101915050613ff9565b505050565b60606000808373ffffffffffffffffffffffffffffffffffffffff1673ffffffffffffffffffffffffffffffffffffffff16815260200190815260200160002060090180548060200260200160405190810160405280929190818152602001828054801561424257602002820191906000526020600020905b8160009054906101000a900473ffffffffffffffffffffffffffffffffffffffff1673ffffffffffffffffffffffffffffffffffffffff16815260200190600101908083116141f8575b50505050509050919050565b806000803373ffffffffffffffffffffffffffffffffffffffff1673ffffffffffffffffffffffffffffffffffffffff16815260200190815260200160002060000160000160016101000a81548173ffffffffffffffffffffffffffffffffffffffff021916908373ffffffffffffffffffffffffffffffffffffffff160217905550336000803373ffffffffffffffffffffffffffffffffffffffff1673ffffffffffffffffffffffffffffffffffffffff16815260200190815260200160002060000160010160006101000a81548173ffffffffffffffffffffffffffffffffffffffff021916908373ffffffffffffffffffffffffffffffffffffffff16021790555060018060003373ffffffffffffffffffffffffffffffffffffffff1673ffffffffffffffffffffffffffffffffffffffff16815260200190815260200160002060006101000a81548160ff021916908315150217905550600260003373ffffffffffffffffffffffffffffffffffffffff1673ffffffffffffffffffffffffffffffffffffffff1681526020019081526020016000208190806001815401808255809150509060018203906000526020600020016000909192909190916101000a81548173ffffffffffffffffffffffffffffffffffffffff021916908373ffffffffffffffffffffffffffffffffffffffff1602179055505050565b60016000803373ffffffffffffffffffffffffffffffffffffffff1673ffffffffffffffffffffffffffffffffffffffff168152602001908152602001600020600b0160008373ffffffffffffffffffffffffffffffffffffffff1673ffffffffffffffffffffffffffffffffffffffff16815260200190815260200160002060000160000160006101000a81548160ff021916908315150217905550600115156000803373ffffffffffffffffffffffffffffffffffffffff1673ffffffffffffffffffffffffffffffffffffffff168152602001908152602001600020600b0160008373ffffffffffffffffffffffffffffffffffffffff1673ffffffffffffffffffffffffffffffffffffffff16815260200190815260200160002060000160000160009054906101000a900460ff1615151480156146285750600115156000803373ffffffffffffffffffffffffffffffffffffffff1673ffffffffffffffffffffffffffffffffffffffff168152602001908152602001600020600b0160008373ffffffffffffffffffffffffffffffffffffffff1673ffffffffffffffffffffffffffffffffffffffff16815260200190815260200160002060000160000160019054906101000a900460ff161515145b15614912576000803373ffffffffffffffffffffffffffffffffffffffff1673ffffffffffffffffffffffffffffffffffffffff168152602001908152602001600020600b0160008273ffffffffffffffffffffffffffffffffffffffff1673ffffffffffffffffffffffffffffffffffffffff16815260200190815260200160002060020160009054906101000a900460ff166000803373ffffffffffffffffffffffffffffffffffffffff1673ffffffffffffffffffffffffffffffffffffffff16815260200190815260200160002060000160020160003373ffffffffffffffffffffffffffffffffffffffff1673ffffffffffffffffffffffffffffffffffffffff16815260200190815260200160002060000160006101000a81548160ff021916908315150217905550603c6000803373ffffffffffffffffffffffffffffffffffffffff1673ffffffffffffffffffffffffffffffffffffffff16815260200190815260200160002060000160020160003373ffffffffffffffffffffffffffffffffffffffff1673ffffffffffffffffffffffffffffffffffffffff168152602001908152602001600020600101540242016000803373ffffffffffffffffffffffffffffffffffffffff1673ffffffffffffffffffffffffffffffffffffffff16815260200190815260200160002060000160020160003373ffffffffffffffffffffffffffffffffffffffff1673ffffffffffffffffffffffffffffffffffffffff168152602001908152602001600020600201819055506000803373ffffffffffffffffffffffffffffffffffffffff1673ffffffffffffffffffffffffffffffffffffffff1681526020019081526020016000206000016003018190806001815401808255809150509060018203906000526020600020016000909192909190916101000a81548173ffffffffffffffffffffffffffffffffffffffff021916908373ffffffffffffffffffffffffffffffffffffffff160217905550505b50565b60016000808373ffffffffffffffffffffffffffffffffffffffff1673ffffffffffffffffffffffffffffffffffffffff168152602001908152602001600020600a0160008473ffffffffffffffffffffffffffffffffffffffff1673ffffffffffffffffffffffffffffffffffffffff16815260200190815260200160002060000160006101000a81548160ff0219169083151502179055506000808273ffffffffffffffffffffffffffffffffffffffff1673ffffffffffffffffffffffffffffffffffffffff168152602001908152602001600020600a0160008373ffffffffffffffffffffffffffffffffffffffff1673ffffffffffffffffffffffffffffffffffffffff16815260200190815260200160002060000160019054906101000a900460ff168015614ad557506000808273ffffffffffffffffffffffffffffffffffffffff1673ffffffffffffffffffffffffffffffffffffffff168152602001908152602001600020600a0160008373ffffffffffffffffffffffffffffffffffffffff1673ffffffffffffffffffffffffffffffffffffffff16815260200190815260200160002060000160009054906101000a900460ff165b15614bff576000808273ffffffffffffffffffffffffffffffffffffffff1673ffffffffffffffffffffffffffffffffffffffff168152602001908152602001600020600a0160008373ffffffffffffffffffffffffffffffffffffffff1673ffffffffffffffffffffffffffffffffffffffff16815260200190815260200160002060010160009054906101000a900473ffffffffffffffffffffffffffffffffffffffff166000808373ffffffffffffffffffffffffffffffffffffffff1673ffffffffffffffffffffffffffffffffffffffff16815260200190815260200160002060000160000160016101000a81548173ffffffffffffffffffffffffffffffffffffffff021916908373ffffffffffffffffffffffffffffffffffffffff1602179055505b5050565b60016000803373ffffffffffffffffffffffffffffffffffffffff1673ffffffffffffffffffffffffffffffffffffffff168152602001908152602001600020600a0160003373ffffffffffffffffffffffffffffffffffffffff1673ffffffffffffffffffffffffffffffffffffffff16815260200190815260200160002060000160016101000a81548160ff021916908315150217905550806000803373ffffffffffffffffffffffffffffffffffffffff1673ffffffffffffffffffffffffffffffffffffffff168152602001908152602001600020600a0160003373ffffffffffffffffffffffffffffffffffffffff1673ffffffffffffffffffffffffffffffffffffffff16815260200190815260200160002060010160006101000a81548173ffffffffffffffffffffffffffffffffffffffff021916908373ffffffffffffffffffffffffffffffffffffffff1602179055506000803373ffffffffffffffffffffffffffffffffffffffff1673ffffffffffffffffffffffffffffffffffffffff1681526020019081526020016000206009013390806001815401808255809150509060018203906000526020600020016000909192909190916101000a81548173ffffffffffffffffffffffffffffffffffffffff021916908373ffffffffffffffffffffffffffffffffffffffff16021790555050426000803373ffffffffffffffffffffffffffffffffffffffff1673ffffffffffffffffffffffffffffffffffffffff168152602001908152602001600020600a0160003373ffffffffffffffffffffffffffffffffffffffff1673ffffffffffffffffffffffffffffffffffffffff1681526020019081526020016000206002018190555050565b60606000808373ffffffffffffffffffffffffffffffffffffffff1673ffffffffffffffffffffffffffffffffffffffff168152602001908152602001600020600001600301805480602002602001604051908101604052809291908181526020018280548015614f5157602002820191906000526020600020905b8160009054906101000a900473ffffffffffffffffffffffffffffffffffffffff1673ffffffffffffffffffffffffffffffffffffffff1681526020019060010190808311614f07575b50505050509050919050565b60008090505b6000808473ffffffffffffffffffffffffffffffffffffffff1673ffffffffffffffffffffffffffffffffffffffff168152602001908152602001600020600801805490508110156150e4576000808473ffffffffffffffffffffffffffffffffffffffff1673ffffffffffffffffffffffffffffffffffffffff16815260200190815260200160002060080181815481101515614ffd57fe5b9060005260206000200160009054906101000a900473ffffffffffffffffffffffffffffffffffffffff1673ffffffffffffffffffffffffffffffffffffffff168273ffffffffffffffffffffffffffffffffffffffff1614156150d7576000808473ffffffffffffffffffffffffffffffffffffffff1673ffffffffffffffffffffffffffffffffffffffff168152602001908152602001600020600801818154811015156150a957fe5b9060005260206000200160006101000a81549073ffffffffffffffffffffffffffffffffffffffff02191690555b8080600101915050614f63565b505050565b600360009054906101000a900473ffffffffffffffffffffffffffffffffffffffff1681565b6040805190810160405280600981526020017f48484848484841414800000000000000000000000000000000000000000000008152506000803373ffffffffffffffffffffffffffffffffffffffff1673ffffffffffffffffffffffffffffffffffffffff168152602001908152602001600020600401600001908051906020019061519c929190615df9565b50565b816000808573ffffffffffffffffffffffffffffffffffffffff1673ffffffffffffffffffffffffffffffffffffffff168152602001908152602001600020600b0160003373ffffffffffffffffffffffffffffffffffffffff1673ffffffffffffffffffffffffffffffffffffffff16815260200190815260200160002060020160006101000a81548160ff0219169083151502179055508060ff166000808573ffffffffffffffffffffffffffffffffffffffff1673ffffffffffffffffffffffffffffffffffffffff168152602001908152602001600020600b0160003373ffffffffffffffffffffffffffffffffffffffff1673ffffffffffffffffffffffffffffffffffffffff168152602001908152602001600020600101819055506000808473ffffffffffffffffffffffffffffffffffffffff1673ffffffffffffffffffffffffffffffffffffffff168152602001908152602001600020600c013390806001815401808255809150509060018203906000526020600020016000909192909190916101000a81548173ffffffffffffffffffffffffffffffffffffffff021916908373ffffffffffffffffffffffffffffffffffffffff16021790555050505050565b6060600260008373ffffffffffffffffffffffffffffffffffffffff1673ffffffffffffffffffffffffffffffffffffffff16815260200190815260200160002080548060200260200160405190810160405280929190818152602001828054801561542c57602002820191906000526020600020905b8160009054906101000a900473ffffffffffffffffffffffffffffffffffffffff1673ffffffffffffffffffffffffffffffffffffffff16815260200190600101908083116153e2575b50505050509050919050565b60606000808373ffffffffffffffffffffffffffffffffffffffff1673ffffffffffffffffffffffffffffffffffffffff1681526020019081526020016000206008018054806020026020016040519081016040528092919081815260200182805480156154fb57602002820191906000526020600020905b8160009054906101000a900473ffffffffffffffffffffffffffffffffffffffff1673ffffffffffffffffffffffffffffffffffffffff16815260200190600101908083116154b1575b50505050509050919050565b600060606000808473ffffffffffffffffffffffffffffffffffffffff1673ffffffffffffffffffffffffffffffffffffffff1681526020019081526020016000206000016003018054806020026020016040519081016040528092919081815260200182805480156155cf57602002820191906000526020600020905b8160009054906101000a900473ffffffffffffffffffffffffffffffffffffffff1673ffffffffffffffffffffffffffffffffffffffff1681526020019060010190808311615585575b50505050509050600080905060008090505b82518110156156475782818151811015156155f857fe5b9060200190602002015173ffffffffffffffffffffffffffffffffffffffff163373ffffffffffffffffffffffffffffffffffffffff16141561563a57600191505b80806001019150506155e1565b508092505050919050565b60606000808373ffffffffffffffffffffffffffffffffffffffff1673ffffffffffffffffffffffffffffffffffffffff168152602001908152602001600020600c0180548060200260200160405190810160405280929190818152602001828054801561571557602002820191906000526020600020905b8160009054906101000a900473ffffffffffffffffffffffffffffffffffffffff1673ffffffffffffffffffffffffffffffffffffffff16815260200190600101908083116156cb575b50505050509050919050565b60016000803373ffffffffffffffffffffffffffffffffffffffff1673ffffffffffffffffffffffffffffffffffffffff168152602001908152602001600020600a0160003373ffffffffffffffffffffffffffffffffffffffff1673ffffffffffffffffffffffffffffffffffffffff16815260200190815260200160002060000160006101000a81548160ff021916908315150217905550806000803373ffffffffffffffffffffffffffffffffffffffff1673ffffffffffffffffffffffffffffffffffffffff168152602001908152602001600020600a0160003373ffffffffffffffffffffffffffffffffffffffff1673ffffffffffffffffffffffffffffffffffffffff16815260200190815260200160002060010160006101000a81548173ffffffffffffffffffffffffffffffffffffffff021916908373ffffffffffffffffffffffffffffffffffffffff1602179055506000803373ffffffffffffffffffffffffffffffffffffffff1673ffffffffffffffffffffffffffffffffffffffff1681526020019081526020016000206009013390806001815401808255809150509060018203906000526020600020016000909192909190916101000a81548173ffffffffffffffffffffffffffffffffffffffff021916908373ffffffffffffffffffffffffffffffffffffffff16021790555050426000803373ffffffffffffffffffffffffffffffffffffffff1673ffffffffffffffffffffffffffffffffffffffff168152602001908152602001600020600a0160003373ffffffffffffffffffffffffffffffffffffffff1673ffffffffffffffffffffffffffffffffffffffff1681526020019081526020016000206002018190555050565b60008060008473ffffffffffffffffffffffffffffffffffffffff1673ffffffffffffffffffffffffffffffffffffffff168152602001908152602001600020600a0160008373ffffffffffffffffffffffffffffffffffffffff1673ffffffffffffffffffffffffffffffffffffffff16815260200190815260200160002060020154905092915050565b60016000808373ffffffffffffffffffffffffffffffffffffffff1673ffffffffffffffffffffffffffffffffffffffff168152602001908152602001600020600a0160008473ffffffffffffffffffffffffffffffffffffffff1673ffffffffffffffffffffffffffffffffffffffff16815260200190815260200160002060000160006101000a81548160ff0219169083151502179055506000808273ffffffffffffffffffffffffffffffffffffffff1673ffffffffffffffffffffffffffffffffffffffff168152602001908152602001600020600a0160008373ffffffffffffffffffffffffffffffffffffffff1673ffffffffffffffffffffffffffffffffffffffff16815260200190815260200160002060000160019054906101000a900460ff168015615bf557506000808273ffffffffffffffffffffffffffffffffffffffff1673ffffffffffffffffffffffffffffffffffffffff168152602001908152602001600020600a0160008373ffffffffffffffffffffffffffffffffffffffff1673ffffffffffffffffffffffffffffffffffffffff16815260200190815260200160002060000160009054906101000a900460ff165b15615d1f576000808273ffffffffffffffffffffffffffffffffffffffff1673ffffffffffffffffffffffffffffffffffffffff168152602001908152602001600020600a0160008373ffffffffffffffffffffffffffffffffffffffff1673ffffffffffffffffffffffffffffffffffffffff16815260200190815260200160002060000160029054906101000a900473ffffffffffffffffffffffffffffffffffffffff166000808373ffffffffffffffffffffffffffffffffffffffff1673ffffffffffffffffffffffffffffffffffffffff16815260200190815260200160002060000160010160006101000a81548173ffffffffffffffffffffffffffffffffffffffff021916908373ffffffffffffffffffffffffffffffffffffffff1602179055505b5050565b6000806000808473ffffffffffffffffffffffffffffffffffffffff1673ffffffffffffffffffffffffffffffffffffffff16815260200190815260200160002060000160000160019054906101000a900473ffffffffffffffffffffffffffffffffffffffff166000808573ffffffffffffffffffffffffffffffffffffffff1673ffffffffffffffffffffffffffffffffffffffff16815260200190815260200160002060000160010160009054906101000a900473ffffffffffffffffffffffffffffffffffffffff1691509150915091565b828054600181600116156101000203166002900490600052602060002090601f016020900481019282601f10615e3a57805160ff1916838001178555615e68565b82800160010185558215615e68579182015b82811115615e67578251825591602001919060010190615e4c565b5b509050615e759190615f00565b5090565b828054600181600116156101000203166002900490600052602060002090601f016020900481019282601f10615eb25780548555615eef565b82800160010185558215615eef57600052602060002091601f016020900482015b82811115615eee578254825591600101919060010190615ed3565b5b509050615efc9190615f00565b5090565b615f2291905b80821115615f1e576000816000905550600101615f06565b5090565b9056fea165627a7a723058205203555f8884760e2832c30a5db14faa9c3c550f5f3d1facbc496cb2851920450029",
  "source": "pragma solidity 0.5.0;\ncontract SimpleStorage {\n\nstruct Documents  {\n string  aadhar;\n\n    \n    \n}\n\nstruct PersonalInfo {\nstring name;\nstring propic;\n    \n}\n\nstruct Owners{\nuint8 max;\naddress stud;\naddress inst;\n\nmapping(address=>PartialOwner) partialowner;\naddress[] listofpartialowner;\n\n\n}\n\nstruct Request {\n    \nbool stud;\nbool inst;\nbool aadhar;\n\n\n} \n\nstruct ApprovalRequest{\n bool stud;\n bool inst;\n \n \n}\n\nstruct ChangeOwnerShip{\n bool stud;\n bool inst;\n address studa;\n address insta;\n \n \n ApprovalRequest approve;\n\n}\n\n\n\n\nstruct ChangeOwnerShipInst{\n    \nbool inst ;\nbool stud;\naddress neinst;\naddress nestud;\n\nuint timestamp;\n\n    \n    \n}\n\n\n\n\n\n\nstruct Upload {\n\n ApprovalRequest approve;\n bool aadhar;\n string aadharhash;\n uint timestamp;\n}\n\n\n\n\nstruct PartialOwner{\n    \nbool aadhar;\nuint day;\nuint expiry;\n\n\n    \n}\n\n\nstruct PartialOwnerRequest\n{\nApprovalRequest approve;\nuint256 day;\nbool aadhar;\n\n\n}\n\n\n\nstruct MultiSig {\n    \n    \nOwners owners;\nDocuments doc;\nPersonalInfo profile;\n\n\n//Upload\n\n\nmapping(address=>Upload) uploadreq;\naddress[] listofuploadreq;\n\n\n\n//ChangeOwnerShip\n\n\n\n\naddress[] listofchangeowneri;\n\n\n\nmapping(address=>ChangeOwnerShipInst) changeowneri;\n\n\n\nmapping(address=>PartialOwnerRequest) partialowner;\n\naddress[] listofpartialowner;\n\n\n\n\n\n\n    \n}\n\n\n\n\n\n\n\n\n\n\n\n/////////////////////////////////////////////////////////////////////////////////\nmapping(address=>MultiSig) wallets;\nmapping(address=>bool) listofwall;\nmapping (address=>address[] )  iminwall;\n\n\naddress public j;\n\n\nfunction createNewMultiSigUser(address a) public {\nwallets[msg.sender].owners.inst=a;\nwallets[msg.sender].owners.stud=msg.sender;\nlistofwall[msg.sender]=true;\n\niminwall[a].push(msg.sender);\n\n\n\n\n\n}\n\n\nconstructor ()public {\n    \n}\n\nfunction createNewMultiSigInst(address a) public {\nwallets[msg.sender].owners.stud=a;\nwallets[msg.sender].owners.inst=msg.sender;\nlistofwall[msg.sender]=true;\niminwall[msg.sender].push(a);\n\n    \n}\n\nfunction doesWalletExists(address a)public view returns (bool){\nif(listofwall[a]==true) \nreturn true;\nelse return false;\n}\n\n\nfunction createUploadRequestbyUser(bool ad,string memory hash)public{\nwallets[msg.sender].uploadreq[msg.sender].approve.stud=true;\nwallets[msg.sender].uploadreq[msg.sender].approve.inst=false;\nwallets[msg.sender].uploadreq[msg.sender].aadhar=ad;\nwallets[msg.sender].uploadreq[msg.sender].aadharhash=hash;\nwallets[msg.sender].listofuploadreq.push(msg.sender);\nwallets[msg.sender].uploadreq[msg.sender].timestamp=now;\n\n\n    \n}\n\n\nfunction createUploadRequestbyInstitute(address a,bool ad,string memory hash)public{\nwallets[a].uploadreq[a].approve.inst=true;\nwallets[a].uploadreq[a].approve.stud=false;\nwallets[a].uploadreq[a].aadhar=ad;\nwallets[a].uploadreq[a].timestamp=now;\nwallets[a].uploadreq[a].aadharhash=hash;\nwallets[a].listofuploadreq.push(msg.sender);\n\n\n}\n\nfunction getUploadReqList(address ad)public view returns (address[] memory){\nreturn wallets[ad].listofuploadreq;\n\n}\n\n\nfunction approveUploadbyUser(address ad) public{\n \nwallets[msg.sender].uploadreq[ad].approve.stud=true;\nif(wallets[msg.sender].uploadreq[ad].approve.stud&&wallets[msg.sender].uploadreq[ad].approve.inst)\n{\nwallets[msg.sender].doc.aadhar=wallets[msg.sender].uploadreq[ad].aadharhash;\ndelete wallets[msg.sender].listofuploadreq[wallets[msg.sender].listofuploadreq.length-1];\n\n}\n}\n\n\nfunction approveUploadbyInstitute(address ad ,address student)public{\n    \nwallets[student].uploadreq[ad].approve.inst=true;\nif(wallets[student].uploadreq[ad].approve.stud&&wallets[student].uploadreq[ad].approve.inst)\n{\nwallets[student].doc.aadhar=wallets[student].uploadreq[ad].aadharhash;\n\ndelete wallets[ad].listofuploadreq[wallets[ad].listofuploadreq.length-1];\n\n}\n\n\n}\n\n\nfunction getAadhar ()public view returns(string memory ){\nreturn wallets[msg.sender].doc.aadhar;\n\n    \n}\n\n\nfunction getOwners(address a)public view returns(address ,address){\n     return (wallets[a].owners.stud,wallets[a].owners.inst);\n\n}\n\nfunction getInstitutesWallet(address ad) public view returns(address[] memory){\n   \n     return iminwall[ad];\n   \n}\n\nfunction getInstitutesUploadList(address ad) public view returns(address[] memory){\nreturn wallets[ad].listofuploadreq;\n}\n\n\n\n\n function changeOwnerInstfromInst(address stud,address Inst)  public {\n     \nwallets[stud].changeowneri[msg.sender].inst=true;\nwallets[stud].changeowneri[msg.sender].neinst=Inst;\nwallets[stud].listofchangeowneri.push(msg.sender);\nwallets[stud].changeowneri[msg.sender].timestamp=now;\n\n\n }\n \n \n \n function changeOwnerInstfromStud(address Inst)  public {\n     \nwallets[msg.sender].changeowneri[msg.sender].stud=true;\nwallets[msg.sender].changeowneri[msg.sender].neinst=Inst;\nwallets[msg.sender].listofchangeowneri.push(msg.sender);\n\nwallets[msg.sender].changeowneri[msg.sender].timestamp=now;\n\n\n }\n \nfunction changeOwnerStudfromStud (address ad)public{\n    \n    wallets[msg.sender].changeowneri[msg.sender].stud=true;\n    wallets[msg.sender].changeowneri[msg.sender].nestud=ad;\n    wallets[msg.sender].listofchangeowneri.push(msg.sender);\n    wallets[msg.sender].changeowneri[msg.sender].timestamp=now;\n    \n    \n\n }\n \n\n\nfunction changeOwnerStudfromInst (address ad) public {\n    \n    wallets[msg.sender].changeowneri[msg.sender].inst=true;\n    wallets[msg.sender].changeowneri[msg.sender].nestud=ad;\n  wallets[msg.sender].listofchangeowneri.push(msg.sender);\n  wallets[msg.sender].changeowneri[msg.sender].timestamp=now;\n    \n} \n\n\n\n\n\n\n\n\n\n\n\n\n\nfunction getChangeOwnerList(address a)public view returns(address[] memory)\n {\n     return wallets[a].listofchangeowneri;\n     \n     \n }\n\n\n\n\nfunction updateProf (string memory name,string memory pro,address  my) public\n{\n    \nwallets[my].profile.name=name;\nwallets[my].profile.propic=pro;\n\n\n}\n\n\n\nfunction getProfile(address  a) public view returns (string memory,string memory){\n   \n return (wallets[a].profile.name,wallets[a].profile.propic);\n    \n    \n}\n\n\nfunction approveChangeOwnerINSTReqbyStud(address ad)public{\nwallets[msg.sender].changeowneri[ad].stud=true;\nif(wallets[msg.sender].changeowneri[ad].stud&&wallets[msg.sender].changeowneri[ad].inst)\n{\nwallets[msg.sender].owners.inst=wallets[msg.sender].changeowneri[ad].neinst;\n\n}\n    \n}\n\n\n\nfunction approveChangeOwnerINSTReqbyInst(address ad,address io)public{\nwallets[io].changeowneri[ad].inst=true;\nif(wallets[io].changeowneri[ad].stud&&wallets[io].changeowneri[ad].inst)\n{\nwallets[io].owners.inst=wallets[io].changeowneri[ad].neinst;\n\n}\n    \n}\n\n\n\n\nfunction approveChangeOwnerSTUDReqbyInst(address ad,address io)public{\nwallets[io].changeowneri[ad].inst=true;\n\nif(wallets[io].changeowneri[ad].stud&&wallets[io].changeowneri[ad].inst)\n{\nwallets[io].owners.stud=wallets[io].changeowneri[ad].nestud;\n\n}\n    \n}\n\n\n\nfunction approveChangeOwnerSTUDReqbyStud(address ad,address io)public{\nwallets[io].changeowneri[ad].stud=true;\nif(wallets[io].changeowneri[ad].stud&&wallets[io].changeowneri[ad].inst)\n{\nwallets[io].owners.stud=wallets[io].changeowneri[ad].nestud;\n\n}\n    \n}\n\n\nfunction createNewPartialOwnerRequest(address a,bool adhar,uint8 d)public\n{\n    \n    \n    \n    wallets[a].partialowner[msg.sender].aadhar=adhar;\n    wallets[a].partialowner[msg.sender].day=d;\n    wallets[a].listofpartialowner.push(msg.sender);\n    \n    \n    \n    \n}\n\nfunction getPartialOwnerShipList(address a) public view returns (address [] memory){\n    \n    \n     return wallets[a].listofpartialowner;\n\n}\n\n\n\nfunction approvePartialOwnerReqfromStudent (address reqq) public {\n   \nwallets[msg.sender].partialowner[reqq].approve.stud=true;\n    \nif( wallets[msg.sender].partialowner[reqq].approve.stud==true&& wallets[msg.sender].partialowner[reqq].approve.inst==true)\n    {\n        wallets[msg.sender].owners.partialowner[msg.sender].aadhar=wallets[msg.sender].partialowner[reqq].aadhar;\n        \n        wallets[msg.sender].owners.partialowner[msg.sender].expiry=now+ wallets[msg.sender].owners.partialowner[msg.sender].day * 1 minutes;\n        wallets[msg.sender].owners.listofpartialowner.push(reqq);\n\n    }\n    \n    \n}\n\n\nfunction approvePartialOwnerReqfromInst (address stud ,address reqq) public {\n    \n    \n        wallets[stud].partialowner[reqq].approve.inst=true;\n         if( wallets[stud].partialowner[reqq].approve.stud==true&& wallets[stud].partialowner[reqq].approve.inst==true)\n      {\n\n    wallets[stud].owners.partialowner[reqq].aadhar=wallets[stud].partialowner[reqq].aadhar;\n   \n   uint yuyu= wallets[stud].owners.partialowner[reqq].day ;\n   \n    wallets[stud].owners.partialowner[reqq].expiry=now+ yuyu *1 minutes;\n    wallets[stud].owners.listofpartialowner.push(reqq);\n\n          }\n        \n        \n        \n\n}\n\n\n\nfunction getAadharfromPartialOwner(address  a) public view returns (string memory){\n    \naddress [] memory va=wallets[a].owners.listofpartialowner;\nbool flag =false;\nfor(uint i=0;i<va.length;i++){\nif(msg.sender==va[i])\n{\n flag=true;\n \n \n    \n}\n    \n}\n\n\n\n\nif(flag==true){\n    \n    \n    \n    if(wallets[a].owners.partialowner[msg.sender].aadhar==true){\n        \n        \n        if(wallets[a].owners.partialowner[msg.sender].day<now)\n         {\n             \n             return wallets[a].doc.aadhar;\n             \n          }\n         else {\n             return \"Date Expired\";\n         }\n        \n    }else {\n        \n        return \"error\";\n    }\n        \n    }else {\n        return  \"a\";\n    }\n    \n}\n\n\n\nfunction isIamPartialOwner (address a)public  view returns (bool){\n    address [] memory va=wallets[a].owners.listofpartialowner;\nbool flag =false;\nfor(uint i=0;i<va.length;i++){\nif(msg.sender==va[i])\n{\n flag=true;\n \n \n    \n}\n    \n}\n\nreturn flag;\n    \n    \n}\n\n\nfunction getPartialOwnerSList(address a) public view returns (address[] memory) {\n    return wallets[a].owners.listofpartialowner;\n    \n}\n\nfunction set() public {\n    \n    \nwallets[msg.sender].doc.aadhar=\"HHHHHHAAH\";\n\n    \n}\n\n\n\n\n\n\n\n\nfunction getPartialOwnerShipINFO(address stud ,address paro)public view returns (bool ,uint ) {\n  //it returns the expiry date and whether the It Has Request to aadhar or NOt  \nreturn (wallets[stud].owners.partialowner[paro].aadhar, wallets[stud].owners.partialowner[paro].expiry);    \n    \n    \n}\n\n\n\nfunction getUploadRequestTIMESTAMP(address stud,address reqq) public view returns(uint){\n    \nreturn wallets[stud].uploadreq[reqq].timestamp;\n\n\n    \n}\n\n\nfunction getChangeOwnerRequestTIMESTAMP(address stud,address reqq) public view returns(uint){\n    \nreturn wallets[stud].changeowneri[reqq].timestamp;\n\n    \n}\n\n\n\n\nfunction declineChangeOwnerRequest(address stud ,address reqq) public{\n    \n    \n    \n    \n    for(uint i=0;i<wallets[stud].listofchangeowneri.length;i++){\n        \n    if(reqq==wallets[stud].listofchangeowneri[i]){\n        delete wallets[stud].listofchangeowneri[i];\n    }\n    }\n\n}\n\n\n\nfunction declineUploadRequest(address stud ,address reqq) public{\n    \n    \n    \n    \n    for(uint i=0;i<wallets[stud].listofuploadreq.length;i++){\n        \n    if(reqq==wallets[stud].listofuploadreq[i]){\n        delete wallets[stud].listofuploadreq[i];\n    }\n    }\n\n}\n\n\n\n\n// function declinePartialOwnershipRequest(address stud ,address reqq) public{\n    \n    \n    \n    \n//     for(uint i=0;i<wallets[stud].listofpartialowner.length;i++){\n        \n//     if(reqq==wallets[stud].listofpartialowner[i]){\n//         delete wallets[stud].listofpartialowner[i];\n        \n//     }\n//     }\n\n// }\n\n\n\n\n\n\n\n\n\n\n\n\n\n\n\n\n\n\n}",
  "sourcePath": "/home/stanleeniko/truffle/contracts/SimpleStorage.sol",
  "compiler": {
    "name": "solc",
    "version": "0.5.0+commit.1d4f565a.Emscripten.clang"
  },
  "schemaVersion": "3.0.1",
  "updatedAt": "2019-02-26T17:09:48.462Z",
  "devdoc": {
    "methods": {}
  },
  "userdoc": {
    "methods": {}
  }
}