{
  "contractName": "SimpleStorage",
  "abi": [
    {
      "constant": true,
      "inputs": [],
      "name": "j",
      "outputs": [
        {
          "name": "",
          "type": "address"
        }
      ],
      "payable": false,
      "stateMutability": "view",
      "type": "function",
      "signature": "0xb582ec5f"
    }
  ],
  "bytecode": "0x608060405234801561001057600080fd5b5060ea8061001f6000396000f3fe608060405260043610603f576000357c0100000000000000000000000000000000000000000000000000000000900463ffffffff168063b582ec5f146044575b600080fd5b348015604f57600080fd5b5060566098565b604051808273ffffffffffffffffffffffffffffffffffffffff1673ffffffffffffffffffffffffffffffffffffffff16815260200191505060405180910390f35b600360009054906101000a900473ffffffffffffffffffffffffffffffffffffffff168156fea165627a7a72305820f4e0f3f2432c4d86e5189d82bc7b81dafddb2666274e537c13e6ace344b90b2a0029",
  "source": "pragma solidity 0.5.0;\ncontract SimpleStorage {\n\nstruct Documents  {\n string  aadhar;\n\n    \n    \n}\n\nstruct PersonalInfo {\nstring name;\nstring propic;\n    \n}\n\nstruct Owners{\nuint8 max;\naddress stud;\naddress inst;\n\nmapping(address=>PartialOwner) partialowner;\naddress[] listofpartialowner;\n\n\n}\n\nstruct Request {\n    \nbool stud;\nbool inst;\nbool aadhar;\n\n\n} \n\nstruct ApprovalRequest{\n bool stud;\n bool inst;\n \n \n}\n\nstruct ChangeOwnerShip{\n bool stud;\n bool inst;\n address studa;\n address insta;\n \n \n ApprovalRequest approve;\n\n}\n\n\n\n\nstruct ChangeOwnerShipInst{\n    \nbool inst ;\nbool stud;\naddress neinst;\naddress nestud;\n\nuint timestamp;\n\n    \n    \n}\n\n\n\n\n\n\nstruct Upload {\n\n ApprovalRequest approve;\n bool aadhar;\n string aadharhash;\n uint timestamp;\n}\n\n\n\n\nstruct PartialOwner{\n    \nbool aadhar;\nuint day;\nuint expiry;\n\n\n    \n}\n\n\nstruct PartialOwnerRequest\n{\nApprovalRequest approve;\nuint256 day;\nbool aadhar;\n\n\n}\n\n\n\nstruct MultiSig {\n    \n    \nOwners owners;\nDocuments doc;\nPersonalInfo profile;\n\n\n//Upload\n\n\nmapping(address=>Upload) uploadreq;\naddress[] listofuploadreq;\n\n\n\n//ChangeOwnerShip\n\n\n\n\naddress[] listofchangeowneri;\n\n\n\nmapping(address=>ChangeOwnerShipInst) changeowneri;\n\n\n\nmapping(address=>PartialOwnerRequest) partialowner;\n\naddress[] listofpartialowner;\n\n\n\n\n\n\n    \n}\n\n\n\n\n\n\n\n\n\n\n\n/////////////////////////////////////////////////////////////////////////////////\nmapping(address=>MultiSig) wallets;\nmapping(address=>bool) listofwall;\nmapping (address=>address[] )  iminwall;\n\n\naddress public j;\n\n\n\n\n\n\n}\n",
  "sourcePath": "/home/athrva/MyProjects/Truffle/SIH/contracts/SimpleStorage.sol",
  "compiler": {
    "name": "solc",
    "version": "0.5.0+commit.1d4f565a.Emscripten.clang"
  },
  "schemaVersion": "3.0.0",
  "updatedAt": "2019-02-27T07:17:56.426Z",
  "devdoc": {
    "methods": {}
  },
  "userdoc": {
    "methods": {}
  }
}