{
  "contractName": "SimpleStorage",
  "abi": [
    {
      "constant": true,
      "inputs": [],
      "name": "j",
      "outputs": [
        {
          "name": "",
          "type": "address"
        }
      ],
      "payable": false,
      "stateMutability": "view",
      "type": "function",
      "signature": "0xb582ec5f"
    },
    {
      "inputs": [],
      "payable": false,
      "stateMutability": "nonpayable",
      "type": "constructor",
      "signature": "constructor"
    },
    {
      "constant": false,
      "inputs": [
        {
          "name": "a",
          "type": "address"
        }
      ],
      "name": "createNewMultiSigUser",
      "outputs": [],
      "payable": false,
      "stateMutability": "nonpayable",
      "type": "function",
      "signature": "0x67ddb864"
    },
    {
      "constant": false,
      "inputs": [
        {
          "name": "a",
          "type": "address"
        }
      ],
      "name": "createNewMultiSigInst",
      "outputs": [],
      "payable": false,
      "stateMutability": "nonpayable",
      "type": "function",
      "signature": "0x84320a3f"
    },
    {
      "constant": true,
      "inputs": [
        {
          "name": "a",
          "type": "address"
        }
      ],
      "name": "doesWalletExists",
      "outputs": [
        {
          "name": "",
          "type": "bool"
        }
      ],
      "payable": false,
      "stateMutability": "view",
      "type": "function",
      "signature": "0x33b62877"
    },
    {
      "constant": false,
      "inputs": [
        {
          "name": "ad",
          "type": "bool"
        },
        {
          "name": "hash",
          "type": "string"
        }
      ],
      "name": "createUploadRequestbyUser",
      "outputs": [],
      "payable": false,
      "stateMutability": "nonpayable",
      "type": "function",
      "signature": "0x20a38c5f"
    },
    {
      "constant": false,
      "inputs": [
        {
          "name": "a",
          "type": "address"
        },
        {
          "name": "ad",
          "type": "bool"
        },
        {
          "name": "hash",
          "type": "string"
        }
      ],
      "name": "createUploadRequestbyInstitute",
      "outputs": [],
      "payable": false,
      "stateMutability": "nonpayable",
      "type": "function",
      "signature": "0x2aebaf40"
    },
    {
      "constant": true,
      "inputs": [
        {
          "name": "ad",
          "type": "address"
        }
      ],
      "name": "getUploadReqList",
      "outputs": [
        {
          "name": "",
          "type": "address[]"
        }
      ],
      "payable": false,
      "stateMutability": "view",
      "type": "function",
      "signature": "0xd88997f7"
    },
    {
      "constant": false,
      "inputs": [
        {
          "name": "ad",
          "type": "address"
        }
      ],
      "name": "approveUploadbyUser",
      "outputs": [],
      "payable": false,
      "stateMutability": "nonpayable",
      "type": "function",
      "signature": "0x3b2b0d34"
    },
    {
      "constant": false,
      "inputs": [
        {
          "name": "ad",
          "type": "address"
        },
        {
          "name": "student",
          "type": "address"
        }
      ],
      "name": "approveUploadbyInstitute",
      "outputs": [],
      "payable": false,
      "stateMutability": "nonpayable",
      "type": "function",
      "signature": "0x6b061c24"
    },
    {
      "constant": true,
      "inputs": [],
      "name": "getAadhar",
      "outputs": [
        {
          "name": "",
          "type": "string"
        }
      ],
      "payable": false,
      "stateMutability": "view",
      "type": "function",
      "signature": "0x571479c1"
    },
    {
      "constant": true,
      "inputs": [
        {
          "name": "a",
          "type": "address"
        }
      ],
      "name": "getOwners",
      "outputs": [
        {
          "name": "",
          "type": "address"
        },
        {
          "name": "",
          "type": "address"
        }
      ],
      "payable": false,
      "stateMutability": "view",
      "type": "function",
      "signature": "0xfd8b84b1"
    },
    {
      "constant": true,
      "inputs": [
        {
          "name": "ad",
          "type": "address"
        }
      ],
      "name": "getInstitutesWallet",
      "outputs": [
        {
          "name": "",
          "type": "address[]"
        }
      ],
      "payable": false,
      "stateMutability": "view",
      "type": "function",
      "signature": "0xd5808aa0"
    },
    {
      "constant": true,
      "inputs": [
        {
          "name": "ad",
          "type": "address"
        }
      ],
      "name": "getInstitutesUploadList",
      "outputs": [
        {
          "name": "",
          "type": "address[]"
        }
      ],
      "payable": false,
      "stateMutability": "view",
      "type": "function",
      "signature": "0x65e69686"
    },
    {
      "constant": false,
      "inputs": [
        {
          "name": "stud",
          "type": "address"
        },
        {
          "name": "Inst",
          "type": "address"
        }
      ],
      "name": "changeOwnerInstfromInst",
      "outputs": [],
      "payable": false,
      "stateMutability": "nonpayable",
      "type": "function",
      "signature": "0x1dbcc031"
    },
    {
      "constant": false,
      "inputs": [
        {
          "name": "Inst",
          "type": "address"
        }
      ],
      "name": "changeOwnerInstfromStud",
      "outputs": [],
      "payable": false,
      "stateMutability": "nonpayable",
      "type": "function",
      "signature": "0x32584da9"
    },
    {
      "constant": false,
      "inputs": [
        {
          "name": "ad",
          "type": "address"
        }
      ],
      "name": "changeOwnerStudfromStud",
      "outputs": [],
      "payable": false,
      "stateMutability": "nonpayable",
      "type": "function",
      "signature": "0x946c6998"
    },
    {
      "constant": false,
      "inputs": [
        {
          "name": "ad",
          "type": "address"
        }
      ],
      "name": "changeOwnerStudfromInst",
      "outputs": [],
      "payable": false,
      "stateMutability": "nonpayable",
      "type": "function",
      "signature": "0xf9d6aede"
    },
    {
      "constant": true,
      "inputs": [
        {
          "name": "a",
          "type": "address"
        }
      ],
      "name": "getChangeOwnerList",
      "outputs": [
        {
          "name": "",
          "type": "address[]"
        }
      ],
      "payable": false,
      "stateMutability": "view",
      "type": "function",
      "signature": "0x7a17dab5"
    },
    {
      "constant": false,
      "inputs": [
        {
          "name": "name",
          "type": "string"
        },
        {
          "name": "pro",
          "type": "string"
        },
        {
          "name": "my",
          "type": "address"
        },
        {
          "name": "no",
          "type": "string"
        },
        {
          "name": "email",
          "type": "string"
        }
      ],
      "name": "updateProf",
      "outputs": [],
      "payable": false,
      "stateMutability": "nonpayable",
      "type": "function",
      "signature": "0xc1b14dcb"
    },
    {
      "constant": true,
      "inputs": [
        {
          "name": "a",
          "type": "address"
        }
      ],
      "name": "getProfile",
      "outputs": [
        {
          "name": "",
          "type": "string"
        },
        {
          "name": "",
          "type": "string"
        }
      ],
      "payable": false,
      "stateMutability": "view",
      "type": "function",
      "signature": "0x0f53a470"
    },
    {
      "constant": false,
      "inputs": [
        {
          "name": "ad",
          "type": "address"
        }
      ],
      "name": "approveChangeOwnerINSTReqbyStud",
      "outputs": [],
      "payable": false,
      "stateMutability": "nonpayable",
      "type": "function",
      "signature": "0x0e8ab506"
    },
    {
      "constant": false,
      "inputs": [
        {
          "name": "ad",
          "type": "address"
        },
        {
          "name": "io",
          "type": "address"
        }
      ],
      "name": "approveChangeOwnerINSTReqbyInst",
      "outputs": [],
      "payable": false,
      "stateMutability": "nonpayable",
      "type": "function",
      "signature": "0xfb9e0ac9"
    },
    {
      "constant": false,
      "inputs": [
        {
          "name": "ad",
          "type": "address"
        },
        {
          "name": "io",
          "type": "address"
        }
      ],
      "name": "approveChangeOwnerSTUDReqbyInst",
      "outputs": [],
      "payable": false,
      "stateMutability": "nonpayable",
      "type": "function",
      "signature": "0x8fd6a914"
    },
    {
      "constant": false,
      "inputs": [
        {
          "name": "ad",
          "type": "address"
        },
        {
          "name": "io",
          "type": "address"
        }
      ],
      "name": "approveChangeOwnerSTUDReqbyStud",
      "outputs": [],
      "payable": false,
      "stateMutability": "nonpayable",
      "type": "function",
      "signature": "0x124edd24"
    },
    {
      "constant": false,
      "inputs": [
        {
          "name": "a",
          "type": "address"
        },
        {
          "name": "adhar",
          "type": "bool"
        },
        {
          "name": "d",
          "type": "uint8"
        }
      ],
      "name": "createNewPartialOwnerRequest",
      "outputs": [],
      "payable": false,
      "stateMutability": "nonpayable",
      "type": "function",
      "signature": "0xcdb2b1f1"
    },
    {
      "constant": true,
      "inputs": [
        {
          "name": "a",
          "type": "address"
        }
      ],
      "name": "getPartialOwnerShipList",
      "outputs": [
        {
          "name": "",
          "type": "address[]"
        }
      ],
      "payable": false,
      "stateMutability": "view",
      "type": "function",
      "signature": "0xf9cdf62b"
    },
    {
      "constant": true,
      "inputs": [
        {
          "name": "a",
          "type": "address"
        }
      ],
      "name": "isIamPartialOwner",
      "outputs": [
        {
          "name": "",
          "type": "bool"
        }
      ],
      "payable": false,
      "stateMutability": "view",
      "type": "function",
      "signature": "0xe5f91f71"
    },
    {
      "constant": true,
      "inputs": [
        {
          "name": "a",
          "type": "address"
        }
      ],
      "name": "getPartialOwnerSList",
      "outputs": [
        {
          "name": "",
          "type": "address[]"
        }
      ],
      "payable": false,
      "stateMutability": "view",
      "type": "function",
      "signature": "0x989bb9ff"
    },
    {
      "constant": false,
      "inputs": [],
      "name": "set",
      "outputs": [],
      "payable": false,
      "stateMutability": "nonpayable",
      "type": "function",
      "signature": "0xb8e010de"
    },
    {
      "constant": true,
      "inputs": [
        {
          "name": "stud",
          "type": "address"
        },
        {
          "name": "paro",
          "type": "address"
        }
      ],
      "name": "getPartialOwnerShipINFO",
      "outputs": [
        {
          "name": "",
          "type": "bool"
        },
        {
          "name": "",
          "type": "uint256"
        }
      ],
      "payable": false,
      "stateMutability": "view",
      "type": "function",
      "signature": "0x47e4ab25"
    },
    {
      "constant": true,
      "inputs": [
        {
          "name": "stud",
          "type": "address"
        },
        {
          "name": "reqq",
          "type": "address"
        }
      ],
      "name": "getUploadRequestTIMESTAMP",
      "outputs": [
        {
          "name": "",
          "type": "uint256"
        }
      ],
      "payable": false,
      "stateMutability": "view",
      "type": "function",
      "signature": "0x679a6f79"
    },
    {
      "constant": true,
      "inputs": [
        {
          "name": "stud",
          "type": "address"
        },
        {
          "name": "reqq",
          "type": "address"
        }
      ],
      "name": "getChangeOwnerRequestTIMESTAMP",
      "outputs": [
        {
          "name": "",
          "type": "uint256"
        }
      ],
      "payable": false,
      "stateMutability": "view",
      "type": "function",
      "signature": "0xfa271d80"
    },
    {
      "constant": false,
      "inputs": [
        {
          "name": "a",
          "type": "address"
        },
        {
          "name": "qw",
          "type": "uint8"
        },
        {
          "name": "io",
          "type": "string"
        }
      ],
      "name": "setAaadharNo",
      "outputs": [],
      "payable": false,
      "stateMutability": "nonpayable",
      "type": "function",
      "signature": "0x88839eb1"
    },
    {
      "constant": false,
      "inputs": [
        {
          "name": "stud",
          "type": "address"
        },
        {
          "name": "ad",
          "type": "address"
        }
      ],
      "name": "createNEwAccess",
      "outputs": [],
      "payable": false,
      "stateMutability": "nonpayable",
      "type": "function",
      "signature": "0xfe2dc83c"
    },
    {
      "constant": true,
      "inputs": [
        {
          "name": "a",
          "type": "address"
        }
      ],
      "name": "getIhaveaAccess",
      "outputs": [
        {
          "name": "",
          "type": "address[]"
        }
      ],
      "payable": false,
      "stateMutability": "view",
      "type": "function",
      "signature": "0xb533c202"
    },
    {
      "constant": true,
      "inputs": [
        {
          "name": "stud",
          "type": "address"
        },
        {
          "name": "inst",
          "type": "address"
        }
      ],
      "name": "getUplaodReqPic",
      "outputs": [
        {
          "name": "",
          "type": "string"
        }
      ],
      "payable": false,
      "stateMutability": "view",
      "type": "function",
      "signature": "0x7bbba8f9"
    }
  ],
  "bytecode": "0x608060405234801561001057600080fd5b50615546806100206000396000f3fe6080604052600436106101c2576000357c0100000000000000000000000000000000000000000000000000000000900463ffffffff1680630e8ab506146101c75780630f53a47014610218578063124edd241461034e5780631dbcc031146103bf57806320a38c5f146104305780632aebaf401461050457806332584da9146105f857806333b62877146106495780633b2b0d34146106b257806347e4ab2514610703578063571479c11461079357806365e6968614610823578063679a6f79146108c957806367ddb8641461094e5780636b061c241461099f5780637a17dab514610a105780637bbba8f914610ab657806384320a3f14610ba057806388839eb114610bf15780638fd6a91414610ce6578063946c699814610d57578063989bb9ff14610da8578063b533c20214610e4e578063b582ec5f14610ef4578063b8e010de14610f4b578063c1b14dcb14610f62578063cdb2b1f11461120f578063d5808aa014611279578063d88997f71461131f578063e5f91f71146113c5578063f9cdf62b1461142e578063f9d6aede146114d4578063fa271d8014611525578063fb9e0ac9146115aa578063fd8b84b11461161b578063fe2dc83c146116df575b600080fd5b3480156101d357600080fd5b50610216600480360360208110156101ea57600080fd5b81019080803573ffffffffffffffffffffffffffffffffffffffff169060200190929190505050611750565b005b34801561022457600080fd5b506102676004803603602081101561023b57600080fd5b81019080803573ffffffffffffffffffffffffffffffffffffffff169060200190929190505050611a3d565b604051808060200180602001838103835285818151815260200191508051906020019080838360005b838110156102ab578082015181840152602081019050610290565b50505050905090810190601f1680156102d85780820380516001836020036101000a031916815260200191505b50838103825284818151815260200191508051906020019080838360005b838110156103115780820151818401526020810190506102f6565b50505050905090810190601f16801561033e5780820380516001836020036101000a031916815260200191505b5094505050505060405180910390f35b34801561035a57600080fd5b506103bd6004803603604081101561037157600080fd5b81019080803573ffffffffffffffffffffffffffffffffffffffff169060200190929190803573ffffffffffffffffffffffffffffffffffffffff169060200190929190505050611c09565b005b3480156103cb57600080fd5b5061042e600480360360408110156103e257600080fd5b81019080803573ffffffffffffffffffffffffffffffffffffffff169060200190929190803573ffffffffffffffffffffffffffffffffffffffff169060200190929190505050611ef7565b005b34801561043c57600080fd5b506105026004803603604081101561045357600080fd5b810190808035151590602001909291908035906020019064010000000081111561047c57600080fd5b82018360208201111561048e57600080fd5b803590602001918460018302840111640100000000831117156104b057600080fd5b91908080601f016020809104026020016040519081016040528093929190818152602001838380828437600081840152601f19601f820116905080830192505050505050509192919290505050612180565b005b34801561051057600080fd5b506105f66004803603606081101561052757600080fd5b81019080803573ffffffffffffffffffffffffffffffffffffffff1690602001909291908035151590602001909291908035906020019064010000000081111561057057600080fd5b82018360208201111561058257600080fd5b803590602001918460018302840111640100000000831117156105a457600080fd5b91908080601f016020809104026020016040519081016040528093929190818152602001838380828437600081840152601f19601f820116905080830192505050505050509192919290505050612518565b005b34801561060457600080fd5b506106476004803603602081101561061b57600080fd5b81019080803573ffffffffffffffffffffffffffffffffffffffff16906020019092919050505061290a565b005b34801561065557600080fd5b506106986004803603602081101561066c57600080fd5b81019080803573ffffffffffffffffffffffffffffffffffffffff169060200190929190505050612b92565b604051808215151515815260200191505060405180910390f35b3480156106be57600080fd5b50610701600480360360208110156106d557600080fd5b81019080803573ffffffffffffffffffffffffffffffffffffffff169060200190929190505050612c00565b005b34801561070f57600080fd5b506107726004803603604081101561072657600080fd5b81019080803573ffffffffffffffffffffffffffffffffffffffff169060200190929190803573ffffffffffffffffffffffffffffffffffffffff169060200190929190505050612f79565b60405180831515151581526020018281526020019250505060405180910390f35b34801561079f57600080fd5b506107a861309e565b6040518080602001828103825283818151815260200191508051906020019080838360005b838110156107e85780820151818401526020810190506107cd565b50505050905090810190601f1680156108155780820380516001836020036101000a031916815260200191505b509250505060405180910390f35b34801561082f57600080fd5b506108726004803603602081101561084657600080fd5b81019080803573ffffffffffffffffffffffffffffffffffffffff169060200190929190505050613182565b6040518080602001828103825283818151815260200191508051906020019060200280838360005b838110156108b557808201518184015260208101905061089a565b505050509050019250505060405180910390f35b3480156108d557600080fd5b50610938600480360360408110156108ec57600080fd5b81019080803573ffffffffffffffffffffffffffffffffffffffff169060200190929190803573ffffffffffffffffffffffffffffffffffffffff169060200190929190505050613251565b6040518082815260200191505060405180910390f35b34801561095a57600080fd5b5061099d6004803603602081101561097157600080fd5b81019080803573ffffffffffffffffffffffffffffffffffffffff1690602001909291905050506132dd565b005b3480156109ab57600080fd5b50610a0e600480360360408110156109c257600080fd5b81019080803573ffffffffffffffffffffffffffffffffffffffff169060200190929190803573ffffffffffffffffffffffffffffffffffffffff1690602001909291905050506134e0565b005b348015610a1c57600080fd5b50610a5f60048036036020811015610a3357600080fd5b81019080803573ffffffffffffffffffffffffffffffffffffffff16906020019092919050505061385a565b6040518080602001828103825283818151815260200191508051906020019060200280838360005b83811015610aa2578082015181840152602081019050610a87565b505050509050019250505060405180910390f35b348015610ac257600080fd5b50610b2560048036036040811015610ad957600080fd5b81019080803573ffffffffffffffffffffffffffffffffffffffff169060200190929190803573ffffffffffffffffffffffffffffffffffffffff169060200190929190505050613929565b6040518080602001828103825283818151815260200191508051906020019080838360005b83811015610b65578082015181840152602081019050610b4a565b50505050905090810190601f168015610b925780820380516001836020036101000a031916815260200191505b509250505060405180910390f35b348015610bac57600080fd5b50610bef60048036036020811015610bc357600080fd5b81019080803573ffffffffffffffffffffffffffffffffffffffff169060200190929190505050613a4d565b005b348015610bfd57600080fd5b50610ce460048036036060811015610c1457600080fd5b81019080803573ffffffffffffffffffffffffffffffffffffffff169060200190929190803560ff16906020019092919080359060200190640100000000811115610c5e57600080fd5b820183602082011115610c7057600080fd5b80359060200191846001830284011164010000000083111715610c9257600080fd5b91908080601f016020809104026020016040519081016040528093929190818152602001838380828437600081840152601f19601f820116905080830192505050505050509192919290505050613c50565b005b348015610cf257600080fd5b50610d5560048036036040811015610d0957600080fd5b81019080803573ffffffffffffffffffffffffffffffffffffffff169060200190929190803573ffffffffffffffffffffffffffffffffffffffff169060200190929190505050613d0b565b005b348015610d6357600080fd5b50610da660048036036020811015610d7a57600080fd5b81019080803573ffffffffffffffffffffffffffffffffffffffff169060200190929190505050613ff9565b005b348015610db457600080fd5b50610df760048036036020811015610dcb57600080fd5b81019080803573ffffffffffffffffffffffffffffffffffffffff169060200190929190505050614281565b6040518080602001828103825283818151815260200191508051906020019060200280838360005b83811015610e3a578082015181840152602081019050610e1f565b505050509050019250505060405180910390f35b348015610e5a57600080fd5b50610e9d60048036036020811015610e7157600080fd5b81019080803573ffffffffffffffffffffffffffffffffffffffff169060200190929190505050614353565b6040518080602001828103825283818151815260200191508051906020019060200280838360005b83811015610ee0578082015181840152602081019050610ec5565b505050509050019250505060405180910390f35b348015610f0057600080fd5b50610f09614422565b604051808273ffffffffffffffffffffffffffffffffffffffff1673ffffffffffffffffffffffffffffffffffffffff16815260200191505060405180910390f35b348015610f5757600080fd5b50610f60614448565b005b348015610f6e57600080fd5b5061120d600480360360a0811015610f8557600080fd5b8101908080359060200190640100000000811115610fa257600080fd5b820183602082011115610fb457600080fd5b80359060200191846001830284011164010000000083111715610fd657600080fd5b91908080601f016020809104026020016040519081016040528093929190818152602001838380828437600081840152601f19601f8201169050808301925050505050505091929192908035906020019064010000000081111561103957600080fd5b82018360208201111561104b57600080fd5b8035906020019184600183028401116401000000008311171561106d57600080fd5b91908080601f016020809104026020016040519081016040528093929190818152602001838380828437600081840152601f19601f820116905080830192505050505050509192919290803573ffffffffffffffffffffffffffffffffffffffff169060200190929190803590602001906401000000008111156110f057600080fd5b82018360208201111561110257600080fd5b8035906020019184600183028401116401000000008311171561112457600080fd5b91908080601f016020809104026020016040519081016040528093929190818152602001838380828437600081840152601f19601f8201169050808301925050505050505091929192908035906020019064010000000081111561118757600080fd5b82018360208201111561119957600080fd5b803590602001918460018302840111640100000000831117156111bb57600080fd5b91908080601f016020809104026020016040519081016040528093929190818152602001838380828437600081840152601f19601f8201169050808301925050505050505091929192905050506144d8565b005b34801561121b57600080fd5b506112776004803603606081101561123257600080fd5b81019080803573ffffffffffffffffffffffffffffffffffffffff169060200190929190803515159060200190929190803560ff169060200190929190505050614643565b005b34801561128557600080fd5b506112c86004803603602081101561129c57600080fd5b81019080803573ffffffffffffffffffffffffffffffffffffffff16906020019092919050505061480f565b6040518080602001828103825283818151815260200191508051906020019060200280838360005b8381101561130b5780820151818401526020810190506112f0565b505050509050019250505060405180910390f35b34801561132b57600080fd5b5061136e6004803603602081101561134257600080fd5b81019080803573ffffffffffffffffffffffffffffffffffffffff1690602001909291905050506148dc565b6040518080602001828103825283818151815260200191508051906020019060200280838360005b838110156113b1578082015181840152602081019050611396565b505050509050019250505060405180910390f35b3480156113d157600080fd5b50611414600480360360208110156113e857600080fd5b81019080803573ffffffffffffffffffffffffffffffffffffffff1690602001909291905050506149ab565b604051808215151515815260200191505060405180910390f35b34801561143a57600080fd5b5061147d6004803603602081101561145157600080fd5b81019080803573ffffffffffffffffffffffffffffffffffffffff169060200190929190505050614af6565b6040518080602001828103825283818151815260200191508051906020019060200280838360005b838110156114c05780820151818401526020810190506114a5565b505050509050019250505060405180910390f35b3480156114e057600080fd5b50611523600480360360208110156114f757600080fd5b81019080803573ffffffffffffffffffffffffffffffffffffffff169060200190929190505050614bc5565b005b34801561153157600080fd5b506115946004803603604081101561154857600080fd5b81019080803573ffffffffffffffffffffffffffffffffffffffff169060200190929190803573ffffffffffffffffffffffffffffffffffffffff169060200190929190505050614e4d565b6040518082815260200191505060405180910390f35b3480156115b657600080fd5b50611619600480360360408110156115cd57600080fd5b81019080803573ffffffffffffffffffffffffffffffffffffffff169060200190929190803573ffffffffffffffffffffffffffffffffffffffff169060200190929190505050614ed9565b005b34801561162757600080fd5b5061166a6004803603602081101561163e57600080fd5b81019080803573ffffffffffffffffffffffffffffffffffffffff1690602001909291905050506151c7565b604051808373ffffffffffffffffffffffffffffffffffffffff1673ffffffffffffffffffffffffffffffffffffffff1681526020018273ffffffffffffffffffffffffffffffffffffffff1673ffffffffffffffffffffffffffffffffffffffff1681526020019250505060405180910390f35b3480156116eb57600080fd5b5061174e6004803603604081101561170257600080fd5b81019080803573ffffffffffffffffffffffffffffffffffffffff169060200190929190803573ffffffffffffffffffffffffffffffffffffffff16906020019092919050505061529d565b005b60016000803373ffffffffffffffffffffffffffffffffffffffff1673ffffffffffffffffffffffffffffffffffffffff168152602001908152602001600020600e0160008373ffffffffffffffffffffffffffffffffffffffff1673ffffffffffffffffffffffffffffffffffffffff16815260200190815260200160002060000160016101000a81548160ff0219169083151502179055506000803373ffffffffffffffffffffffffffffffffffffffff1673ffffffffffffffffffffffffffffffffffffffff168152602001908152602001600020600e0160008273ffffffffffffffffffffffffffffffffffffffff1673ffffffffffffffffffffffffffffffffffffffff16815260200190815260200160002060000160019054906101000a900460ff16801561191057506000803373ffffffffffffffffffffffffffffffffffffffff1673ffffffffffffffffffffffffffffffffffffffff168152602001908152602001600020600e0160008273ffffffffffffffffffffffffffffffffffffffff1673ffffffffffffffffffffffffffffffffffffffff16815260200190815260200160002060000160009054906101000a900460ff165b15611a3a576000803373ffffffffffffffffffffffffffffffffffffffff1673ffffffffffffffffffffffffffffffffffffffff168152602001908152602001600020600e0160008273ffffffffffffffffffffffffffffffffffffffff1673ffffffffffffffffffffffffffffffffffffffff16815260200190815260200160002060000160029054906101000a900473ffffffffffffffffffffffffffffffffffffffff166000803373ffffffffffffffffffffffffffffffffffffffff1673ffffffffffffffffffffffffffffffffffffffff16815260200190815260200160002060000160010160006101000a81548173ffffffffffffffffffffffffffffffffffffffff021916908373ffffffffffffffffffffffffffffffffffffffff1602179055505b50565b6060806000808473ffffffffffffffffffffffffffffffffffffffff1673ffffffffffffffffffffffffffffffffffffffff1681526020019081526020016000206007016000016000808573ffffffffffffffffffffffffffffffffffffffff1673ffffffffffffffffffffffffffffffffffffffff168152602001908152602001600020600701600101818054600181600116156101000203166002900480601f016020809104026020016040519081016040528092919081815260200182805460018160011615610100020316600290048015611b5d5780601f10611b3257610100808354040283529160200191611b5d565b820191906000526020600020905b815481529060010190602001808311611b4057829003601f168201915b50505050509150808054600181600116156101000203166002900480601f016020809104026020016040519081016040528092919081815260200182805460018160011615610100020316600290048015611bf95780601f10611bce57610100808354040283529160200191611bf9565b820191906000526020600020905b815481529060010190602001808311611bdc57829003601f168201915b5050505050905091509150915091565b60016000808373ffffffffffffffffffffffffffffffffffffffff1673ffffffffffffffffffffffffffffffffffffffff168152602001908152602001600020600e0160008473ffffffffffffffffffffffffffffffffffffffff1673ffffffffffffffffffffffffffffffffffffffff16815260200190815260200160002060000160016101000a81548160ff0219169083151502179055506000808273ffffffffffffffffffffffffffffffffffffffff1673ffffffffffffffffffffffffffffffffffffffff168152602001908152602001600020600e0160008373ffffffffffffffffffffffffffffffffffffffff1673ffffffffffffffffffffffffffffffffffffffff16815260200190815260200160002060000160019054906101000a900460ff168015611dc957506000808273ffffffffffffffffffffffffffffffffffffffff1673ffffffffffffffffffffffffffffffffffffffff168152602001908152602001600020600e0160008373ffffffffffffffffffffffffffffffffffffffff1673ffffffffffffffffffffffffffffffffffffffff16815260200190815260200160002060000160009054906101000a900460ff165b15611ef3576000808273ffffffffffffffffffffffffffffffffffffffff1673ffffffffffffffffffffffffffffffffffffffff168152602001908152602001600020600e0160008373ffffffffffffffffffffffffffffffffffffffff1673ffffffffffffffffffffffffffffffffffffffff16815260200190815260200160002060010160009054906101000a900473ffffffffffffffffffffffffffffffffffffffff166000808373ffffffffffffffffffffffffffffffffffffffff1673ffffffffffffffffffffffffffffffffffffffff16815260200190815260200160002060000160000160016101000a81548173ffffffffffffffffffffffffffffffffffffffff021916908373ffffffffffffffffffffffffffffffffffffffff1602179055505b5050565b60016000808473ffffffffffffffffffffffffffffffffffffffff1673ffffffffffffffffffffffffffffffffffffffff168152602001908152602001600020600e0160003373ffffffffffffffffffffffffffffffffffffffff1673ffffffffffffffffffffffffffffffffffffffff16815260200190815260200160002060000160006101000a81548160ff021916908315150217905550806000808473ffffffffffffffffffffffffffffffffffffffff1673ffffffffffffffffffffffffffffffffffffffff168152602001908152602001600020600e0160003373ffffffffffffffffffffffffffffffffffffffff1673ffffffffffffffffffffffffffffffffffffffff16815260200190815260200160002060000160026101000a81548173ffffffffffffffffffffffffffffffffffffffff021916908373ffffffffffffffffffffffffffffffffffffffff1602179055506000808373ffffffffffffffffffffffffffffffffffffffff1673ffffffffffffffffffffffffffffffffffffffff168152602001908152602001600020600d013390806001815401808255809150509060018203906000526020600020016000909192909190916101000a81548173ffffffffffffffffffffffffffffffffffffffff021916908373ffffffffffffffffffffffffffffffffffffffff16021790555050426000808473ffffffffffffffffffffffffffffffffffffffff1673ffffffffffffffffffffffffffffffffffffffff168152602001908152602001600020600e0160003373ffffffffffffffffffffffffffffffffffffffff1673ffffffffffffffffffffffffffffffffffffffff168152602001908152602001600020600201819055505050565b60016000803373ffffffffffffffffffffffffffffffffffffffff1673ffffffffffffffffffffffffffffffffffffffff168152602001908152602001600020600b0160003373ffffffffffffffffffffffffffffffffffffffff1673ffffffffffffffffffffffffffffffffffffffff16815260200190815260200160002060000160000160006101000a81548160ff02191690831515021790555060008060003373ffffffffffffffffffffffffffffffffffffffff1673ffffffffffffffffffffffffffffffffffffffff168152602001908152602001600020600b0160003373ffffffffffffffffffffffffffffffffffffffff1673ffffffffffffffffffffffffffffffffffffffff16815260200190815260200160002060000160000160016101000a81548160ff021916908315150217905550816000803373ffffffffffffffffffffffffffffffffffffffff1673ffffffffffffffffffffffffffffffffffffffff168152602001908152602001600020600b0160003373ffffffffffffffffffffffffffffffffffffffff1673ffffffffffffffffffffffffffffffffffffffff16815260200190815260200160002060010160006101000a81548160ff021916908315150217905550806000803373ffffffffffffffffffffffffffffffffffffffff1673ffffffffffffffffffffffffffffffffffffffff168152602001908152602001600020600b0160003373ffffffffffffffffffffffffffffffffffffffff1673ffffffffffffffffffffffffffffffffffffffff16815260200190815260200160002060020190805190602001906123e89291906153ee565b506000803373ffffffffffffffffffffffffffffffffffffffff1673ffffffffffffffffffffffffffffffffffffffff168152602001908152602001600020600c013390806001815401808255809150509060018203906000526020600020016000909192909190916101000a81548173ffffffffffffffffffffffffffffffffffffffff021916908373ffffffffffffffffffffffffffffffffffffffff16021790555050426000803373ffffffffffffffffffffffffffffffffffffffff1673ffffffffffffffffffffffffffffffffffffffff168152602001908152602001600020600b0160003373ffffffffffffffffffffffffffffffffffffffff1673ffffffffffffffffffffffffffffffffffffffff168152602001908152602001600020600301819055505050565b60016000808573ffffffffffffffffffffffffffffffffffffffff1673ffffffffffffffffffffffffffffffffffffffff168152602001908152602001600020600b0160008573ffffffffffffffffffffffffffffffffffffffff1673ffffffffffffffffffffffffffffffffffffffff16815260200190815260200160002060000160000160016101000a81548160ff02191690831515021790555060008060008573ffffffffffffffffffffffffffffffffffffffff1673ffffffffffffffffffffffffffffffffffffffff168152602001908152602001600020600b0160008573ffffffffffffffffffffffffffffffffffffffff1673ffffffffffffffffffffffffffffffffffffffff16815260200190815260200160002060000160000160006101000a81548160ff021916908315150217905550816000808573ffffffffffffffffffffffffffffffffffffffff1673ffffffffffffffffffffffffffffffffffffffff168152602001908152602001600020600b0160008573ffffffffffffffffffffffffffffffffffffffff1673ffffffffffffffffffffffffffffffffffffffff16815260200190815260200160002060010160006101000a81548160ff021916908315150217905550426000808573ffffffffffffffffffffffffffffffffffffffff1673ffffffffffffffffffffffffffffffffffffffff168152602001908152602001600020600b0160008573ffffffffffffffffffffffffffffffffffffffff1673ffffffffffffffffffffffffffffffffffffffff16815260200190815260200160002060030181905550806000808573ffffffffffffffffffffffffffffffffffffffff1673ffffffffffffffffffffffffffffffffffffffff168152602001908152602001600020600b0160008573ffffffffffffffffffffffffffffffffffffffff1673ffffffffffffffffffffffffffffffffffffffff16815260200190815260200160002060020190805190602001906128069291906153ee565b506000808473ffffffffffffffffffffffffffffffffffffffff1673ffffffffffffffffffffffffffffffffffffffff168152602001908152602001600020600c013390806001815401808255809150509060018203906000526020600020016000909192909190916101000a81548173ffffffffffffffffffffffffffffffffffffffff021916908373ffffffffffffffffffffffffffffffffffffffff16021790555050806000808573ffffffffffffffffffffffffffffffffffffffff1673ffffffffffffffffffffffffffffffffffffffff16815260200190815260200160002060040160000190805190602001906129049291906153ee565b50505050565b60016000803373ffffffffffffffffffffffffffffffffffffffff1673ffffffffffffffffffffffffffffffffffffffff168152602001908152602001600020600e0160003373ffffffffffffffffffffffffffffffffffffffff1673ffffffffffffffffffffffffffffffffffffffff16815260200190815260200160002060000160016101000a81548160ff021916908315150217905550806000803373ffffffffffffffffffffffffffffffffffffffff1673ffffffffffffffffffffffffffffffffffffffff168152602001908152602001600020600e0160003373ffffffffffffffffffffffffffffffffffffffff1673ffffffffffffffffffffffffffffffffffffffff16815260200190815260200160002060000160026101000a81548173ffffffffffffffffffffffffffffffffffffffff021916908373ffffffffffffffffffffffffffffffffffffffff1602179055506000803373ffffffffffffffffffffffffffffffffffffffff1673ffffffffffffffffffffffffffffffffffffffff168152602001908152602001600020600d013390806001815401808255809150509060018203906000526020600020016000909192909190916101000a81548173ffffffffffffffffffffffffffffffffffffffff021916908373ffffffffffffffffffffffffffffffffffffffff16021790555050426000803373ffffffffffffffffffffffffffffffffffffffff1673ffffffffffffffffffffffffffffffffffffffff168152602001908152602001600020600e0160003373ffffffffffffffffffffffffffffffffffffffff1673ffffffffffffffffffffffffffffffffffffffff1681526020019081526020016000206002018190555050565b600060011515600160008473ffffffffffffffffffffffffffffffffffffffff1673ffffffffffffffffffffffffffffffffffffffff16815260200190815260200160002060009054906101000a900460ff1615151415612bf65760019050612bfb565b600090505b919050565b60016000803373ffffffffffffffffffffffffffffffffffffffff1673ffffffffffffffffffffffffffffffffffffffff168152602001908152602001600020600b0160008373ffffffffffffffffffffffffffffffffffffffff1673ffffffffffffffffffffffffffffffffffffffff16815260200190815260200160002060000160000160006101000a81548160ff0219169083151502179055506000803373ffffffffffffffffffffffffffffffffffffffff1673ffffffffffffffffffffffffffffffffffffffff168152602001908152602001600020600b0160008273ffffffffffffffffffffffffffffffffffffffff1673ffffffffffffffffffffffffffffffffffffffff16815260200190815260200160002060000160000160009054906101000a900460ff168015612dc957506000803373ffffffffffffffffffffffffffffffffffffffff1673ffffffffffffffffffffffffffffffffffffffff168152602001908152602001600020600b0160008273ffffffffffffffffffffffffffffffffffffffff1673ffffffffffffffffffffffffffffffffffffffff16815260200190815260200160002060000160000160019054906101000a900460ff165b15612f76576000803373ffffffffffffffffffffffffffffffffffffffff1673ffffffffffffffffffffffffffffffffffffffff168152602001908152602001600020600b0160008273ffffffffffffffffffffffffffffffffffffffff1673ffffffffffffffffffffffffffffffffffffffff1681526020019081526020016000206002016000803373ffffffffffffffffffffffffffffffffffffffff1673ffffffffffffffffffffffffffffffffffffffff1681526020019081526020016000206004016000019080546001816001161561010002031660029004612eb292919061546e565b506000803373ffffffffffffffffffffffffffffffffffffffff1673ffffffffffffffffffffffffffffffffffffffff168152602001908152602001600020600c0160016000803373ffffffffffffffffffffffffffffffffffffffff1673ffffffffffffffffffffffffffffffffffffffff168152602001908152602001600020600c018054905003815481101515612f4857fe5b9060005260206000200160006101000a81549073ffffffffffffffffffffffffffffffffffffffff02191690555b50565b6000806000808573ffffffffffffffffffffffffffffffffffffffff1673ffffffffffffffffffffffffffffffffffffffff16815260200190815260200160002060000160020160008473ffffffffffffffffffffffffffffffffffffffff1673ffffffffffffffffffffffffffffffffffffffff16815260200190815260200160002060000160009054906101000a900460ff166000808673ffffffffffffffffffffffffffffffffffffffff1673ffffffffffffffffffffffffffffffffffffffff16815260200190815260200160002060000160020160008573ffffffffffffffffffffffffffffffffffffffff1673ffffffffffffffffffffffffffffffffffffffff16815260200190815260200160002060020154915091509250929050565b60606000803373ffffffffffffffffffffffffffffffffffffffff1673ffffffffffffffffffffffffffffffffffffffff1681526020019081526020016000206004016000018054600181600116156101000203166002900480601f0160208091040260200160405190810160405280929190818152602001828054600181600116156101000203166002900480156131785780601f1061314d57610100808354040283529160200191613178565b820191906000526020600020905b81548152906001019060200180831161315b57829003601f168201915b5050505050905090565b60606000808373ffffffffffffffffffffffffffffffffffffffff1673ffffffffffffffffffffffffffffffffffffffff168152602001908152602001600020600c0180548060200260200160405190810160405280929190818152602001828054801561324557602002820191906000526020600020905b8160009054906101000a900473ffffffffffffffffffffffffffffffffffffffff1673ffffffffffffffffffffffffffffffffffffffff16815260200190600101908083116131fb575b50505050509050919050565b60008060008473ffffffffffffffffffffffffffffffffffffffff1673ffffffffffffffffffffffffffffffffffffffff168152602001908152602001600020600b0160008373ffffffffffffffffffffffffffffffffffffffff1673ffffffffffffffffffffffffffffffffffffffff16815260200190815260200160002060030154905092915050565b806000803373ffffffffffffffffffffffffffffffffffffffff1673ffffffffffffffffffffffffffffffffffffffff16815260200190815260200160002060000160010160006101000a81548173ffffffffffffffffffffffffffffffffffffffff021916908373ffffffffffffffffffffffffffffffffffffffff160217905550336000803373ffffffffffffffffffffffffffffffffffffffff1673ffffffffffffffffffffffffffffffffffffffff16815260200190815260200160002060000160000160016101000a81548173ffffffffffffffffffffffffffffffffffffffff021916908373ffffffffffffffffffffffffffffffffffffffff16021790555060018060003373ffffffffffffffffffffffffffffffffffffffff1673ffffffffffffffffffffffffffffffffffffffff16815260200190815260200160002060006101000a81548160ff021916908315150217905550600260008273ffffffffffffffffffffffffffffffffffffffff1673ffffffffffffffffffffffffffffffffffffffff1681526020019081526020016000203390806001815401808255809150509060018203906000526020600020016000909192909190916101000a81548173ffffffffffffffffffffffffffffffffffffffff021916908373ffffffffffffffffffffffffffffffffffffffff1602179055505050565b60016000808373ffffffffffffffffffffffffffffffffffffffff1673ffffffffffffffffffffffffffffffffffffffff168152602001908152602001600020600b0160008473ffffffffffffffffffffffffffffffffffffffff1673ffffffffffffffffffffffffffffffffffffffff16815260200190815260200160002060000160000160016101000a81548160ff0219169083151502179055506000808273ffffffffffffffffffffffffffffffffffffffff1673ffffffffffffffffffffffffffffffffffffffff168152602001908152602001600020600b0160008373ffffffffffffffffffffffffffffffffffffffff1673ffffffffffffffffffffffffffffffffffffffff16815260200190815260200160002060000160000160009054906101000a900460ff1680156136a957506000808273ffffffffffffffffffffffffffffffffffffffff1673ffffffffffffffffffffffffffffffffffffffff168152602001908152602001600020600b0160008373ffffffffffffffffffffffffffffffffffffffff1673ffffffffffffffffffffffffffffffffffffffff16815260200190815260200160002060000160000160019054906101000a900460ff165b15613856576000808273ffffffffffffffffffffffffffffffffffffffff1673ffffffffffffffffffffffffffffffffffffffff168152602001908152602001600020600b0160008373ffffffffffffffffffffffffffffffffffffffff1673ffffffffffffffffffffffffffffffffffffffff1681526020019081526020016000206002016000808373ffffffffffffffffffffffffffffffffffffffff1673ffffffffffffffffffffffffffffffffffffffff168152602001908152602001600020600401600001908054600181600116156101000203166002900461379292919061546e565b506000808373ffffffffffffffffffffffffffffffffffffffff1673ffffffffffffffffffffffffffffffffffffffff168152602001908152602001600020600c0160016000808573ffffffffffffffffffffffffffffffffffffffff1673ffffffffffffffffffffffffffffffffffffffff168152602001908152602001600020600c01805490500381548110151561382857fe5b9060005260206000200160006101000a81549073ffffffffffffffffffffffffffffffffffffffff02191690555b5050565b60606000808373ffffffffffffffffffffffffffffffffffffffff1673ffffffffffffffffffffffffffffffffffffffff168152602001908152602001600020600d0180548060200260200160405190810160405280929190818152602001828054801561391d57602002820191906000526020600020905b8160009054906101000a900473ffffffffffffffffffffffffffffffffffffffff1673ffffffffffffffffffffffffffffffffffffffff16815260200190600101908083116138d3575b50505050509050919050565b60606000808473ffffffffffffffffffffffffffffffffffffffff1673ffffffffffffffffffffffffffffffffffffffff168152602001908152602001600020600b0160008373ffffffffffffffffffffffffffffffffffffffff1673ffffffffffffffffffffffffffffffffffffffff1681526020019081526020016000206002018054600181600116156101000203166002900480601f016020809104026020016040519081016040528092919081815260200182805460018160011615610100020316600290048015613a405780601f10613a1557610100808354040283529160200191613a40565b820191906000526020600020905b815481529060010190602001808311613a2357829003601f168201915b5050505050905092915050565b806000803373ffffffffffffffffffffffffffffffffffffffff1673ffffffffffffffffffffffffffffffffffffffff16815260200190815260200160002060000160000160016101000a81548173ffffffffffffffffffffffffffffffffffffffff021916908373ffffffffffffffffffffffffffffffffffffffff160217905550336000803373ffffffffffffffffffffffffffffffffffffffff1673ffffffffffffffffffffffffffffffffffffffff16815260200190815260200160002060000160010160006101000a81548173ffffffffffffffffffffffffffffffffffffffff021916908373ffffffffffffffffffffffffffffffffffffffff16021790555060018060003373ffffffffffffffffffffffffffffffffffffffff1673ffffffffffffffffffffffffffffffffffffffff16815260200190815260200160002060006101000a81548160ff021916908315150217905550600260003373ffffffffffffffffffffffffffffffffffffffff1673ffffffffffffffffffffffffffffffffffffffff1681526020019081526020016000208190806001815401808255809150509060018203906000526020600020016000909192909190916101000a81548173ffffffffffffffffffffffffffffffffffffffff021916908373ffffffffffffffffffffffffffffffffffffffff1602179055505050565b816000808573ffffffffffffffffffffffffffffffffffffffff1673ffffffffffffffffffffffffffffffffffffffff16815260200190815260200160002060040160010160006101000a81548160ff021916908360ff160217905550806000808573ffffffffffffffffffffffffffffffffffffffff1673ffffffffffffffffffffffffffffffffffffffff1681526020019081526020016000206004016002019080519060200190613d059291906153ee565b50505050565b60016000808373ffffffffffffffffffffffffffffffffffffffff1673ffffffffffffffffffffffffffffffffffffffff168152602001908152602001600020600e0160008473ffffffffffffffffffffffffffffffffffffffff1673ffffffffffffffffffffffffffffffffffffffff16815260200190815260200160002060000160006101000a81548160ff0219169083151502179055506000808273ffffffffffffffffffffffffffffffffffffffff1673ffffffffffffffffffffffffffffffffffffffff168152602001908152602001600020600e0160008373ffffffffffffffffffffffffffffffffffffffff1673ffffffffffffffffffffffffffffffffffffffff16815260200190815260200160002060000160019054906101000a900460ff168015613ecb57506000808273ffffffffffffffffffffffffffffffffffffffff1673ffffffffffffffffffffffffffffffffffffffff168152602001908152602001600020600e0160008373ffffffffffffffffffffffffffffffffffffffff1673ffffffffffffffffffffffffffffffffffffffff16815260200190815260200160002060000160009054906101000a900460ff165b15613ff5576000808273ffffffffffffffffffffffffffffffffffffffff1673ffffffffffffffffffffffffffffffffffffffff168152602001908152602001600020600e0160008373ffffffffffffffffffffffffffffffffffffffff1673ffffffffffffffffffffffffffffffffffffffff16815260200190815260200160002060010160009054906101000a900473ffffffffffffffffffffffffffffffffffffffff166000808373ffffffffffffffffffffffffffffffffffffffff1673ffffffffffffffffffffffffffffffffffffffff16815260200190815260200160002060000160000160016101000a81548173ffffffffffffffffffffffffffffffffffffffff021916908373ffffffffffffffffffffffffffffffffffffffff1602179055505b5050565b60016000803373ffffffffffffffffffffffffffffffffffffffff1673ffffffffffffffffffffffffffffffffffffffff168152602001908152602001600020600e0160003373ffffffffffffffffffffffffffffffffffffffff1673ffffffffffffffffffffffffffffffffffffffff16815260200190815260200160002060000160016101000a81548160ff021916908315150217905550806000803373ffffffffffffffffffffffffffffffffffffffff1673ffffffffffffffffffffffffffffffffffffffff168152602001908152602001600020600e0160003373ffffffffffffffffffffffffffffffffffffffff1673ffffffffffffffffffffffffffffffffffffffff16815260200190815260200160002060010160006101000a81548173ffffffffffffffffffffffffffffffffffffffff021916908373ffffffffffffffffffffffffffffffffffffffff1602179055506000803373ffffffffffffffffffffffffffffffffffffffff1673ffffffffffffffffffffffffffffffffffffffff168152602001908152602001600020600d013390806001815401808255809150509060018203906000526020600020016000909192909190916101000a81548173ffffffffffffffffffffffffffffffffffffffff021916908373ffffffffffffffffffffffffffffffffffffffff16021790555050426000803373ffffffffffffffffffffffffffffffffffffffff1673ffffffffffffffffffffffffffffffffffffffff168152602001908152602001600020600e0160003373ffffffffffffffffffffffffffffffffffffffff1673ffffffffffffffffffffffffffffffffffffffff1681526020019081526020016000206002018190555050565b60606000808373ffffffffffffffffffffffffffffffffffffffff1673ffffffffffffffffffffffffffffffffffffffff16815260200190815260200160002060000160030180548060200260200160405190810160405280929190818152602001828054801561434757602002820191906000526020600020905b8160009054906101000a900473ffffffffffffffffffffffffffffffffffffffff1673ffffffffffffffffffffffffffffffffffffffff16815260200190600101908083116142fd575b50505050509050919050565b60606000808373ffffffffffffffffffffffffffffffffffffffff1673ffffffffffffffffffffffffffffffffffffffff16815260200190815260200160002060110180548060200260200160405190810160405280929190818152602001828054801561441657602002820191906000526020600020905b8160009054906101000a900473ffffffffffffffffffffffffffffffffffffffff1673ffffffffffffffffffffffffffffffffffffffff16815260200190600101908083116143cc575b50505050509050919050565b600360009054906101000a900473ffffffffffffffffffffffffffffffffffffffff1681565b6040805190810160405280600981526020017f48484848484841414800000000000000000000000000000000000000000000008152506000803373ffffffffffffffffffffffffffffffffffffffff1673ffffffffffffffffffffffffffffffffffffffff16815260200190815260200160002060040160000190805190602001906144d59291906153ee565b50565b846000808573ffffffffffffffffffffffffffffffffffffffff1673ffffffffffffffffffffffffffffffffffffffff16815260200190815260200160002060070160000190805190602001906145309291906153ee565b50836000808573ffffffffffffffffffffffffffffffffffffffff1673ffffffffffffffffffffffffffffffffffffffff16815260200190815260200160002060070160010190805190602001906145899291906153ee565b50816000808573ffffffffffffffffffffffffffffffffffffffff1673ffffffffffffffffffffffffffffffffffffffff16815260200190815260200160002060070160030190805190602001906145e29291906153ee565b50806000808573ffffffffffffffffffffffffffffffffffffffff1673ffffffffffffffffffffffffffffffffffffffff168152602001908152602001600020600701600201908051906020019061463b9291906153ee565b505050505050565b816000808573ffffffffffffffffffffffffffffffffffffffff1673ffffffffffffffffffffffffffffffffffffffff168152602001908152602001600020600f0160003373ffffffffffffffffffffffffffffffffffffffff1673ffffffffffffffffffffffffffffffffffffffff16815260200190815260200160002060020160006101000a81548160ff0219169083151502179055508060ff166000808573ffffffffffffffffffffffffffffffffffffffff1673ffffffffffffffffffffffffffffffffffffffff168152602001908152602001600020600f0160003373ffffffffffffffffffffffffffffffffffffffff1673ffffffffffffffffffffffffffffffffffffffff168152602001908152602001600020600101819055506000808473ffffffffffffffffffffffffffffffffffffffff1673ffffffffffffffffffffffffffffffffffffffff1681526020019081526020016000206010013390806001815401808255809150509060018203906000526020600020016000909192909190916101000a81548173ffffffffffffffffffffffffffffffffffffffff021916908373ffffffffffffffffffffffffffffffffffffffff16021790555050505050565b6060600260008373ffffffffffffffffffffffffffffffffffffffff1673ffffffffffffffffffffffffffffffffffffffff1681526020019081526020016000208054806020026020016040519081016040528092919081815260200182805480156148d057602002820191906000526020600020905b8160009054906101000a900473ffffffffffffffffffffffffffffffffffffffff1673ffffffffffffffffffffffffffffffffffffffff1681526020019060010190808311614886575b50505050509050919050565b60606000808373ffffffffffffffffffffffffffffffffffffffff1673ffffffffffffffffffffffffffffffffffffffff168152602001908152602001600020600c0180548060200260200160405190810160405280929190818152602001828054801561499f57602002820191906000526020600020905b8160009054906101000a900473ffffffffffffffffffffffffffffffffffffffff1673ffffffffffffffffffffffffffffffffffffffff1681526020019060010190808311614955575b50505050509050919050565b600060606000808473ffffffffffffffffffffffffffffffffffffffff1673ffffffffffffffffffffffffffffffffffffffff168152602001908152602001600020600001600301805480602002602001604051908101604052809291908181526020018280548015614a7357602002820191906000526020600020905b8160009054906101000a900473ffffffffffffffffffffffffffffffffffffffff1673ffffffffffffffffffffffffffffffffffffffff1681526020019060010190808311614a29575b50505050509050600080905060008090505b8251811015614aeb578281815181101515614a9c57fe5b9060200190602002015173ffffffffffffffffffffffffffffffffffffffff163373ffffffffffffffffffffffffffffffffffffffff161415614ade57600191505b8080600101915050614a85565b508092505050919050565b60606000808373ffffffffffffffffffffffffffffffffffffffff1673ffffffffffffffffffffffffffffffffffffffff168152602001908152602001600020601001805480602002602001604051908101604052809291908181526020018280548015614bb957602002820191906000526020600020905b8160009054906101000a900473ffffffffffffffffffffffffffffffffffffffff1673ffffffffffffffffffffffffffffffffffffffff1681526020019060010190808311614b6f575b50505050509050919050565b60016000803373ffffffffffffffffffffffffffffffffffffffff1673ffffffffffffffffffffffffffffffffffffffff168152602001908152602001600020600e0160003373ffffffffffffffffffffffffffffffffffffffff1673ffffffffffffffffffffffffffffffffffffffff16815260200190815260200160002060000160006101000a81548160ff021916908315150217905550806000803373ffffffffffffffffffffffffffffffffffffffff1673ffffffffffffffffffffffffffffffffffffffff168152602001908152602001600020600e0160003373ffffffffffffffffffffffffffffffffffffffff1673ffffffffffffffffffffffffffffffffffffffff16815260200190815260200160002060010160006101000a81548173ffffffffffffffffffffffffffffffffffffffff021916908373ffffffffffffffffffffffffffffffffffffffff1602179055506000803373ffffffffffffffffffffffffffffffffffffffff1673ffffffffffffffffffffffffffffffffffffffff168152602001908152602001600020600d013390806001815401808255809150509060018203906000526020600020016000909192909190916101000a81548173ffffffffffffffffffffffffffffffffffffffff021916908373ffffffffffffffffffffffffffffffffffffffff16021790555050426000803373ffffffffffffffffffffffffffffffffffffffff1673ffffffffffffffffffffffffffffffffffffffff168152602001908152602001600020600e0160003373ffffffffffffffffffffffffffffffffffffffff1673ffffffffffffffffffffffffffffffffffffffff1681526020019081526020016000206002018190555050565b60008060008473ffffffffffffffffffffffffffffffffffffffff1673ffffffffffffffffffffffffffffffffffffffff168152602001908152602001600020600e0160008373ffffffffffffffffffffffffffffffffffffffff1673ffffffffffffffffffffffffffffffffffffffff16815260200190815260200160002060020154905092915050565b60016000808373ffffffffffffffffffffffffffffffffffffffff1673ffffffffffffffffffffffffffffffffffffffff168152602001908152602001600020600e0160008473ffffffffffffffffffffffffffffffffffffffff1673ffffffffffffffffffffffffffffffffffffffff16815260200190815260200160002060000160006101000a81548160ff0219169083151502179055506000808273ffffffffffffffffffffffffffffffffffffffff1673ffffffffffffffffffffffffffffffffffffffff168152602001908152602001600020600e0160008373ffffffffffffffffffffffffffffffffffffffff1673ffffffffffffffffffffffffffffffffffffffff16815260200190815260200160002060000160019054906101000a900460ff16801561509957506000808273ffffffffffffffffffffffffffffffffffffffff1673ffffffffffffffffffffffffffffffffffffffff168152602001908152602001600020600e0160008373ffffffffffffffffffffffffffffffffffffffff1673ffffffffffffffffffffffffffffffffffffffff16815260200190815260200160002060000160009054906101000a900460ff165b156151c3576000808273ffffffffffffffffffffffffffffffffffffffff1673ffffffffffffffffffffffffffffffffffffffff168152602001908152602001600020600e0160008373ffffffffffffffffffffffffffffffffffffffff1673ffffffffffffffffffffffffffffffffffffffff16815260200190815260200160002060000160029054906101000a900473ffffffffffffffffffffffffffffffffffffffff166000808373ffffffffffffffffffffffffffffffffffffffff1673ffffffffffffffffffffffffffffffffffffffff16815260200190815260200160002060000160010160006101000a81548173ffffffffffffffffffffffffffffffffffffffff021916908373ffffffffffffffffffffffffffffffffffffffff1602179055505b5050565b6000806000808473ffffffffffffffffffffffffffffffffffffffff1673ffffffffffffffffffffffffffffffffffffffff16815260200190815260200160002060000160000160019054906101000a900473ffffffffffffffffffffffffffffffffffffffff166000808573ffffffffffffffffffffffffffffffffffffffff1673ffffffffffffffffffffffffffffffffffffffff16815260200190815260200160002060000160010160009054906101000a900473ffffffffffffffffffffffffffffffffffffffff1691509150915091565b6000808373ffffffffffffffffffffffffffffffffffffffff1673ffffffffffffffffffffffffffffffffffffffff1681526020019081526020016000206000016003018190806001815401808255809150509060018203906000526020600020016000909192909190916101000a81548173ffffffffffffffffffffffffffffffffffffffff021916908373ffffffffffffffffffffffffffffffffffffffff160217905550506000808273ffffffffffffffffffffffffffffffffffffffff1673ffffffffffffffffffffffffffffffffffffffff1681526020019081526020016000206011018290806001815401808255809150509060018203906000526020600020016000909192909190916101000a81548173ffffffffffffffffffffffffffffffffffffffff021916908373ffffffffffffffffffffffffffffffffffffffff160217905550505050565b828054600181600116156101000203166002900490600052602060002090601f016020900481019282601f1061542f57805160ff191683800117855561545d565b8280016001018555821561545d579182015b8281111561545c578251825591602001919060010190615441565b5b50905061546a91906154f5565b5090565b828054600181600116156101000203166002900490600052602060002090601f016020900481019282601f106154a757805485556154e4565b828001600101855582156154e457600052602060002091601f016020900482015b828111156154e35782548255916001019190600101906154c8565b5b5090506154f191906154f5565b5090565b61551791905b808211156155135760008160009055506001016154fb565b5090565b9056fea165627a7a72305820442fddbf9f132009244d14f0bb0c7a4b3f9dcf3856beac7db9214838124dad390029",
  "source": "pragma solidity 0.5.0;\ncontract SimpleStorage {\n    \n\nstruct Documents  {\n string  aadhar;\n\n    \n uint8 aadharno;\nstring aadharnoHash;\n\n    \n}\n\nstruct PersonalInfo {\nstring name;\nstring propic;\nstring email;\nstring phone;\n    \n}\n\nstruct Owners{\nuint8 max;\naddress stud;\naddress inst;\n\nmapping(address=>PartialOwner) partialowner;\naddress[] listofpartialowner;\n\n\n\n}\n\nstruct Request {\n    \nbool stud;\nbool inst;\nbool aadhar;\n\n\n} \n\nstruct ApprovalRequest{\n bool stud;\n bool inst;\n \n \n}\n\nstruct ChangeOwnerShip{\n bool stud;\n bool inst;\n address studa;\n address insta;\n \n \n ApprovalRequest approve;\n\n}\n\n\n\n\nstruct ChangeOwnerShipInst{\n    \nbool inst ;\nbool stud;\naddress neinst;\naddress nestud;\n\nuint timestamp;\n\n    \n    \n}\n\n\n\n\n\n\nstruct Upload {\n\n ApprovalRequest approve;\n bool aadhar;\n string aadharhash;\n uint timestamp;\n}\n\n\n\n\nstruct PartialOwner{\n    \nbool aadhar;\nuint day;\nuint expiry;\n\n\n    \n}\n\n\nstruct PartialOwnerRequest\n{\nApprovalRequest approve;\nuint256 day;\nbool aadhar;\n\n\n}\n\n\n\nstruct MultiSig {\n    \n    \nOwners owners;\nDocuments doc;\nPersonalInfo profile;\n\n\n//Upload\n\n\nmapping(address=>Upload) uploadreq;\naddress[] listofuploadreq;\n\n\n\n//ChangeOwnerShip\n\n\n\n\naddress[] listofchangeowneri;\n\n\n\nmapping(address=>ChangeOwnerShipInst) changeowneri;\n\n\n\nmapping(address=>PartialOwnerRequest) partialowner;\n\naddress[] listofpartialowner;\n\n\naddress [] ihaveaccess;\n\n\n\n    \n}\n\n\n\n\n\n\n\n\n\n\n\n/////////////////////////////////////////////////////////////////////////////////\nmapping(address=>MultiSig) wallets;\nmapping(address=>bool) listofwall;\nmapping (address=>address[] )  iminwall;\n\n\naddress public j;\n\n\n\n\n\n\nfunction createNewMultiSigUser(address a) public {\nwallets[msg.sender].owners.inst=a;\nwallets[msg.sender].owners.stud=msg.sender;\nlistofwall[msg.sender]=true;\n\niminwall[a].push(msg.sender);\n\n\n\n\n\n}\n\n\nconstructor ()public {\n    \n}\n\nfunction createNewMultiSigInst(address a) public {\nwallets[msg.sender].owners.stud=a;\nwallets[msg.sender].owners.inst=msg.sender;\nlistofwall[msg.sender]=true;\niminwall[msg.sender].push(a);\n\n    \n}\n\nfunction doesWalletExists(address a)public view returns (bool){\nif(listofwall[a]==true) \nreturn true;\nelse return false;\n}\n\n\nfunction createUploadRequestbyUser(bool ad,string memory hash)public{\n    \n    \n    \nwallets[msg.sender].uploadreq[msg.sender].approve.stud=true;\nwallets[msg.sender].uploadreq[msg.sender].approve.inst=false;\nwallets[msg.sender].uploadreq[msg.sender].aadhar=ad;\nwallets[msg.sender].uploadreq[msg.sender].aadharhash=hash;\nwallets[msg.sender].listofuploadreq.push(msg.sender);\nwallets[msg.sender].uploadreq[msg.sender].timestamp=now;\n\n\n    \n}\n\n\nfunction createUploadRequestbyInstitute(address a,bool ad,string memory hash)public{\nwallets[a].uploadreq[a].approve.inst=true;\nwallets[a].uploadreq[a].approve.stud=false;\nwallets[a].uploadreq[a].aadhar=ad;\nwallets[a].uploadreq[a].timestamp=now;\nwallets[a].uploadreq[a].aadharhash=hash;\nwallets[a].listofuploadreq.push(msg.sender);\n\n\nwallets[a].doc.aadhar=hash;\n\n\n\n\n}\n\n\nfunction getUploadReqList(address ad)public view returns (address[] memory){\nreturn wallets[ad].listofuploadreq;\n\n}\n\n\nfunction approveUploadbyUser(address ad) public{\n \nwallets[msg.sender].uploadreq[ad].approve.stud=true;\nif(wallets[msg.sender].uploadreq[ad].approve.stud&&wallets[msg.sender].uploadreq[ad].approve.inst)\n{\nwallets[msg.sender].doc.aadhar=wallets[msg.sender].uploadreq[ad].aadharhash;\ndelete wallets[msg.sender].listofuploadreq[wallets[msg.sender].listofuploadreq.length-1];\n\n}\n}\n\n\nfunction approveUploadbyInstitute(address ad ,address student)public{\n    \nwallets[student].uploadreq[ad].approve.inst=true;\nif(wallets[student].uploadreq[ad].approve.stud&&wallets[student].uploadreq[ad].approve.inst)\n{\nwallets[student].doc.aadhar=wallets[student].uploadreq[ad].aadharhash;\n\ndelete wallets[ad].listofuploadreq[wallets[ad].listofuploadreq.length-1];\n\n}\n\n\n}\n\n\nfunction getAadhar ()public view returns(string memory ){\nreturn wallets[msg.sender].doc.aadhar;\n\n    \n}\n\n\nfunction getOwners(address a)public view returns(address ,address){\n     return (wallets[a].owners.stud,wallets[a].owners.inst);\n\n}\n\nfunction getInstitutesWallet(address ad) public view returns(address[] memory){\n   \n     return iminwall[ad];\n   \n}\n\nfunction getInstitutesUploadList(address ad) public view returns(address[] memory){\nreturn wallets[ad].listofuploadreq;\n}\n\n\n\n\n function changeOwnerInstfromInst(address stud,address Inst)  public {\n     \nwallets[stud].changeowneri[msg.sender].inst=true;\nwallets[stud].changeowneri[msg.sender].neinst=Inst;\nwallets[stud].listofchangeowneri.push(msg.sender);\nwallets[stud].changeowneri[msg.sender].timestamp=now;\n\n\n }\n \n \n \n function changeOwnerInstfromStud(address Inst)  public {\n     \nwallets[msg.sender].changeowneri[msg.sender].stud=true;\nwallets[msg.sender].changeowneri[msg.sender].neinst=Inst;\nwallets[msg.sender].listofchangeowneri.push(msg.sender);\n\nwallets[msg.sender].changeowneri[msg.sender].timestamp=now;\n\n\n }\n \nfunction changeOwnerStudfromStud (address ad)public{\n    \n    wallets[msg.sender].changeowneri[msg.sender].stud=true;\n    wallets[msg.sender].changeowneri[msg.sender].nestud=ad;\n    wallets[msg.sender].listofchangeowneri.push(msg.sender);\n    wallets[msg.sender].changeowneri[msg.sender].timestamp=now;\n    \n    \n\n }\n \n\n\nfunction changeOwnerStudfromInst (address ad) public {\n    \n\nwallets[msg.sender].changeowneri[msg.sender].inst=true;\n\nwallets[msg.sender].changeowneri[msg.sender].nestud=ad;\n\nwallets[msg.sender].listofchangeowneri.push(msg.sender);\n\nwallets[msg.sender].changeowneri[msg.sender].timestamp=now;\n\n\n\n\n    \n} \n\n\n\n\n\n\n\n\n\n\n\n\n\nfunction getChangeOwnerList(address a)public view returns(address[] memory)\n {\n     return wallets[a].listofchangeowneri;\n     \n     \n }\n\n\n\n\nfunction updateProf (string memory name,string memory pro,address  my,string memory no,string memory email) public\n{\n    \nwallets[my].profile.name=name;\nwallets[my].profile.propic=pro;\nwallets[my].profile.phone=no;\nwallets[my].profile.email=email;\n\n\n}\n\n\n\nfunction getProfile(address  a) public view returns (string memory,string memory){\n   \n return (wallets[a].profile.name,wallets[a].profile.propic);\n    \n    \n}\n\n\nfunction approveChangeOwnerINSTReqbyStud(address ad)public{\nwallets[msg.sender].changeowneri[ad].stud=true;\nif(wallets[msg.sender].changeowneri[ad].stud&&wallets[msg.sender].changeowneri[ad].inst)\n{\nwallets[msg.sender].owners.inst=wallets[msg.sender].changeowneri[ad].neinst;\n\n}\n    \n}\n\n\n\nfunction approveChangeOwnerINSTReqbyInst(address ad,address io)public{\nwallets[io].changeowneri[ad].inst=true;\nif(wallets[io].changeowneri[ad].stud&&wallets[io].changeowneri[ad].inst)\n{\nwallets[io].owners.inst=wallets[io].changeowneri[ad].neinst;\n\n}\n    \n}\n\n\n\n\nfunction approveChangeOwnerSTUDReqbyInst(address ad,address io)public{\nwallets[io].changeowneri[ad].inst=true;\n\nif(wallets[io].changeowneri[ad].stud&&wallets[io].changeowneri[ad].inst)\n{\nwallets[io].owners.stud=wallets[io].changeowneri[ad].nestud;\n\n}\n    \n}\n\n\n\nfunction approveChangeOwnerSTUDReqbyStud(address ad,address io)public{\nwallets[io].changeowneri[ad].stud=true;\nif(wallets[io].changeowneri[ad].stud&&wallets[io].changeowneri[ad].inst)\n{\nwallets[io].owners.stud=wallets[io].changeowneri[ad].nestud;\n\n}\n    \n}\n\n\nfunction createNewPartialOwnerRequest(address a,bool adhar,uint8 d)public\n{\n    \n    \n    \n    wallets[a].partialowner[msg.sender].aadhar=adhar;\n    wallets[a].partialowner[msg.sender].day=d;\n    wallets[a].listofpartialowner.push(msg.sender);\n    \n    \n    \n    \n}\n\nfunction getPartialOwnerShipList(address a) public view returns (address [] memory){\n    \n    \n     return wallets[a].listofpartialowner;\n\n}\n\n\n\n\n\n// function approvePartialOwnerReqfromStudent (address reqq) public {\n   \n// wallets[msg.sender].partialowner[reqq].approve.stud=true;\n    \n// if( wallets[msg.sender].partialowner[reqq].approve.stud==true&& wallets[msg.sender].partialowner[reqq].approve.inst==true)\n//     {\n//         wallets[msg.sender].owners.partialowner[msg.sender].aadhar=wallets[msg.sender].partialowner[reqq].aadhar;\n        \n//         wallets[msg.sender].owners.partialowner[msg.sender].expiry=now+ wallets[msg.sender].owners.partialowner[msg.sender].day * 1 minutes;\n//         wallets[msg.sender].owners.listofpartialowner.push(reqq);\n\n//     }\n    \n    \n// }\n\n\n// function approvePartialOwnerReqfromInst (address stud ,address reqq) public {\n    \n    \n      \n    \n//     wallets[stud].partialowner[reqq].approve.inst=true;\n     \n//       wallets[stud].partialowner[reqq].approve.stud=true;\n\n\n\n//          if( wallets[stud].partialowner[reqq].approve.stud==true&& wallets[stud].partialowner[reqq].approve.inst==true)\n//       {\n\n//     wallets[stud].owners.partialowner[reqq].aadhar=wallets[stud].partialowner[reqq].aadhar;\n   \n//   uint yuyu= wallets[stud].owners.partialowner[reqq].day ;\n   \n//     wallets[stud].owners.partialowner[reqq].expiry=now+ yuyu *1 minutes;\n//     wallets[stud].owners.listofpartialowner.push(reqq);\n\n//           }\n        \n        \n        \n\n// }\n\n\n\n// function getAadharfromPartialOwner(address  a) public view returns (string memory){\n    \n// address [] memory va=wallets[a].owners.listofpartialowner;\n// bool flag =false;\n// for(uint i=0;i<va.length;i++){\n// if(msg.sender==va[i])\n// {\n//  flag=true;\n \n \n    \n// }\n    \n// }\n\n\n\n\n// if(flag==true){\n    \n    \n    \n//     if(wallets[a].owners.partialowner[msg.sender].aadhar==true){\n        \n        \n//         if(wallets[a].owners.partialowner[msg.sender].day<now)\n//          {\n             \n//              return wallets[a].doc.aadhar;\n             \n//           }\n//          else {\n//              return \"Date Expired\";\n//          }\n        \n//     }else {\n        \n//         return \"error\";\n//     }\n        \n//     }else {\n//         return  \"a\";\n//     }\n    \n// }\n\n\n\nfunction isIamPartialOwner (address a)public  view returns (bool){\n    address [] memory va=wallets[a].owners.listofpartialowner;\nbool flag =false;\nfor(uint i=0;i<va.length;i++){\nif(msg.sender==va[i])\n{\n flag=true;\n \n \n    \n}\n    \n}\n\nreturn flag;\n    \n    \n}\n\n\nfunction getPartialOwnerSList(address a) public view returns (address[] memory) {\n    return wallets[a].owners.listofpartialowner;\n    \n}\n\nfunction set() public {\n    \n    \nwallets[msg.sender].doc.aadhar=\"HHHHHHAAH\";\n\n    \n}\n\n\n\n\n\n\n\n\nfunction getPartialOwnerShipINFO(address stud ,address paro)public view returns (bool ,uint ) {\n  //it returns the expiry date and whether the It Has Request to aadhar or NOt  \nreturn (wallets[stud].owners.partialowner[paro].aadhar, wallets[stud].owners.partialowner[paro].expiry);    \n    \n    \n}\n\n\n\nfunction getUploadRequestTIMESTAMP(address stud,address reqq) public view returns(uint){\n    \nreturn wallets[stud].uploadreq[reqq].timestamp;\n\n\n    \n}\n\n\nfunction getChangeOwnerRequestTIMESTAMP(address stud,address reqq) public view returns(uint){\n    \nreturn wallets[stud].changeowneri[reqq].timestamp;\n\n    \n}\n\n\n\n\n\nfunction setAaadharNo (address a,uint8 qw,string memory io) public  {\nwallets[a].doc.aadharno=qw;\nwallets[a].doc.aadharnoHash=io;\n\n    \n    \n}\n\n\n\nfunction createNEwAccess (address stud ,address ad) public {\n\n\nwallets[stud].owners.listofpartialowner.push(ad);\n\nwallets[ad].ihaveaccess.push(stud);\n\n\n}\n\n\n\n\nfunction getIhaveaAccess(address  a)public view returns (address[] memory){\n    \n    \n    \nreturn wallets[a].ihaveaccess;\n\n   \n}\n\n\n\nfunction getUplaodReqPic(address stud,address inst) public view returns (string memory)\n{\n    \n    \n    return wallets[stud].uploadreq[inst].aadharhash;\n\n    \n    }\n\n\n\n\n\n\n}\n\n",
  "sourcePath": "/home/stanleeniko/sih/contracts/SimpleStorage.sol",
  "compiler": {
    "name": "solc",
    "version": "0.5.0+commit.1d4f565a.Emscripten.clang"
  },
  "schemaVersion": "3.0.2",
  "updatedAt": "2019-03-02T10:57:03.926Z",
  "devdoc": {
    "methods": {}
  },
  "userdoc": {
    "methods": {}
  }
}