{
  "contractName": "SimpleStorage",
  "abi": [
    {
      "constant": true,
      "inputs": [],
      "name": "j",
      "outputs": [
        {
          "name": "",
          "type": "address"
        }
      ],
      "payable": false,
      "stateMutability": "view",
      "type": "function",
      "signature": "0xb582ec5f"
    },
    {
      "inputs": [],
      "payable": false,
      "stateMutability": "nonpayable",
      "type": "constructor",
      "signature": "constructor"
    },
    {
      "constant": false,
      "inputs": [
        {
          "name": "a",
          "type": "address"
        }
      ],
      "name": "createNewMultiSigUser",
      "outputs": [],
      "payable": false,
      "stateMutability": "nonpayable",
      "type": "function",
      "signature": "0x67ddb864"
    },
    {
      "constant": false,
      "inputs": [
        {
          "name": "a",
          "type": "address"
        }
      ],
      "name": "createNewMultiSigInst",
      "outputs": [],
      "payable": false,
      "stateMutability": "nonpayable",
      "type": "function",
      "signature": "0x84320a3f"
    },
    {
      "constant": true,
      "inputs": [
        {
          "name": "a",
          "type": "address"
        }
      ],
      "name": "doesWalletExists",
      "outputs": [
        {
          "name": "",
          "type": "bool"
        }
      ],
      "payable": false,
      "stateMutability": "view",
      "type": "function",
      "signature": "0x33b62877"
    },
    {
      "constant": false,
      "inputs": [
        {
          "name": "ad",
          "type": "bool"
        },
        {
          "name": "hash",
          "type": "string"
        }
      ],
      "name": "createUploadRequestbyUser",
      "outputs": [],
      "payable": false,
      "stateMutability": "nonpayable",
      "type": "function",
      "signature": "0x20a38c5f"
    },
    {
      "constant": false,
      "inputs": [
        {
          "name": "a",
          "type": "address"
        },
        {
          "name": "ad",
          "type": "bool"
        },
        {
          "name": "hash",
          "type": "string"
        }
      ],
      "name": "createUploadRequestbyInstitute",
      "outputs": [],
      "payable": false,
      "stateMutability": "nonpayable",
      "type": "function",
      "signature": "0x2aebaf40"
    },
    {
      "constant": true,
      "inputs": [
        {
          "name": "ad",
          "type": "address"
        }
      ],
      "name": "getUploadReqList",
      "outputs": [
        {
          "name": "",
          "type": "address[]"
        }
      ],
      "payable": false,
      "stateMutability": "view",
      "type": "function",
      "signature": "0xd88997f7"
    },
    {
      "constant": false,
      "inputs": [
        {
          "name": "ad",
          "type": "address"
        }
      ],
      "name": "approveUploadbyUser",
      "outputs": [],
      "payable": false,
      "stateMutability": "nonpayable",
      "type": "function",
      "signature": "0x3b2b0d34"
    },
    {
      "constant": false,
      "inputs": [
        {
          "name": "ad",
          "type": "address"
        },
        {
          "name": "student",
          "type": "address"
        }
      ],
      "name": "approveUploadbyInstitute",
      "outputs": [],
      "payable": false,
      "stateMutability": "nonpayable",
      "type": "function",
      "signature": "0x6b061c24"
    },
    {
      "constant": true,
      "inputs": [
        {
          "name": "stud",
          "type": "address"
        }
      ],
      "name": "getAadhar",
      "outputs": [
        {
          "name": "",
          "type": "string"
        }
      ],
      "payable": false,
      "stateMutability": "view",
      "type": "function",
      "signature": "0x67fa04cb"
    },
    {
      "constant": true,
      "inputs": [
        {
          "name": "a",
          "type": "address"
        }
      ],
      "name": "getOwners",
      "outputs": [
        {
          "name": "",
          "type": "address"
        },
        {
          "name": "",
          "type": "address"
        }
      ],
      "payable": false,
      "stateMutability": "view",
      "type": "function",
      "signature": "0xfd8b84b1"
    },
    {
      "constant": true,
      "inputs": [
        {
          "name": "ad",
          "type": "address"
        }
      ],
      "name": "getInstitutesWallet",
      "outputs": [
        {
          "name": "",
          "type": "address[]"
        }
      ],
      "payable": false,
      "stateMutability": "view",
      "type": "function",
      "signature": "0xd5808aa0"
    },
    {
      "constant": true,
      "inputs": [
        {
          "name": "ad",
          "type": "address"
        }
      ],
      "name": "getInstitutesUploadList",
      "outputs": [
        {
          "name": "",
          "type": "address[]"
        }
      ],
      "payable": false,
      "stateMutability": "view",
      "type": "function",
      "signature": "0x65e69686"
    },
    {
      "constant": false,
      "inputs": [
        {
          "name": "stud",
          "type": "address"
        },
        {
          "name": "Inst",
          "type": "address"
        }
      ],
      "name": "changeOwnerInstfromInst",
      "outputs": [],
      "payable": false,
      "stateMutability": "nonpayable",
      "type": "function",
      "signature": "0x1dbcc031"
    },
    {
      "constant": false,
      "inputs": [
        {
          "name": "Inst",
          "type": "address"
        }
      ],
      "name": "changeOwnerInstfromStud",
      "outputs": [],
      "payable": false,
      "stateMutability": "nonpayable",
      "type": "function",
      "signature": "0x32584da9"
    },
    {
      "constant": true,
      "inputs": [
        {
          "name": "a",
          "type": "address"
        }
      ],
      "name": "getChangeOwnerList",
      "outputs": [
        {
          "name": "",
          "type": "address[]"
        }
      ],
      "payable": false,
      "stateMutability": "view",
      "type": "function",
      "signature": "0x7a17dab5"
    },
    {
      "constant": false,
      "inputs": [
        {
          "name": "name",
          "type": "string"
        },
        {
          "name": "pro",
          "type": "string"
        },
        {
          "name": "my",
          "type": "address"
        },
        {
          "name": "no",
          "type": "string"
        },
        {
          "name": "email",
          "type": "string"
        }
      ],
      "name": "updateProf",
      "outputs": [],
      "payable": false,
      "stateMutability": "nonpayable",
      "type": "function",
      "signature": "0xc1b14dcb"
    },
    {
      "constant": true,
      "inputs": [
        {
          "name": "a",
          "type": "address"
        }
      ],
      "name": "getProfile",
      "outputs": [
        {
          "name": "",
          "type": "string"
        },
        {
          "name": "",
          "type": "string"
        }
      ],
      "payable": false,
      "stateMutability": "view",
      "type": "function",
      "signature": "0x0f53a470"
    },
    {
      "constant": false,
      "inputs": [
        {
          "name": "ad",
          "type": "address"
        }
      ],
      "name": "approveChangeOwnerINSTReqbyStud",
      "outputs": [],
      "payable": false,
      "stateMutability": "nonpayable",
      "type": "function",
      "signature": "0x0e8ab506"
    },
    {
      "constant": false,
      "inputs": [
        {
          "name": "ad",
          "type": "address"
        },
        {
          "name": "io",
          "type": "address"
        }
      ],
      "name": "approveChangeOwnerINSTReqbyInst",
      "outputs": [],
      "payable": false,
      "stateMutability": "nonpayable",
      "type": "function",
      "signature": "0xfb9e0ac9"
    },
    {
      "constant": false,
      "inputs": [
        {
          "name": "a",
          "type": "address"
        },
        {
          "name": "adhar",
          "type": "bool"
        },
        {
          "name": "d",
          "type": "uint8"
        }
      ],
      "name": "createNewPartialOwnerRequest",
      "outputs": [],
      "payable": false,
      "stateMutability": "nonpayable",
      "type": "function",
      "signature": "0xcdb2b1f1"
    },
    {
      "constant": true,
      "inputs": [
        {
          "name": "a",
          "type": "address"
        }
      ],
      "name": "getPartialOwnerShipList",
      "outputs": [
        {
          "name": "",
          "type": "address[]"
        }
      ],
      "payable": false,
      "stateMutability": "view",
      "type": "function",
      "signature": "0xf9cdf62b"
    },
    {
      "constant": true,
      "inputs": [
        {
          "name": "a",
          "type": "address"
        }
      ],
      "name": "isIamPartialOwner",
      "outputs": [
        {
          "name": "",
          "type": "bool"
        }
      ],
      "payable": false,
      "stateMutability": "view",
      "type": "function",
      "signature": "0xe5f91f71"
    },
    {
      "constant": true,
      "inputs": [
        {
          "name": "a",
          "type": "address"
        }
      ],
      "name": "getPartialOwnerSList",
      "outputs": [
        {
          "name": "",
          "type": "address[]"
        }
      ],
      "payable": false,
      "stateMutability": "view",
      "type": "function",
      "signature": "0x989bb9ff"
    },
    {
      "constant": false,
      "inputs": [],
      "name": "set",
      "outputs": [],
      "payable": false,
      "stateMutability": "nonpayable",
      "type": "function",
      "signature": "0xb8e010de"
    },
    {
      "constant": true,
      "inputs": [
        {
          "name": "stud",
          "type": "address"
        },
        {
          "name": "paro",
          "type": "address"
        }
      ],
      "name": "getPartialOwnerShipINFO",
      "outputs": [
        {
          "name": "",
          "type": "bool"
        },
        {
          "name": "",
          "type": "uint256"
        }
      ],
      "payable": false,
      "stateMutability": "view",
      "type": "function",
      "signature": "0x47e4ab25"
    },
    {
      "constant": true,
      "inputs": [
        {
          "name": "stud",
          "type": "address"
        },
        {
          "name": "reqq",
          "type": "address"
        }
      ],
      "name": "getUploadRequestTIMESTAMP",
      "outputs": [
        {
          "name": "",
          "type": "uint256"
        }
      ],
      "payable": false,
      "stateMutability": "view",
      "type": "function",
      "signature": "0x679a6f79"
    },
    {
      "constant": true,
      "inputs": [
        {
          "name": "stud",
          "type": "address"
        },
        {
          "name": "reqq",
          "type": "address"
        }
      ],
      "name": "getChangeOwnerRequestTIMESTAMP",
      "outputs": [
        {
          "name": "",
          "type": "uint256"
        }
      ],
      "payable": false,
      "stateMutability": "view",
      "type": "function",
      "signature": "0xfa271d80"
    },
    {
      "constant": false,
      "inputs": [
        {
          "name": "a",
          "type": "address"
        },
        {
          "name": "qw",
          "type": "uint8"
        },
        {
          "name": "io",
          "type": "string"
        }
      ],
      "name": "setAaadharNo",
      "outputs": [],
      "payable": false,
      "stateMutability": "nonpayable",
      "type": "function",
      "signature": "0x88839eb1"
    },
    {
      "constant": false,
      "inputs": [
        {
          "name": "stud",
          "type": "address"
        },
        {
          "name": "ad",
          "type": "address"
        }
      ],
      "name": "createNEwAccess",
      "outputs": [],
      "payable": false,
      "stateMutability": "nonpayable",
      "type": "function",
      "signature": "0xfe2dc83c"
    },
    {
      "constant": true,
      "inputs": [
        {
          "name": "a",
          "type": "address"
        }
      ],
      "name": "getIhaveaAccess",
      "outputs": [
        {
          "name": "",
          "type": "address[]"
        }
      ],
      "payable": false,
      "stateMutability": "view",
      "type": "function",
      "signature": "0xb533c202"
    },
    {
      "constant": true,
      "inputs": [
        {
          "name": "stud",
          "type": "address"
        },
        {
          "name": "inst",
          "type": "address"
        }
      ],
      "name": "getUplaodReqPic",
      "outputs": [
        {
          "name": "",
          "type": "string"
        }
      ],
      "payable": false,
      "stateMutability": "view",
      "type": "function",
      "signature": "0x7bbba8f9"
    },
    {
      "constant": true,
      "inputs": [
        {
          "name": "a",
          "type": "address"
        }
      ],
      "name": "getPastOwner",
      "outputs": [
        {
          "name": "",
          "type": "address[]"
        }
      ],
      "payable": false,
      "stateMutability": "view",
      "type": "function",
      "signature": "0x6d30a0be"
    }
  ],
  "bytecode": "0x608060405234801561001057600080fd5b50614cc9806100206000396000f3fe6080604052600436106101a1576000357c0100000000000000000000000000000000000000000000000000000000900463ffffffff1680630e8ab506146101a65780630f53a470146101f75780631dbcc0311461032d57806320a38c5f1461039e5780632aebaf401461047257806332584da91461056657806333b62877146105b75780633b2b0d341461062057806347e4ab251461067157806365e6968614610701578063679a6f79146107a757806367ddb8641461082c57806367fa04cb1461087d5780636b061c24146109475780636d30a0be146109b85780637a17dab514610a5e5780637bbba8f914610b0457806384320a3f14610bee57806388839eb114610c3f578063989bb9ff14610d34578063b533c20214610dda578063b582ec5f14610e80578063b8e010de14610ed7578063c1b14dcb14610eee578063cdb2b1f11461119b578063d5808aa014611205578063d88997f7146112ab578063e5f91f7114611351578063f9cdf62b146113ba578063fa271d8014611460578063fb9e0ac9146114e5578063fd8b84b114611556578063fe2dc83c1461161a575b600080fd5b3480156101b257600080fd5b506101f5600480360360208110156101c957600080fd5b81019080803573ffffffffffffffffffffffffffffffffffffffff16906020019092919050505061168b565b005b34801561020357600080fd5b506102466004803603602081101561021a57600080fd5b81019080803573ffffffffffffffffffffffffffffffffffffffff169060200190929190505050611978565b604051808060200180602001838103835285818151815260200191508051906020019080838360005b8381101561028a57808201518184015260208101905061026f565b50505050905090810190601f1680156102b75780820380516001836020036101000a031916815260200191505b50838103825284818151815260200191508051906020019080838360005b838110156102f05780820151818401526020810190506102d5565b50505050905090810190601f16801561031d5780820380516001836020036101000a031916815260200191505b5094505050505060405180910390f35b34801561033957600080fd5b5061039c6004803603604081101561035057600080fd5b81019080803573ffffffffffffffffffffffffffffffffffffffff169060200190929190803573ffffffffffffffffffffffffffffffffffffffff169060200190929190505050611b44565b005b3480156103aa57600080fd5b50610470600480360360408110156103c157600080fd5b81019080803515159060200190929190803590602001906401000000008111156103ea57600080fd5b8201836020820111156103fc57600080fd5b8035906020019184600183028401116401000000008311171561041e57600080fd5b91908080601f016020809104026020016040519081016040528093929190818152602001838380828437600081840152601f19601f820116905080830192505050505050509192919290505050611f8b565b005b34801561047e57600080fd5b506105646004803603606081101561049557600080fd5b81019080803573ffffffffffffffffffffffffffffffffffffffff169060200190929190803515159060200190929190803590602001906401000000008111156104de57600080fd5b8201836020820111156104f057600080fd5b8035906020019184600183028401116401000000008311171561051257600080fd5b91908080601f016020809104026020016040519081016040528093929190818152602001838380828437600081840152601f19601f820116905080830192505050505050509192919290505050612323565b005b34801561057257600080fd5b506105b56004803603602081101561058957600080fd5b81019080803573ffffffffffffffffffffffffffffffffffffffff169060200190929190505050612715565b005b3480156105c357600080fd5b50610606600480360360208110156105da57600080fd5b81019080803573ffffffffffffffffffffffffffffffffffffffff16906020019092919050505061299d565b604051808215151515815260200191505060405180910390f35b34801561062c57600080fd5b5061066f6004803603602081101561064357600080fd5b81019080803573ffffffffffffffffffffffffffffffffffffffff169060200190929190505050612a0b565b005b34801561067d57600080fd5b506106e06004803603604081101561069457600080fd5b81019080803573ffffffffffffffffffffffffffffffffffffffff169060200190929190803573ffffffffffffffffffffffffffffffffffffffff169060200190929190505050612d84565b60405180831515151581526020018281526020019250505060405180910390f35b34801561070d57600080fd5b506107506004803603602081101561072457600080fd5b81019080803573ffffffffffffffffffffffffffffffffffffffff169060200190929190505050612ea9565b6040518080602001828103825283818151815260200191508051906020019060200280838360005b83811015610793578082015181840152602081019050610778565b505050509050019250505060405180910390f35b3480156107b357600080fd5b50610816600480360360408110156107ca57600080fd5b81019080803573ffffffffffffffffffffffffffffffffffffffff169060200190929190803573ffffffffffffffffffffffffffffffffffffffff169060200190929190505050612f78565b6040518082815260200191505060405180910390f35b34801561083857600080fd5b5061087b6004803603602081101561084f57600080fd5b81019080803573ffffffffffffffffffffffffffffffffffffffff169060200190929190505050613004565b005b34801561088957600080fd5b506108cc600480360360208110156108a057600080fd5b81019080803573ffffffffffffffffffffffffffffffffffffffff169060200190929190505050613207565b6040518080602001828103825283818151815260200191508051906020019080838360005b8381101561090c5780820151818401526020810190506108f1565b50505050905090810190601f1680156109395780820380516001836020036101000a031916815260200191505b509250505060405180910390f35b34801561095357600080fd5b506109b66004803603604081101561096a57600080fd5b81019080803573ffffffffffffffffffffffffffffffffffffffff169060200190929190803573ffffffffffffffffffffffffffffffffffffffff1690602001909291905050506132ed565b005b3480156109c457600080fd5b50610a07600480360360208110156109db57600080fd5b81019080803573ffffffffffffffffffffffffffffffffffffffff169060200190929190505050613667565b6040518080602001828103825283818151815260200191508051906020019060200280838360005b83811015610a4a578082015181840152602081019050610a2f565b505050509050019250505060405180910390f35b348015610a6a57600080fd5b50610aad60048036036020811015610a8157600080fd5b81019080803573ffffffffffffffffffffffffffffffffffffffff169060200190929190505050613736565b6040518080602001828103825283818151815260200191508051906020019060200280838360005b83811015610af0578082015181840152602081019050610ad5565b505050509050019250505060405180910390f35b348015610b1057600080fd5b50610b7360048036036040811015610b2757600080fd5b81019080803573ffffffffffffffffffffffffffffffffffffffff169060200190929190803573ffffffffffffffffffffffffffffffffffffffff169060200190929190505050613805565b6040518080602001828103825283818151815260200191508051906020019080838360005b83811015610bb3578082015181840152602081019050610b98565b50505050905090810190601f168015610be05780820380516001836020036101000a031916815260200191505b509250505060405180910390f35b348015610bfa57600080fd5b50610c3d60048036036020811015610c1157600080fd5b81019080803573ffffffffffffffffffffffffffffffffffffffff169060200190929190505050613929565b005b348015610c4b57600080fd5b50610d3260048036036060811015610c6257600080fd5b81019080803573ffffffffffffffffffffffffffffffffffffffff169060200190929190803560ff16906020019092919080359060200190640100000000811115610cac57600080fd5b820183602082011115610cbe57600080fd5b80359060200191846001830284011164010000000083111715610ce057600080fd5b91908080601f016020809104026020016040519081016040528093929190818152602001838380828437600081840152601f19601f820116905080830192505050505050509192919290505050613b2c565b005b348015610d4057600080fd5b50610d8360048036036020811015610d5757600080fd5b81019080803573ffffffffffffffffffffffffffffffffffffffff169060200190929190505050613be7565b6040518080602001828103825283818151815260200191508051906020019060200280838360005b83811015610dc6578082015181840152602081019050610dab565b505050509050019250505060405180910390f35b348015610de657600080fd5b50610e2960048036036020811015610dfd57600080fd5b81019080803573ffffffffffffffffffffffffffffffffffffffff169060200190929190505050613cb9565b6040518080602001828103825283818151815260200191508051906020019060200280838360005b83811015610e6c578082015181840152602081019050610e51565b505050509050019250505060405180910390f35b348015610e8c57600080fd5b50610e95613d88565b604051808273ffffffffffffffffffffffffffffffffffffffff1673ffffffffffffffffffffffffffffffffffffffff16815260200191505060405180910390f35b348015610ee357600080fd5b50610eec613dae565b005b348015610efa57600080fd5b50611199600480360360a0811015610f1157600080fd5b8101908080359060200190640100000000811115610f2e57600080fd5b820183602082011115610f4057600080fd5b80359060200191846001830284011164010000000083111715610f6257600080fd5b91908080601f016020809104026020016040519081016040528093929190818152602001838380828437600081840152601f19601f82011690508083019250505050505050919291929080359060200190640100000000811115610fc557600080fd5b820183602082011115610fd757600080fd5b80359060200191846001830284011164010000000083111715610ff957600080fd5b91908080601f016020809104026020016040519081016040528093929190818152602001838380828437600081840152601f19601f820116905080830192505050505050509192919290803573ffffffffffffffffffffffffffffffffffffffff1690602001909291908035906020019064010000000081111561107c57600080fd5b82018360208201111561108e57600080fd5b803590602001918460018302840111640100000000831117156110b057600080fd5b91908080601f016020809104026020016040519081016040528093929190818152602001838380828437600081840152601f19601f8201169050808301925050505050505091929192908035906020019064010000000081111561111357600080fd5b82018360208201111561112557600080fd5b8035906020019184600183028401116401000000008311171561114757600080fd5b91908080601f016020809104026020016040519081016040528093929190818152602001838380828437600081840152601f19601f820116905080830192505050505050509192919290505050613e3e565b005b3480156111a757600080fd5b50611203600480360360608110156111be57600080fd5b81019080803573ffffffffffffffffffffffffffffffffffffffff169060200190929190803515159060200190929190803560ff169060200190929190505050613fa9565b005b34801561121157600080fd5b506112546004803603602081101561122857600080fd5b81019080803573ffffffffffffffffffffffffffffffffffffffff169060200190929190505050614175565b6040518080602001828103825283818151815260200191508051906020019060200280838360005b8381101561129757808201518184015260208101905061127c565b505050509050019250505060405180910390f35b3480156112b757600080fd5b506112fa600480360360208110156112ce57600080fd5b81019080803573ffffffffffffffffffffffffffffffffffffffff169060200190929190505050614242565b6040518080602001828103825283818151815260200191508051906020019060200280838360005b8381101561133d578082015181840152602081019050611322565b505050509050019250505060405180910390f35b34801561135d57600080fd5b506113a06004803603602081101561137457600080fd5b81019080803573ffffffffffffffffffffffffffffffffffffffff169060200190929190505050614311565b604051808215151515815260200191505060405180910390f35b3480156113c657600080fd5b50611409600480360360208110156113dd57600080fd5b81019080803573ffffffffffffffffffffffffffffffffffffffff16906020019092919050505061445c565b6040518080602001828103825283818151815260200191508051906020019060200280838360005b8381101561144c578082015181840152602081019050611431565b505050509050019250505060405180910390f35b34801561146c57600080fd5b506114cf6004803603604081101561148357600080fd5b81019080803573ffffffffffffffffffffffffffffffffffffffff169060200190929190803573ffffffffffffffffffffffffffffffffffffffff16906020019092919050505061452b565b6040518082815260200191505060405180910390f35b3480156114f157600080fd5b506115546004803603604081101561150857600080fd5b81019080803573ffffffffffffffffffffffffffffffffffffffff169060200190929190803573ffffffffffffffffffffffffffffffffffffffff1690602001909291905050506145b7565b005b34801561156257600080fd5b506115a56004803603602081101561157957600080fd5b81019080803573ffffffffffffffffffffffffffffffffffffffff1690602001909291905050506148a5565b604051808373ffffffffffffffffffffffffffffffffffffffff1673ffffffffffffffffffffffffffffffffffffffff1681526020018273ffffffffffffffffffffffffffffffffffffffff1673ffffffffffffffffffffffffffffffffffffffff1681526020019250505060405180910390f35b34801561162657600080fd5b506116896004803603604081101561163d57600080fd5b81019080803573ffffffffffffffffffffffffffffffffffffffff169060200190929190803573ffffffffffffffffffffffffffffffffffffffff16906020019092919050505061497b565b005b60016000803373ffffffffffffffffffffffffffffffffffffffff1673ffffffffffffffffffffffffffffffffffffffff168152602001908152602001600020600e0160008373ffffffffffffffffffffffffffffffffffffffff1673ffffffffffffffffffffffffffffffffffffffff16815260200190815260200160002060000160016101000a81548160ff0219169083151502179055506000803373ffffffffffffffffffffffffffffffffffffffff1673ffffffffffffffffffffffffffffffffffffffff168152602001908152602001600020600e0160008273ffffffffffffffffffffffffffffffffffffffff1673ffffffffffffffffffffffffffffffffffffffff16815260200190815260200160002060000160019054906101000a900460ff16801561184b57506000803373ffffffffffffffffffffffffffffffffffffffff1673ffffffffffffffffffffffffffffffffffffffff168152602001908152602001600020600e0160008273ffffffffffffffffffffffffffffffffffffffff1673ffffffffffffffffffffffffffffffffffffffff16815260200190815260200160002060000160009054906101000a900460ff165b15611975576000803373ffffffffffffffffffffffffffffffffffffffff1673ffffffffffffffffffffffffffffffffffffffff168152602001908152602001600020600e0160008273ffffffffffffffffffffffffffffffffffffffff1673ffffffffffffffffffffffffffffffffffffffff16815260200190815260200160002060000160029054906101000a900473ffffffffffffffffffffffffffffffffffffffff166000803373ffffffffffffffffffffffffffffffffffffffff1673ffffffffffffffffffffffffffffffffffffffff16815260200190815260200160002060000160010160006101000a81548173ffffffffffffffffffffffffffffffffffffffff021916908373ffffffffffffffffffffffffffffffffffffffff1602179055505b50565b6060806000808473ffffffffffffffffffffffffffffffffffffffff1673ffffffffffffffffffffffffffffffffffffffff1681526020019081526020016000206007016000016000808573ffffffffffffffffffffffffffffffffffffffff1673ffffffffffffffffffffffffffffffffffffffff168152602001908152602001600020600701600101818054600181600116156101000203166002900480601f016020809104026020016040519081016040528092919081815260200182805460018160011615610100020316600290048015611a985780601f10611a6d57610100808354040283529160200191611a98565b820191906000526020600020905b815481529060010190602001808311611a7b57829003601f168201915b50505050509150808054600181600116156101000203166002900480601f016020809104026020016040519081016040528092919081815260200182805460018160011615610100020316600290048015611b345780601f10611b0957610100808354040283529160200191611b34565b820191906000526020600020905b815481529060010190602001808311611b1757829003601f168201915b5050505050905091509150915091565b60016000808473ffffffffffffffffffffffffffffffffffffffff1673ffffffffffffffffffffffffffffffffffffffff168152602001908152602001600020600e0160003373ffffffffffffffffffffffffffffffffffffffff1673ffffffffffffffffffffffffffffffffffffffff16815260200190815260200160002060000160006101000a81548160ff021916908315150217905550806000808473ffffffffffffffffffffffffffffffffffffffff1673ffffffffffffffffffffffffffffffffffffffff168152602001908152602001600020600e0160003373ffffffffffffffffffffffffffffffffffffffff1673ffffffffffffffffffffffffffffffffffffffff16815260200190815260200160002060000160026101000a81548173ffffffffffffffffffffffffffffffffffffffff021916908373ffffffffffffffffffffffffffffffffffffffff1602179055506000808373ffffffffffffffffffffffffffffffffffffffff1673ffffffffffffffffffffffffffffffffffffffff168152602001908152602001600020600d013390806001815401808255809150509060018203906000526020600020016000909192909190916101000a81548173ffffffffffffffffffffffffffffffffffffffff021916908373ffffffffffffffffffffffffffffffffffffffff16021790555050426000808473ffffffffffffffffffffffffffffffffffffffff1673ffffffffffffffffffffffffffffffffffffffff168152602001908152602001600020600e0160003373ffffffffffffffffffffffffffffffffffffffff1673ffffffffffffffffffffffffffffffffffffffff1681526020019081526020016000206002018190555060016000808473ffffffffffffffffffffffffffffffffffffffff1673ffffffffffffffffffffffffffffffffffffffff168152602001908152602001600020600e0160003373ffffffffffffffffffffffffffffffffffffffff1673ffffffffffffffffffffffffffffffffffffffff16815260200190815260200160002060000160016101000a81548160ff0219169083151502179055506000808373ffffffffffffffffffffffffffffffffffffffff1673ffffffffffffffffffffffffffffffffffffffff168152602001908152602001600020600e0160003373ffffffffffffffffffffffffffffffffffffffff1673ffffffffffffffffffffffffffffffffffffffff16815260200190815260200160002060000160029054906101000a900473ffffffffffffffffffffffffffffffffffffffff166000808473ffffffffffffffffffffffffffffffffffffffff1673ffffffffffffffffffffffffffffffffffffffff16815260200190815260200160002060000160010160006101000a81548173ffffffffffffffffffffffffffffffffffffffff021916908373ffffffffffffffffffffffffffffffffffffffff1602179055505050565b60016000803373ffffffffffffffffffffffffffffffffffffffff1673ffffffffffffffffffffffffffffffffffffffff168152602001908152602001600020600b0160003373ffffffffffffffffffffffffffffffffffffffff1673ffffffffffffffffffffffffffffffffffffffff16815260200190815260200160002060000160000160006101000a81548160ff02191690831515021790555060008060003373ffffffffffffffffffffffffffffffffffffffff1673ffffffffffffffffffffffffffffffffffffffff168152602001908152602001600020600b0160003373ffffffffffffffffffffffffffffffffffffffff1673ffffffffffffffffffffffffffffffffffffffff16815260200190815260200160002060000160000160016101000a81548160ff021916908315150217905550816000803373ffffffffffffffffffffffffffffffffffffffff1673ffffffffffffffffffffffffffffffffffffffff168152602001908152602001600020600b0160003373ffffffffffffffffffffffffffffffffffffffff1673ffffffffffffffffffffffffffffffffffffffff16815260200190815260200160002060010160006101000a81548160ff021916908315150217905550806000803373ffffffffffffffffffffffffffffffffffffffff1673ffffffffffffffffffffffffffffffffffffffff168152602001908152602001600020600b0160003373ffffffffffffffffffffffffffffffffffffffff1673ffffffffffffffffffffffffffffffffffffffff16815260200190815260200160002060020190805190602001906121f3929190614b71565b506000803373ffffffffffffffffffffffffffffffffffffffff1673ffffffffffffffffffffffffffffffffffffffff168152602001908152602001600020600c013390806001815401808255809150509060018203906000526020600020016000909192909190916101000a81548173ffffffffffffffffffffffffffffffffffffffff021916908373ffffffffffffffffffffffffffffffffffffffff16021790555050426000803373ffffffffffffffffffffffffffffffffffffffff1673ffffffffffffffffffffffffffffffffffffffff168152602001908152602001600020600b0160003373ffffffffffffffffffffffffffffffffffffffff1673ffffffffffffffffffffffffffffffffffffffff168152602001908152602001600020600301819055505050565b60016000808573ffffffffffffffffffffffffffffffffffffffff1673ffffffffffffffffffffffffffffffffffffffff168152602001908152602001600020600b0160008573ffffffffffffffffffffffffffffffffffffffff1673ffffffffffffffffffffffffffffffffffffffff16815260200190815260200160002060000160000160016101000a81548160ff02191690831515021790555060008060008573ffffffffffffffffffffffffffffffffffffffff1673ffffffffffffffffffffffffffffffffffffffff168152602001908152602001600020600b0160008573ffffffffffffffffffffffffffffffffffffffff1673ffffffffffffffffffffffffffffffffffffffff16815260200190815260200160002060000160000160006101000a81548160ff021916908315150217905550816000808573ffffffffffffffffffffffffffffffffffffffff1673ffffffffffffffffffffffffffffffffffffffff168152602001908152602001600020600b0160008573ffffffffffffffffffffffffffffffffffffffff1673ffffffffffffffffffffffffffffffffffffffff16815260200190815260200160002060010160006101000a81548160ff021916908315150217905550426000808573ffffffffffffffffffffffffffffffffffffffff1673ffffffffffffffffffffffffffffffffffffffff168152602001908152602001600020600b0160008573ffffffffffffffffffffffffffffffffffffffff1673ffffffffffffffffffffffffffffffffffffffff16815260200190815260200160002060030181905550806000808573ffffffffffffffffffffffffffffffffffffffff1673ffffffffffffffffffffffffffffffffffffffff168152602001908152602001600020600b0160008573ffffffffffffffffffffffffffffffffffffffff1673ffffffffffffffffffffffffffffffffffffffff1681526020019081526020016000206002019080519060200190612611929190614b71565b506000808473ffffffffffffffffffffffffffffffffffffffff1673ffffffffffffffffffffffffffffffffffffffff168152602001908152602001600020600c013390806001815401808255809150509060018203906000526020600020016000909192909190916101000a81548173ffffffffffffffffffffffffffffffffffffffff021916908373ffffffffffffffffffffffffffffffffffffffff16021790555050806000808573ffffffffffffffffffffffffffffffffffffffff1673ffffffffffffffffffffffffffffffffffffffff168152602001908152602001600020600401600001908051906020019061270f929190614b71565b50505050565b60016000803373ffffffffffffffffffffffffffffffffffffffff1673ffffffffffffffffffffffffffffffffffffffff168152602001908152602001600020600e0160003373ffffffffffffffffffffffffffffffffffffffff1673ffffffffffffffffffffffffffffffffffffffff16815260200190815260200160002060000160016101000a81548160ff021916908315150217905550806000803373ffffffffffffffffffffffffffffffffffffffff1673ffffffffffffffffffffffffffffffffffffffff168152602001908152602001600020600e0160003373ffffffffffffffffffffffffffffffffffffffff1673ffffffffffffffffffffffffffffffffffffffff16815260200190815260200160002060000160026101000a81548173ffffffffffffffffffffffffffffffffffffffff021916908373ffffffffffffffffffffffffffffffffffffffff1602179055506000803373ffffffffffffffffffffffffffffffffffffffff1673ffffffffffffffffffffffffffffffffffffffff168152602001908152602001600020600d013390806001815401808255809150509060018203906000526020600020016000909192909190916101000a81548173ffffffffffffffffffffffffffffffffffffffff021916908373ffffffffffffffffffffffffffffffffffffffff16021790555050426000803373ffffffffffffffffffffffffffffffffffffffff1673ffffffffffffffffffffffffffffffffffffffff168152602001908152602001600020600e0160003373ffffffffffffffffffffffffffffffffffffffff1673ffffffffffffffffffffffffffffffffffffffff1681526020019081526020016000206002018190555050565b600060011515600160008473ffffffffffffffffffffffffffffffffffffffff1673ffffffffffffffffffffffffffffffffffffffff16815260200190815260200160002060009054906101000a900460ff1615151415612a015760019050612a06565b600090505b919050565b60016000803373ffffffffffffffffffffffffffffffffffffffff1673ffffffffffffffffffffffffffffffffffffffff168152602001908152602001600020600b0160008373ffffffffffffffffffffffffffffffffffffffff1673ffffffffffffffffffffffffffffffffffffffff16815260200190815260200160002060000160000160006101000a81548160ff0219169083151502179055506000803373ffffffffffffffffffffffffffffffffffffffff1673ffffffffffffffffffffffffffffffffffffffff168152602001908152602001600020600b0160008273ffffffffffffffffffffffffffffffffffffffff1673ffffffffffffffffffffffffffffffffffffffff16815260200190815260200160002060000160000160009054906101000a900460ff168015612bd457506000803373ffffffffffffffffffffffffffffffffffffffff1673ffffffffffffffffffffffffffffffffffffffff168152602001908152602001600020600b0160008273ffffffffffffffffffffffffffffffffffffffff1673ffffffffffffffffffffffffffffffffffffffff16815260200190815260200160002060000160000160019054906101000a900460ff165b15612d81576000803373ffffffffffffffffffffffffffffffffffffffff1673ffffffffffffffffffffffffffffffffffffffff168152602001908152602001600020600b0160008273ffffffffffffffffffffffffffffffffffffffff1673ffffffffffffffffffffffffffffffffffffffff1681526020019081526020016000206002016000803373ffffffffffffffffffffffffffffffffffffffff1673ffffffffffffffffffffffffffffffffffffffff1681526020019081526020016000206004016000019080546001816001161561010002031660029004612cbd929190614bf1565b506000803373ffffffffffffffffffffffffffffffffffffffff1673ffffffffffffffffffffffffffffffffffffffff168152602001908152602001600020600c0160016000803373ffffffffffffffffffffffffffffffffffffffff1673ffffffffffffffffffffffffffffffffffffffff168152602001908152602001600020600c018054905003815481101515612d5357fe5b9060005260206000200160006101000a81549073ffffffffffffffffffffffffffffffffffffffff02191690555b50565b6000806000808573ffffffffffffffffffffffffffffffffffffffff1673ffffffffffffffffffffffffffffffffffffffff16815260200190815260200160002060000160020160008473ffffffffffffffffffffffffffffffffffffffff1673ffffffffffffffffffffffffffffffffffffffff16815260200190815260200160002060000160009054906101000a900460ff166000808673ffffffffffffffffffffffffffffffffffffffff1673ffffffffffffffffffffffffffffffffffffffff16815260200190815260200160002060000160020160008573ffffffffffffffffffffffffffffffffffffffff1673ffffffffffffffffffffffffffffffffffffffff16815260200190815260200160002060020154915091509250929050565b60606000808373ffffffffffffffffffffffffffffffffffffffff1673ffffffffffffffffffffffffffffffffffffffff168152602001908152602001600020600c01805480602002602001604051908101604052809291908181526020018280548015612f6c57602002820191906000526020600020905b8160009054906101000a900473ffffffffffffffffffffffffffffffffffffffff1673ffffffffffffffffffffffffffffffffffffffff1681526020019060010190808311612f22575b50505050509050919050565b60008060008473ffffffffffffffffffffffffffffffffffffffff1673ffffffffffffffffffffffffffffffffffffffff168152602001908152602001600020600b0160008373ffffffffffffffffffffffffffffffffffffffff1673ffffffffffffffffffffffffffffffffffffffff16815260200190815260200160002060030154905092915050565b806000803373ffffffffffffffffffffffffffffffffffffffff1673ffffffffffffffffffffffffffffffffffffffff16815260200190815260200160002060000160010160006101000a81548173ffffffffffffffffffffffffffffffffffffffff021916908373ffffffffffffffffffffffffffffffffffffffff160217905550336000803373ffffffffffffffffffffffffffffffffffffffff1673ffffffffffffffffffffffffffffffffffffffff16815260200190815260200160002060000160000160016101000a81548173ffffffffffffffffffffffffffffffffffffffff021916908373ffffffffffffffffffffffffffffffffffffffff16021790555060018060003373ffffffffffffffffffffffffffffffffffffffff1673ffffffffffffffffffffffffffffffffffffffff16815260200190815260200160002060006101000a81548160ff021916908315150217905550600260008273ffffffffffffffffffffffffffffffffffffffff1673ffffffffffffffffffffffffffffffffffffffff1681526020019081526020016000203390806001815401808255809150509060018203906000526020600020016000909192909190916101000a81548173ffffffffffffffffffffffffffffffffffffffff021916908373ffffffffffffffffffffffffffffffffffffffff1602179055505050565b60606000808373ffffffffffffffffffffffffffffffffffffffff1673ffffffffffffffffffffffffffffffffffffffff1681526020019081526020016000206004016000018054600181600116156101000203166002900480601f0160208091040260200160405190810160405280929190818152602001828054600181600116156101000203166002900480156132e15780601f106132b6576101008083540402835291602001916132e1565b820191906000526020600020905b8154815290600101906020018083116132c457829003601f168201915b50505050509050919050565b60016000808373ffffffffffffffffffffffffffffffffffffffff1673ffffffffffffffffffffffffffffffffffffffff168152602001908152602001600020600b0160008473ffffffffffffffffffffffffffffffffffffffff1673ffffffffffffffffffffffffffffffffffffffff16815260200190815260200160002060000160000160016101000a81548160ff0219169083151502179055506000808273ffffffffffffffffffffffffffffffffffffffff1673ffffffffffffffffffffffffffffffffffffffff168152602001908152602001600020600b0160008373ffffffffffffffffffffffffffffffffffffffff1673ffffffffffffffffffffffffffffffffffffffff16815260200190815260200160002060000160000160009054906101000a900460ff1680156134b657506000808273ffffffffffffffffffffffffffffffffffffffff1673ffffffffffffffffffffffffffffffffffffffff168152602001908152602001600020600b0160008373ffffffffffffffffffffffffffffffffffffffff1673ffffffffffffffffffffffffffffffffffffffff16815260200190815260200160002060000160000160019054906101000a900460ff165b15613663576000808273ffffffffffffffffffffffffffffffffffffffff1673ffffffffffffffffffffffffffffffffffffffff168152602001908152602001600020600b0160008373ffffffffffffffffffffffffffffffffffffffff1673ffffffffffffffffffffffffffffffffffffffff1681526020019081526020016000206002016000808373ffffffffffffffffffffffffffffffffffffffff1673ffffffffffffffffffffffffffffffffffffffff168152602001908152602001600020600401600001908054600181600116156101000203166002900461359f929190614bf1565b506000808373ffffffffffffffffffffffffffffffffffffffff1673ffffffffffffffffffffffffffffffffffffffff168152602001908152602001600020600c0160016000808573ffffffffffffffffffffffffffffffffffffffff1673ffffffffffffffffffffffffffffffffffffffff168152602001908152602001600020600c01805490500381548110151561363557fe5b9060005260206000200160006101000a81549073ffffffffffffffffffffffffffffffffffffffff02191690555b5050565b60606000808373ffffffffffffffffffffffffffffffffffffffff1673ffffffffffffffffffffffffffffffffffffffff16815260200190815260200160002060120180548060200260200160405190810160405280929190818152602001828054801561372a57602002820191906000526020600020905b8160009054906101000a900473ffffffffffffffffffffffffffffffffffffffff1673ffffffffffffffffffffffffffffffffffffffff16815260200190600101908083116136e0575b50505050509050919050565b60606000808373ffffffffffffffffffffffffffffffffffffffff1673ffffffffffffffffffffffffffffffffffffffff168152602001908152602001600020600d018054806020026020016040519081016040528092919081815260200182805480156137f957602002820191906000526020600020905b8160009054906101000a900473ffffffffffffffffffffffffffffffffffffffff1673ffffffffffffffffffffffffffffffffffffffff16815260200190600101908083116137af575b50505050509050919050565b60606000808473ffffffffffffffffffffffffffffffffffffffff1673ffffffffffffffffffffffffffffffffffffffff168152602001908152602001600020600b0160008373ffffffffffffffffffffffffffffffffffffffff1673ffffffffffffffffffffffffffffffffffffffff1681526020019081526020016000206002018054600181600116156101000203166002900480601f01602080910402602001604051908101604052809291908181526020018280546001816001161561010002031660029004801561391c5780601f106138f15761010080835404028352916020019161391c565b820191906000526020600020905b8154815290600101906020018083116138ff57829003601f168201915b5050505050905092915050565b806000803373ffffffffffffffffffffffffffffffffffffffff1673ffffffffffffffffffffffffffffffffffffffff16815260200190815260200160002060000160000160016101000a81548173ffffffffffffffffffffffffffffffffffffffff021916908373ffffffffffffffffffffffffffffffffffffffff160217905550336000803373ffffffffffffffffffffffffffffffffffffffff1673ffffffffffffffffffffffffffffffffffffffff16815260200190815260200160002060000160010160006101000a81548173ffffffffffffffffffffffffffffffffffffffff021916908373ffffffffffffffffffffffffffffffffffffffff16021790555060018060003373ffffffffffffffffffffffffffffffffffffffff1673ffffffffffffffffffffffffffffffffffffffff16815260200190815260200160002060006101000a81548160ff021916908315150217905550600260003373ffffffffffffffffffffffffffffffffffffffff1673ffffffffffffffffffffffffffffffffffffffff1681526020019081526020016000208190806001815401808255809150509060018203906000526020600020016000909192909190916101000a81548173ffffffffffffffffffffffffffffffffffffffff021916908373ffffffffffffffffffffffffffffffffffffffff1602179055505050565b816000808573ffffffffffffffffffffffffffffffffffffffff1673ffffffffffffffffffffffffffffffffffffffff16815260200190815260200160002060040160010160006101000a81548160ff021916908360ff160217905550806000808573ffffffffffffffffffffffffffffffffffffffff1673ffffffffffffffffffffffffffffffffffffffff1681526020019081526020016000206004016002019080519060200190613be1929190614b71565b50505050565b60606000808373ffffffffffffffffffffffffffffffffffffffff1673ffffffffffffffffffffffffffffffffffffffff168152602001908152602001600020600001600301805480602002602001604051908101604052809291908181526020018280548015613cad57602002820191906000526020600020905b8160009054906101000a900473ffffffffffffffffffffffffffffffffffffffff1673ffffffffffffffffffffffffffffffffffffffff1681526020019060010190808311613c63575b50505050509050919050565b60606000808373ffffffffffffffffffffffffffffffffffffffff1673ffffffffffffffffffffffffffffffffffffffff168152602001908152602001600020601101805480602002602001604051908101604052809291908181526020018280548015613d7c57602002820191906000526020600020905b8160009054906101000a900473ffffffffffffffffffffffffffffffffffffffff1673ffffffffffffffffffffffffffffffffffffffff1681526020019060010190808311613d32575b50505050509050919050565b600360009054906101000a900473ffffffffffffffffffffffffffffffffffffffff1681565b6040805190810160405280600981526020017f48484848484841414800000000000000000000000000000000000000000000008152506000803373ffffffffffffffffffffffffffffffffffffffff1673ffffffffffffffffffffffffffffffffffffffff1681526020019081526020016000206004016000019080519060200190613e3b929190614b71565b50565b846000808573ffffffffffffffffffffffffffffffffffffffff1673ffffffffffffffffffffffffffffffffffffffff1681526020019081526020016000206007016000019080519060200190613e96929190614b71565b50836000808573ffffffffffffffffffffffffffffffffffffffff1673ffffffffffffffffffffffffffffffffffffffff1681526020019081526020016000206007016001019080519060200190613eef929190614b71565b50816000808573ffffffffffffffffffffffffffffffffffffffff1673ffffffffffffffffffffffffffffffffffffffff1681526020019081526020016000206007016003019080519060200190613f48929190614b71565b50806000808573ffffffffffffffffffffffffffffffffffffffff1673ffffffffffffffffffffffffffffffffffffffff1681526020019081526020016000206007016002019080519060200190613fa1929190614b71565b505050505050565b816000808573ffffffffffffffffffffffffffffffffffffffff1673ffffffffffffffffffffffffffffffffffffffff168152602001908152602001600020600f0160003373ffffffffffffffffffffffffffffffffffffffff1673ffffffffffffffffffffffffffffffffffffffff16815260200190815260200160002060020160006101000a81548160ff0219169083151502179055508060ff166000808573ffffffffffffffffffffffffffffffffffffffff1673ffffffffffffffffffffffffffffffffffffffff168152602001908152602001600020600f0160003373ffffffffffffffffffffffffffffffffffffffff1673ffffffffffffffffffffffffffffffffffffffff168152602001908152602001600020600101819055506000808473ffffffffffffffffffffffffffffffffffffffff1673ffffffffffffffffffffffffffffffffffffffff1681526020019081526020016000206010013390806001815401808255809150509060018203906000526020600020016000909192909190916101000a81548173ffffffffffffffffffffffffffffffffffffffff021916908373ffffffffffffffffffffffffffffffffffffffff16021790555050505050565b6060600260008373ffffffffffffffffffffffffffffffffffffffff1673ffffffffffffffffffffffffffffffffffffffff16815260200190815260200160002080548060200260200160405190810160405280929190818152602001828054801561423657602002820191906000526020600020905b8160009054906101000a900473ffffffffffffffffffffffffffffffffffffffff1673ffffffffffffffffffffffffffffffffffffffff16815260200190600101908083116141ec575b50505050509050919050565b60606000808373ffffffffffffffffffffffffffffffffffffffff1673ffffffffffffffffffffffffffffffffffffffff168152602001908152602001600020600c0180548060200260200160405190810160405280929190818152602001828054801561430557602002820191906000526020600020905b8160009054906101000a900473ffffffffffffffffffffffffffffffffffffffff1673ffffffffffffffffffffffffffffffffffffffff16815260200190600101908083116142bb575b50505050509050919050565b600060606000808473ffffffffffffffffffffffffffffffffffffffff1673ffffffffffffffffffffffffffffffffffffffff1681526020019081526020016000206000016003018054806020026020016040519081016040528092919081815260200182805480156143d957602002820191906000526020600020905b8160009054906101000a900473ffffffffffffffffffffffffffffffffffffffff1673ffffffffffffffffffffffffffffffffffffffff168152602001906001019080831161438f575b50505050509050600080905060008090505b825181101561445157828181518110151561440257fe5b9060200190602002015173ffffffffffffffffffffffffffffffffffffffff163373ffffffffffffffffffffffffffffffffffffffff16141561444457600191505b80806001019150506143eb565b508092505050919050565b60606000808373ffffffffffffffffffffffffffffffffffffffff1673ffffffffffffffffffffffffffffffffffffffff16815260200190815260200160002060100180548060200260200160405190810160405280929190818152602001828054801561451f57602002820191906000526020600020905b8160009054906101000a900473ffffffffffffffffffffffffffffffffffffffff1673ffffffffffffffffffffffffffffffffffffffff16815260200190600101908083116144d5575b50505050509050919050565b60008060008473ffffffffffffffffffffffffffffffffffffffff1673ffffffffffffffffffffffffffffffffffffffff168152602001908152602001600020600e0160008373ffffffffffffffffffffffffffffffffffffffff1673ffffffffffffffffffffffffffffffffffffffff16815260200190815260200160002060020154905092915050565b60016000808373ffffffffffffffffffffffffffffffffffffffff1673ffffffffffffffffffffffffffffffffffffffff168152602001908152602001600020600e0160008473ffffffffffffffffffffffffffffffffffffffff1673ffffffffffffffffffffffffffffffffffffffff16815260200190815260200160002060000160006101000a81548160ff0219169083151502179055506000808273ffffffffffffffffffffffffffffffffffffffff1673ffffffffffffffffffffffffffffffffffffffff168152602001908152602001600020600e0160008373ffffffffffffffffffffffffffffffffffffffff1673ffffffffffffffffffffffffffffffffffffffff16815260200190815260200160002060000160019054906101000a900460ff16801561477757506000808273ffffffffffffffffffffffffffffffffffffffff1673ffffffffffffffffffffffffffffffffffffffff168152602001908152602001600020600e0160008373ffffffffffffffffffffffffffffffffffffffff1673ffffffffffffffffffffffffffffffffffffffff16815260200190815260200160002060000160009054906101000a900460ff165b156148a1576000808273ffffffffffffffffffffffffffffffffffffffff1673ffffffffffffffffffffffffffffffffffffffff168152602001908152602001600020600e0160008373ffffffffffffffffffffffffffffffffffffffff1673ffffffffffffffffffffffffffffffffffffffff16815260200190815260200160002060000160029054906101000a900473ffffffffffffffffffffffffffffffffffffffff166000808373ffffffffffffffffffffffffffffffffffffffff1673ffffffffffffffffffffffffffffffffffffffff16815260200190815260200160002060000160010160006101000a81548173ffffffffffffffffffffffffffffffffffffffff021916908373ffffffffffffffffffffffffffffffffffffffff1602179055505b5050565b6000806000808473ffffffffffffffffffffffffffffffffffffffff1673ffffffffffffffffffffffffffffffffffffffff16815260200190815260200160002060000160000160019054906101000a900473ffffffffffffffffffffffffffffffffffffffff166000808573ffffffffffffffffffffffffffffffffffffffff1673ffffffffffffffffffffffffffffffffffffffff16815260200190815260200160002060000160010160009054906101000a900473ffffffffffffffffffffffffffffffffffffffff1691509150915091565b6000808373ffffffffffffffffffffffffffffffffffffffff1673ffffffffffffffffffffffffffffffffffffffff1681526020019081526020016000206000016003018190806001815401808255809150509060018203906000526020600020016000909192909190916101000a81548173ffffffffffffffffffffffffffffffffffffffff021916908373ffffffffffffffffffffffffffffffffffffffff160217905550506000808273ffffffffffffffffffffffffffffffffffffffff1673ffffffffffffffffffffffffffffffffffffffff1681526020019081526020016000206011018290806001815401808255809150509060018203906000526020600020016000909192909190916101000a81548173ffffffffffffffffffffffffffffffffffffffff021916908373ffffffffffffffffffffffffffffffffffffffff160217905550506000808273ffffffffffffffffffffffffffffffffffffffff1673ffffffffffffffffffffffffffffffffffffffff1681526020019081526020016000206012018190806001815401808255809150509060018203906000526020600020016000909192909190916101000a81548173ffffffffffffffffffffffffffffffffffffffff021916908373ffffffffffffffffffffffffffffffffffffffff160217905550505050565b828054600181600116156101000203166002900490600052602060002090601f016020900481019282601f10614bb257805160ff1916838001178555614be0565b82800160010185558215614be0579182015b82811115614bdf578251825591602001919060010190614bc4565b5b509050614bed9190614c78565b5090565b828054600181600116156101000203166002900490600052602060002090601f016020900481019282601f10614c2a5780548555614c67565b82800160010185558215614c6757600052602060002091601f016020900482015b82811115614c66578254825591600101919060010190614c4b565b5b509050614c749190614c78565b5090565b614c9a91905b80821115614c96576000816000905550600101614c7e565b5090565b9056fea165627a7a72305820785cecfade4b20a9da545704a0e9e0b72646ee8f7c84eca1f025b90ace2994e90029",
  "source": "pragma solidity 0.5.0;\ncontract SimpleStorage {\n    \n\nstruct Documents  {\n string  aadhar;\n\n    \n uint8 aadharno;\nstring aadharnoHash;\n\n    \n}\n\nstruct PersonalInfo {\nstring name;\nstring propic;\nstring email;\nstring phone;\n    \n}\n\nstruct Owners{\nuint8 max;\naddress stud;\naddress inst;\n\nmapping(address=>PartialOwner) partialowner;\naddress[] listofpartialowner;\n\n\n\n}\n\nstruct Request {\n    \nbool stud;\nbool inst;\nbool aadhar;\n\n\n} \n\nstruct ApprovalRequest{\n bool stud;\n bool inst;\n \n \n}\n\nstruct ChangeOwnerShip{\n bool stud;\n bool inst;\n address studa;\n address insta;\n \n \n ApprovalRequest approve;\n\n}\n\n\n\n\nstruct ChangeOwnerShipInst{\n    \nbool inst ;\nbool stud;\naddress neinst;\naddress nestud;\n\nuint timestamp;\n\n    \n    \n}\n\n\n\n\n\n\nstruct Upload {\n\n ApprovalRequest approve;\n bool aadhar;\n string aadharhash;\n uint timestamp;\n}\n\n\n\n\nstruct PartialOwner{\n    \nbool aadhar;\nuint day;\nuint expiry;\n\n\n    \n}\n\n\nstruct PartialOwnerRequest\n{\nApprovalRequest approve;\nuint256 day;\nbool aadhar;\n\n\n}\n\n\n\nstruct MultiSig {\n    \n    \nOwners owners;\nDocuments doc;\nPersonalInfo profile;\n\n\n//Upload\n\n\nmapping(address=>Upload) uploadreq;\naddress[] listofuploadreq;\n\n\n\n//ChangeOwnerShip\n\n\n\n\naddress[] listofchangeowneri;\n\n\n\nmapping(address=>ChangeOwnerShipInst) changeowneri;\n\n\n\nmapping(address=>PartialOwnerRequest) partialowner;\n\naddress[] listofpartialowner;\n\n\naddress [] ihaveaccess;\n\naddress[] PastOwners;\n\n    \n}\n\n\n\n\n\n\n\n\n\n\n\n/////////////////////////////////////////////////////////////////////////////////\nmapping(address=>MultiSig) wallets;\nmapping(address=>bool) listofwall;\nmapping (address=>address[] )  iminwall;\n\n\naddress public j;\n\n\n\n\n\n\nfunction createNewMultiSigUser(address a) public {\nwallets[msg.sender].owners.inst=a;\nwallets[msg.sender].owners.stud=msg.sender;\nlistofwall[msg.sender]=true;\n\niminwall[a].push(msg.sender);\n\n\n\n\n\n}\n\n\nconstructor ()public {\n    \n}\n\nfunction createNewMultiSigInst(address a) public {\nwallets[msg.sender].owners.stud=a;\nwallets[msg.sender].owners.inst=msg.sender;\nlistofwall[msg.sender]=true;\niminwall[msg.sender].push(a);\n\n    \n}\n\nfunction doesWalletExists(address a)public view returns (bool){\nif(listofwall[a]==true) \nreturn true;\nelse return false;\n}\n\n\nfunction createUploadRequestbyUser(bool ad,string memory hash)public{\n    \n    \n    \nwallets[msg.sender].uploadreq[msg.sender].approve.stud=true;\nwallets[msg.sender].uploadreq[msg.sender].approve.inst=false;\nwallets[msg.sender].uploadreq[msg.sender].aadhar=ad;\nwallets[msg.sender].uploadreq[msg.sender].aadharhash=hash;\nwallets[msg.sender].listofuploadreq.push(msg.sender);\nwallets[msg.sender].uploadreq[msg.sender].timestamp=now;\n\n\n    \n}\n\n\nfunction createUploadRequestbyInstitute(address a,bool ad,string memory hash)public{\nwallets[a].uploadreq[a].approve.inst=true;\nwallets[a].uploadreq[a].approve.stud=false;\nwallets[a].uploadreq[a].aadhar=ad;\nwallets[a].uploadreq[a].timestamp=now;\nwallets[a].uploadreq[a].aadharhash=hash;\nwallets[a].listofuploadreq.push(msg.sender);\n\n\nwallets[a].doc.aadhar=hash;\n\n\n\n\n}\n\n\nfunction getUploadReqList(address ad)public view returns (address[] memory){\nreturn wallets[ad].listofuploadreq;\n\n}\n\n\nfunction approveUploadbyUser(address ad) public{\n \nwallets[msg.sender].uploadreq[ad].approve.stud=true;\nif(wallets[msg.sender].uploadreq[ad].approve.stud&&wallets[msg.sender].uploadreq[ad].approve.inst)\n{\nwallets[msg.sender].doc.aadhar=wallets[msg.sender].uploadreq[ad].aadharhash;\ndelete wallets[msg.sender].listofuploadreq[wallets[msg.sender].listofuploadreq.length-1];\n\n}\n}\n\n\nfunction approveUploadbyInstitute(address ad ,address student)public{\n    \nwallets[student].uploadreq[ad].approve.inst=true;\nif(wallets[student].uploadreq[ad].approve.stud&&wallets[student].uploadreq[ad].approve.inst)\n{\nwallets[student].doc.aadhar=wallets[student].uploadreq[ad].aadharhash;\n\ndelete wallets[ad].listofuploadreq[wallets[ad].listofuploadreq.length-1];\n\n}\n\n\n}\n\n\nfunction getAadhar (address stud )public view returns(string memory ){\nreturn wallets[stud].doc.aadhar;\n\n    \n}\n\n\nfunction getOwners(address a)public view returns(address ,address){\n     return (wallets[a].owners.stud,wallets[a].owners.inst);\n\n}\n\nfunction getInstitutesWallet(address ad) public view returns(address[] memory){\n   \n     return iminwall[ad];\n   \n}\n\nfunction getInstitutesUploadList(address ad) public view returns(address[] memory){\nreturn wallets[ad].listofuploadreq;\n}\n\n\n\n\n function changeOwnerInstfromInst(address stud,address Inst)  public {\n     \nwallets[stud].changeowneri[msg.sender].inst=true;\nwallets[stud].changeowneri[msg.sender].neinst=Inst;\nwallets[stud].listofchangeowneri.push(msg.sender);\nwallets[stud].changeowneri[msg.sender].timestamp=now;\nwallets[stud].changeowneri[msg.sender].stud=true;\nwallets[stud].owners.inst=wallets[stud].changeowneri[msg.sender].neinst;\n }\n \n \n \n function changeOwnerInstfromStud(address Inst)  public {\n     \nwallets[msg.sender].changeowneri[msg.sender].stud=true;\nwallets[msg.sender].changeowneri[msg.sender].neinst=Inst;\nwallets[msg.sender].listofchangeowneri.push(msg.sender);\n\nwallets[msg.sender].changeowneri[msg.sender].timestamp=now;\n\n\n }\n \n\n\n\n\n\n\n\n\n\n\n\n\n\n\nfunction getChangeOwnerList(address a)public view returns(address[] memory)\n {\n     return wallets[a].listofchangeowneri;\n     \n     \n }\n\n\n\n\nfunction updateProf (string memory name,string memory pro,address  my,string memory no,string memory email) public\n{\n    \nwallets[my].profile.name=name;\nwallets[my].profile.propic=pro;\nwallets[my].profile.phone=no;\nwallets[my].profile.email=email;\n\n\n}\n\n\n\nfunction getProfile(address  a) public view returns (string memory,string memory){\n   \n return (wallets[a].profile.name,wallets[a].profile.propic);\n    \n    \n}\n\n\nfunction approveChangeOwnerINSTReqbyStud(address ad)public{\nwallets[msg.sender].changeowneri[ad].stud=true;\nif(wallets[msg.sender].changeowneri[ad].stud&&wallets[msg.sender].changeowneri[ad].inst)\n{\nwallets[msg.sender].owners.inst=wallets[msg.sender].changeowneri[ad].neinst;\n\n}\n    \n}\n\n\n\nfunction approveChangeOwnerINSTReqbyInst(address ad,address io)public{\nwallets[io].changeowneri[ad].inst=true;\nif(wallets[io].changeowneri[ad].stud&&wallets[io].changeowneri[ad].inst)\n{\nwallets[io].owners.inst=wallets[io].changeowneri[ad].neinst;\n\n}\n    \n}\n\n\n\n\n\n\nfunction createNewPartialOwnerRequest(address a,bool adhar,uint8 d)public\n{\n    \n    \n    \n    wallets[a].partialowner[msg.sender].aadhar=adhar;\n    wallets[a].partialowner[msg.sender].day=d;\n    wallets[a].listofpartialowner.push(msg.sender);\n    \n    \n    \n    \n}\n\nfunction getPartialOwnerShipList(address a) public view returns (address [] memory){\n    \n    \n     return wallets[a].listofpartialowner;\n\n}\n\n\n\n\n\n// function approvePartialOwnerReqfromStudent (address reqq) public {\n   \n// wallets[msg.sender].partialowner[reqq].approve.stud=true;\n    \n// if( wallets[msg.sender].partialowner[reqq].approve.stud==true&& wallets[msg.sender].partialowner[reqq].approve.inst==true)\n//     {\n//         wallets[msg.sender].owners.partialowner[msg.sender].aadhar=wallets[msg.sender].partialowner[reqq].aadhar;\n        \n//         wallets[msg.sender].owners.partialowner[msg.sender].expiry=now+ wallets[msg.sender].owners.partialowner[msg.sender].day * 1 minutes;\n//         wallets[msg.sender].owners.listofpartialowner.push(reqq);\n\n//     }\n    \n    \n// }\n\n\n// function approvePartialOwnerReqfromInst (address stud ,address reqq) public {\n    \n    \n      \n    \n//     wallets[stud].partialowner[reqq].approve.inst=true;\n     \n//       wallets[stud].partialowner[reqq].approve.stud=true;\n\n\n\n//          if( wallets[stud].partialowner[reqq].approve.stud==true&& wallets[stud].partialowner[reqq].approve.inst==true)\n//       {\n\n//     wallets[stud].owners.partialowner[reqq].aadhar=wallets[stud].partialowner[reqq].aadhar;\n   \n//   uint yuyu= wallets[stud].owners.partialowner[reqq].day ;\n   \n//     wallets[stud].owners.partialowner[reqq].expiry=now+ yuyu *1 minutes;\n//     wallets[stud].owners.listofpartialowner.push(reqq);\n\n//           }\n        \n        \n        \n\n// }\n\n\n\n// function getAadharfromPartialOwner(address  a) public view returns (string memory){\n    \n// address [] memory va=wallets[a].owners.listofpartialowner;\n// bool flag =false;\n// for(uint i=0;i<va.length;i++){\n// if(msg.sender==va[i])\n// {\n//  flag=true;\n \n \n    \n// }\n    \n// }\n\n\n\n\n// if(flag==true){\n    \n    \n    \n//     if(wallets[a].owners.partialowner[msg.sender].aadhar==true){\n        \n        \n//         if(wallets[a].owners.partialowner[msg.sender].day<now)\n//          {\n             \n//              return wallets[a].doc.aadhar;\n             \n//           }\n//          else {\n//              return \"Date Expired\";\n//          }\n        \n//     }else {\n        \n//         return \"error\";\n//     }\n        \n//     }else {\n//         return  \"a\";\n//     }\n    \n// }\n\n\n\nfunction isIamPartialOwner (address a)public  view returns (bool){\n    address [] memory va=wallets[a].owners.listofpartialowner;\nbool flag =false;\nfor(uint i=0;i<va.length;i++){\nif(msg.sender==va[i])\n{\n flag=true;\n \n \n    \n}\n    \n}\n\nreturn flag;\n    \n    \n}\n\n\nfunction getPartialOwnerSList(address a) public view returns (address[] memory) {\n    return wallets[a].owners.listofpartialowner;\n    \n}\n\nfunction set() public {\n    \n    \nwallets[msg.sender].doc.aadhar=\"HHHHHHAAH\";\n\n    \n}\n\n\n\n\n\n\n\n\nfunction getPartialOwnerShipINFO(address stud ,address paro)public view returns (bool ,uint ) {\n  //it returns the expiry date and whether the It Has Request to aadhar or NOt  \nreturn (wallets[stud].owners.partialowner[paro].aadhar, wallets[stud].owners.partialowner[paro].expiry);    \n    \n    \n}\n\n\n\nfunction getUploadRequestTIMESTAMP(address stud,address reqq) public view returns(uint){\n    \nreturn wallets[stud].uploadreq[reqq].timestamp;\n\n\n    \n}\n\n\nfunction getChangeOwnerRequestTIMESTAMP(address stud,address reqq) public view returns(uint){\n    \nreturn wallets[stud].changeowneri[reqq].timestamp;\n\n    \n}\n\n\n\n\n\nfunction setAaadharNo (address a,uint8 qw,string memory io) public  {\nwallets[a].doc.aadharno=qw;\nwallets[a].doc.aadharnoHash=io;\n\n    \n    \n}\n\n\n\nfunction createNEwAccess (address stud ,address ad) public {\n\n\nwallets[stud].owners.listofpartialowner.push(ad);\n\nwallets[ad].ihaveaccess.push(stud);\n\n\nwallets[ad].PastOwners.push(ad);\n\n\n}\n\n\n\n\n\nfunction getIhaveaAccess(address  a)public view returns (address[] memory){\n    \n    \n    \nreturn wallets[a].ihaveaccess;\n\n   \n}\n\n\n\nfunction getUplaodReqPic(address stud,address inst) public view returns (string memory)\n{\n    \n    \n    return wallets[stud].uploadreq[inst].aadharhash;\n\n    \n    }\n\n\nfunction getPastOwner(address a)public view\n returns  (address[] memory)\n {\n     \n     \n     return wallets[a].PastOwners;\n    \n    \n    \n}\n\n\n\n}\n\n",
  "sourcePath": "/home/stanleeniko/sih/contracts/SimpleStorage.sol",
  "compiler": {
    "name": "solc",
    "version": "0.5.0+commit.1d4f565a.Emscripten.clang"
  },
  "schemaVersion": "3.0.2",
  "updatedAt": "2019-03-03T09:52:23.072Z",
  "devdoc": {
    "methods": {}
  },
  "userdoc": {
    "methods": {}
  }
}